:020000040000FA
:100000000C9463000C948B000C948B000C940E09E0
:100010000C940E090C940E090C948B000C948B001C
:100020000C948B000C948B000C948B000C948B0024
:100030000C948B000C948B000C948B000C948B0014
:100040000C94A5070C948B000C9473070C944D072B
:100050000C948B000C948B000C948B000C948B00F4
:100060000C94EF070C948B00000000002400270084
:100070002A0000000008000201000003040700003D
:1000800000000000000000000000230026002900FE
:1000900000000000250028002B00040404040404D0
:1000A0000404020202020202030303030303010227
:1000B00004081020408001020408102001020408F6
:1000C00010208609E71A11241FBECFEFD8E0DEBF4B
:1000D000CDBF14E0A0E0B1E0E6E4FBE302C0059090
:1000E0000D92A032B107D9F726E0A0E2B4E001C03A
:1000F0001D92AA33B207E1F710E0C2E6D0E004C0D7
:100100002197FE010E947C1DC136D107C9F70E94CC
:10011000580A0C94961D0C940000FC019C012C5F65
:100120003F4F80E09191891BE217F307D9F70895BB
:10013000089508950895AF92BF92CF92DF92EF9203
:10014000FF920F931F93CF93DF936C017B018B0181
:10015000040F151FEB015E01AE18BF08C017D107D1
:1001600059F06991D601ED91FC910190F081E02D5B
:10017000C6010995892B79F7C501DF91CF911F91B0
:100180000F91FF90EF90DF90CF90BF90AF900895C8
:10019000FC01538D448D252F30E0842F90E0821B8D
:1001A000930B541710F0CF96089501970895FC0112
:1001B000918D828D981761F0A28DAE0FBF2FB11D6A
:1001C0005D968C91928D9F5F9F73928F90E00895C2
:1001D0008FEF9FEF0895FC01918D828D981731F07C
:1001E000828DE80FF11D858D90E008958FEF9FEFD0
:1001F0000895FC01918D228D892F90E0805C9F4FA6
:10020000821B91098F739927089586E695E00E94D5
:10021000F90021E0892B09F420E0822F089580E085
:1002200090E0892B29F00E94050181110C940000B7
:100230000895FC01A48DA80FB92FB11DA35ABF4F7B
:100240002C91848D90E001968F739927848FA689D5
:10025000B7892C93A089B1898C91837080648C9329
:10026000938D848D981306C00288F389E02D8081D8
:100270008F7D80830895EF92FF920F931F93CF930A
:10028000DF93EC0181E0888F9B8D8C8D98131AC0D1
:10029000E889F989808185FF15C09FB7F894EE89B8
:1002A000FF896083E889F989808183708064808315
:1002B0009FBF81E090E0DF91CF911F910F91FF9060
:1002C000EF900895F62E0B8D10E00F5F1F4F0F7308
:1002D0001127E02E8C8D8E110CC00FB607FCFACFC3
:1002E000E889F989808185FFF5CFCE010E94190147
:1002F000F1CFEB8DEC0FFD2FF11DE35AFF4FF08294
:100300009FB7F8940B8FEA89FB8980818062CFCFF9
:10031000CF93DF93EC01888D8823B9F0AA89BB893C
:10032000E889F9898C9185FD03C0808186FD0DC027
:100330000FB607FCF7CF8C9185FFF2CF808185FF48
:10034000EDCFCE010E941901E9CFDF91CF91089541
:10035000833081F028F4813099F08230A9F008953B
:100360008730A9F08830C9F08430B1F480918000E2
:100370008F7D03C0809180008F77809380000895E7
:1003800084B58F7784BD089584B58F7DFBCF809130
:10039000B0008F778093B00008958091B0008F7D7A
:1003A000F9CFCF93DF93282F30E0F901EE58FF4FBC
:1003B0008491F901E255FF4FD491F901E656FF4FC0
:1003C000C491CC23A1F081110E94A801EC2FF0E090
:1003D000EE0FFF1FEA57FF4FA591B491EC91ED236B
:1003E00081E090E009F480E0DF91CF91089580E012
:1003F00090E0FACF1F93CF93DF93282F30E0F901DD
:10040000EE58FF4F8491F901E255FF4FD491F90165
:10041000E656FF4FC491CC23A9F0162F81110E94FC
:10042000A801EC2FF0E0EE0FFF1FE057FF4FA59162
:10043000B4918FB7F894EC91111108C0D095DE23D8
:10044000DC938FBFDF91CF911F910895DE2BF8CF02
:10045000CF93DF9390E0FC01E255FF4F2491865645
:100460009F4FFC0184918823C9F090E0880F991F69
:10047000FC01E859FF4FA591B491FC01E057FF4FF3
:10048000C591D49161110DC09FB7F8948C912095BE
:1004900082238C938881282328839FBFDF91CF916B
:1004A0000895623051F49FB7F8943C91822F809563
:1004B00083238C93E8812E2BEFCF8FB7F894EC91A8
:1004C0002E2B2C938FBFEACF3FB7F894809117055E
:1004D00090911805A0911905B0911A0526B5A89B11
:1004E00005C02F3F19F00196A11DB11D3FBFBA2FC6
:1004F000A92F982F8827BC01CD01620F711D811D86
:10050000911D42E0660F771F881F991F4A95D1F70A
:1005100008958F929F92AF92BF92CF92DF92EF9207
:10052000FF924B015C010E9464026B017C010E94FE
:1005300064026C197D098E099F09683E734081052C
:100540009105A8F321E0821A9108A108B10888EE6C
:10055000C80E83E0D81EE11CF11C81149104A10493
:10056000B10429F7FF90EF90DF90CF90BF90AF904C
:100570009F908F90089508952091A104260F33270E
:10058000331F21323105ECF42091EA04FC0190E0A4
:1005900080E0243069F082E00895A091A1042191C7
:1005A000AC014F575B4FA40FB52FB11D2C93019693
:1005B000861798F38091A104680F6093A10480E0EE
:1005C000089581E008951092EA0481E08093E9049F
:1005D0001092C40461E082E10E94FA0161E083E1CB
:1005E0000E94FA01E9EBF0E080818E7F80838081B8
:1005F0008D7F808388E48093B80085E48093BC007D
:100600000895CF93DF9391E0909380048823B9F00D
:10061000C091B800D091BA008091BC008A7B8093D1
:10062000BC0060E082E10E94FA0160E083E10E9488
:10063000FA010E94E302D093BA00C093B800DF91A0
:10064000CF910895E091220580912105E81730F4BB
:10065000F0E0E05AFB4F808190E008958FEF9FEF2C
:10066000089590912205809121052FEF3FEF981773
:1006700048F4E92FF0E0E05AFB4F208130E09F5F23
:1006800090932205C901089580912105909122053A
:10069000891B990B0895CF92DF92EF92FF920F93EF
:1006A0001F93CF93DF937C01CB018A012091F0044B
:1006B000222389F0EB016B01C40ED51ECC15DD059C
:1006C00069F06991D701ED91FC910190F081E02DE5
:1006D000C7010995F3CF642F0E94BC02C801DF91C6
:1006E000CF911F910F91FF90EF90DF90CF900895E1
:1006F000CF93DF931F92CDB7DEB769832091F004CB
:100700002223F9F020911F05203258F021E030E03B
:10071000FC013383228390E080E00F90DF91CF9142
:10072000089580912005E82FF0E0EF50FB4F99816C
:1007300090838F5F8093200580931F0581E090E078
:10074000ECCF61E0CE0101960E94BC02F7CFCF92C0
:10075000DF92EF92FF920F931F93CF93DF93FC01F1
:10076000C48121E02093F004C0931105109220056C
:1007700010921F058385682B83E096E00E94780322
:10078000D0911F05D13208F092C00E9464026B0123
:100790007C018091EA04811165C082E08093EA04C3
:1007A00081E08093E9048FEF8093E8041092E704DE
:1007B000D093E604A1EFB4E0E6ECF4E080E0D813D7
:1007C00085C01092C5048091C504CC0FC82BC0937E
:1007D000C5048091C404813009F07CC01092C40427
:1007E0000E9464026B017C018091C5048093BB0070
:1007F0008091EC049091ED04A091EE04B091EF048F
:10080000892B8A2B8B2B99F00E9464020091EC04B7
:100810001091ED042091EE043091EF046C197D09E4
:100820008E099F090617170728073907E0F18091FD
:10083000BC0083FDD9CF85EC8093BC000E9464028C
:100840006B017C018091EA04823009F445C08091FB
:10085000E8048F3F61F18091E804803241F180919A
:10086000E80425C08091EC049091ED04A091EE0481
:10087000B091EF04892B8A2B8B2B09F48ACF0E942D
:1008800064020091EC041091ED042091EE0430918B
:10089000EF046C197D098E099F09061717072807B1
:1008A000390708F076CF8091EB040E940103109283
:1008B000200510921F051092F004DF91CF911F9137
:1008C0000F91FF90EF90DF90CF9008959D919193BD
:1008D0008F5F75CF85EEB0CF8091EC049091ED04E1
:1008E000A091EE04B091EF04892B8A2B8B2B09F495
:1008F000A9CF0E9464020091EC041091ED042091B4
:10090000EE043091EF046C197D098E099F090617DA
:1009100017072807390708F095CFC5CF209125057F
:10092000309126052817390771F49091230580919D
:100930002405981741F0E0912305F0E0E05EFB4FBD
:10094000808190E008958FEF9FEF0895EF92FF92DE
:100950000F931F93CF93DF93DC015C96ED90FC9097
:100960005D97E114F10479F481E090E013969C9393
:100970008E93129790E080E0DF91CF911F910F91BD
:10098000FF90EF9008955196ED91FC9152975096FB
:100990008C915097982F90950FB75E962C915E97FB
:1009A000122F127021FD6095F8942081112319F106
:1009B000282B2083E7012197F1F728E0462F50E00C
:1009C000308160FF1AC0382B3083E7012197F1F79F
:1009D000BA0175956795215089F7112381F08081BF
:1009E000892380830FBF5C968D919C910197F1F7CD
:1009F00081E090E0C1CF2923DCCF3923E5CF90817E
:100A0000892BEFCF2091250530912605281739072E
:100A100071F4809124052091230590E0805C9F4F24
:100A2000821B910960E470E00E94461D089590E0E9
:100A300080E0089520912505309126052817390773
:100A4000B9F49091230580912405981789F0E091DD
:100A50002305F0E0E05EFB4F80812091230530E02C
:100A60002F5F3F4F2F7333272093230590E0089586
:100A70008FEF9FEF089590E080E008950F931F930C
:100A8000CF938C01C62F0E94A7036C2F6460C8010E
:100A90000E94A7036C2F6B7FC8010E94A70383EC01
:100AA00090E00197F1F7CF911F910F9108950F9367
:100AB0001F93CF93DF938C01D62FC42F607F642BBD
:100AC0000E943E0580E1D89FB00111246C2BC80123
:100AD000DF91CF911F910F910C943E0540E061E0B2
:100AE0008EE296E00E9457058BE39FE10197F1F7B4
:100AF0000895CF93DF93CDB7DEB728970FB6F8945C
:100B0000DEBF0FBECDBF98E0E0E1F1E0DE0111965F
:100B100001900D929A95E1F790913606961708F498
:100B20006FEF262F30E0220F331F41E050E04C0FD3
:100B30005D1F240F351FF9016081680F606840E078
:100B40008EE296E028960FB6F894DEBF0FBECDBFBA
:100B5000DF91CF910C94570541E00E94570581E049
:100B600090E0089541E0682F8EE296E00E945705DC
:100B700081E090E00895FC0101900020E9F73197B1
:100B8000AF01481B590BBC018EE296E00C949B0010
:100B90008F929F92AF92BF920F931F93CF93DF9349
:100BA000CDB7DEB7A1970FB6F894DEBF0FBECDBFAD
:100BB00019A2423008F44AE08E010F5D1F4F842EC7
:100BC000912CB12CA12CA50194010E945A1DE62F55
:100BD000B901CA01EA30F4F4E05DD801EE938D0169
:100BE000232B242B252B79F790E080E0109719F028
:100BF000CD010E94BB05A1960FB6F894DEBF0FBED3
:100C0000CDBFDF91CF911F910F91BF90AF909F907B
:100C10008F900895E95CE1CFCF92DF92EF92FF923F
:100C2000CF93DF936C01990FEE08FF086A307105CE
:100C3000D1F44AE0F7FE18C08DE20E94B205EC0143
:100C400066277727CB016C197D098E099F094AE039
:100C50000E94C8058C0F9D1FDF91CF91FF90EF90F0
:100C6000DF90CF900895462FC701B601DF91CF9155
:100C7000FF90EF90DF90CF900C94C8050C94BB05CB
:100C80004F925F926F927F928F929F92AF92BF929C
:100C9000CF92DF92EF92FF92CF93DF936B017C01B3
:100CA000942EAC019B010E94411D882391F088E79E
:100CB00091E0DF91CF91FF90EF90DF90CF90BF90C8
:100CC000AF909F908F907F906F905F904F900C941B
:100CD000BB0526013701E89477F82FEF3FEF4FE788
:100CE0005FE7C301B2010E94411D81110DC02FEFCA
:100CF0003FEF4FE75FE7C301B2010E94701B181678
:100D00001CF48CE791E0D5CF2FEF3FEF4FE75FE486
:100D1000C701B6010E94CF1C18161CF480E891E0B0
:100D2000C8CF2FEF3FEF4FE75FECC701B6010E943E
:100D3000701B87FDF3CF20E030E0A901C701B601A9
:100D40000E94701BB12CA12C87FF08C08DE20E946D
:100D5000B2055C01F7FAF094F7F8F094C92D60E061
:100D600070E080E09FE3D0E020E030E040E251E43A
:100D70000E94751B21E02D0FD1E02915A8F3A701D2
:100D800096010E94041B2B013C010E94EE1B6B018B
:100D90007C010E941D1C9B01AC01C301B2010E9499
:100DA000031B2B013C014AE0C701B6010E94C805A4
:100DB0007C018EE20E94B205E80EF91EEA0CFB1CD3
:100DC000C15018F120E030E040E251E4C301B2012B
:100DD0000E94D41C2B013C010E94EE1B4B01B12C44
:100DE000A12C4AE0C501B4010E94C805E80EF91E15
:100DF000C501B4010E941D1C9B01AC01C301B201DD
:100E00000E94031B2B013C01DBCFC701DF91CF9177
:100E1000FF90EF90DF90CF90BF90AF909F908F901A
:100E20007F906F905F904F90089585ED8093BC0008
:100E30008091EC049091ED04A091EE04B091EF0448
:100E40000796A11DB11D23E0B695A79597958795A7
:100E50002A95D1F72091BC0024FD03C01092EA042A
:100E600008954091EC045091ED046091EE0470916E
:100E7000EF04452B462B472B69F30097A105B105DD
:100E800041F025E32A95F1F700000197A109B10986
:100E9000E1CF8091EB040C9401031F920F920FB6E7
:100EA0000F9211242F933F934F935F936F937F93F0
:100EB0008F939F93AF93BF93EF93FF9386E695E055
:100EC0000E941901FF91EF91BF91AF919F918F9176
:100ED0007F916F915F914F913F912F910F900FBE36
:100EE0000F901F9018951F920F920FB60F9211241A
:100EF0002F938F939F93EF93FF93E0917605F0915B
:100F000077058081E0917C05F0917D0582FD1BC015
:100F1000908180917F058F5F8F732091800582176C
:100F200041F0E0917F05F0E0EA59FA4F958F809308
:100F30007F05FF91EF919F918F912F910F900FBEA1
:100F40000F901F9018958081F4CF1F920F920FB6CB
:100F50000F9211242F933F938F939F93AF93BF933F
:100F60008091130590911405A0911505B091160577
:100F70003091120523E0230F2D3758F50196A11D5E
:100F8000B11D209312058093130590931405A0932F
:100F90001505B09316058091170590911805A0913D
:100FA0001905B0911A050196A11DB11D8093170571
:100FB00090931805A0931905B0931A05BF91AF91AE
:100FC0009F918F913F912F910F900FBE0F901F9087
:100FD000189526E8230F0296A11DB11DD2CF1F92AE
:100FE0000F920FB60F9211242F933F934F935F935D
:100FF0006F937F938F939F93AF93BF93EF93FF93E1
:101000008091B900887F803609F44AC0F0F58832B3
:1010100009F4A7C018F5803109F49BC0B8F48823FF
:1010200009F4F9C0883009F494C0FF91EF91BF91A1
:10103000AF919F918F917F916F915F914F913F9170
:101040002F910F900FBE0F901F901895883109F4C3
:1010500088C0803251F78093E80414C0803409F4CA
:101060009DC040F48033B9F38833F9F68093E804E7
:1010700085ECB0C0803509F485C0883509F496C088
:10108000883499F60E941507D0CF883909F48CC0AE
:1010900038F5883729F050F4883611F0803729F672
:1010A00083E08093EA041092C30457C0883809F49F
:1010B0007BC0803919F0803809F0B7CF8091C30424
:1010C000803208F071C0E091C30481E08E0F8093FC
:1010D000C3048091BB00F0E0ED55FB4F80833DC021
:1010E000803B39F0E0F4803A09F479C0883A09F09D
:1010F0009CCF84E08093EA041092A2041092A10491
:10110000E0911D05F0911E0509958091A1048111C2
:101110000FC081E08093A1041092810409C0803C3B
:1011200009F4A6CF883C09F4A3CF883B09F07DCF12
:10113000E091A20481E08E0F8093A204F0E0EF57CB
:10114000FB4F80818093BB009091A2048091A10409
:1011500029C08091C5048093BB0085EC8093BC00BE
:1011600064CF9091E7048091E604981758F5E091D8
:10117000E70481E08E0F8093E704F0E0EA53FB4F31
:101180008081E9CFE091E70481E08E0F8093E7044E
:101190008091BB00F0E0EA53FB4F80839091E7041D
:1011A0008091E6049817C8F285E8D8CFE091E7046B
:1011B00081E08E0F8093E7048091BB00F0E0EA535A
:1011C000FB4F80838091E90481115CCF81E08093A3
:1011D000C40484EA8093BC001092EA0426CF85EC14
:1011E0008093BC001092EA048091C304803230F4F2
:1011F000E091C304F0E0ED55FB4F10826091C30411
:1012000070E0E0911B05F0911C0583EA94E00995DC
:101210001092C3040ACF1092E80434CF1F920F92A9
:101220000FB60F9211242F933F934F935F936F93B9
:101230007F938F939F93AF93BF93EF93FF93E0912F
:101240002505F0912605309749F0A685B785858557
:10125000968D91FF14C09C918923A1F4FF91EF9189
:10126000BF91AF919F918F917F916F915F914F91BE
:101270003F912F910F900FBE0F901F9018959C914A
:10128000892361F7A389B4899C91858980958923F5
:101290008C93868997890197F1F7608D718DA6856A
:1012A000B785558538E020E0CB010197F1F7822F13
:1012B00090E095958795282F4C91452309F020685B
:1012C000315091F7868D81FD20958091240590E025
:1012D00001968F73992730912305381799F0A091C3
:1012E0002405B0E0A05EBB4F2C9380932405828D33
:1012F000938D0197F1F7A389B4898C919589892BF6
:101300008C93ACCF868D8160868FF1CF109269056A
:101310001092680588EE93E0A0E0B0E080936A0543
:1013200090936B05A0936C05B0936D052AE331E0B3
:10133000309367052093660525EC30E03093730504
:101340002093720524EC30E03093750520937405EA
:1013500020EC30E0309377052093760521EC30E0E7
:10136000309379052093780522EC30E030937B05AB
:1013700020937A0526EC30E030937D0520937C05A0
:1013800010927F05109280051092810510928205BF
:1013900010920606109205068093070690930806A1
:1013A000A0930906B0930A062CE431E030930406BA
:1013B00020930306109231061092300620E731E0A8
:1013C00030932F0620932E0627E22093320620E149
:1013D0002093370622E020933806109239061092A7
:1013E0001206109211068093130690931406A09390
:1013F0001506B09316068EE591E090931006809343
:101400000F061092260610922506109228061092BA
:10141000270610922A061092290610922C06109286
:101420002B0660912D066E7F6D7F60932D0666956D
:10143000617081E068278AE00E94FA0161E08AE039
:101440000E942802E8EBF0E0E491E0931F06E4EA52
:10145000F0E0E491F0E0EE0FFF1FE057FF4F8591C1
:101460009491909321068093200660E08BE00E9487
:10147000280280912D0681FD04C061E08BE00E946E
:10148000FA018BE080931B06E9EBF0E0E491E09336
:101490001C06E5EAF0E0E491F0E0EE0FFF1FEA57EA
:1014A000FF4F8591949190931E0680931D06089599
:1014B000CF93DF93CDB7DEB7CC5BD1090FB6F894ED
:1014C000DEBF0FBECDBF789484B5826084BD84B585
:1014D000816084BD85B5826085BD85B5816085BD2F
:1014E00080916E00816080936E00109281008091E7
:1014F000810082608093810080918100816080936F
:101500008100809180008160809380008091B10093
:1015100084608093B1008091B00081608093B000BE
:1015200080917A00846080937A0080917A00826052
:1015300080937A0080917A00816080937A00809114
:101540007A00806880937A001092C1001092220580
:10155000109221051092200510921F050E94E302AF
:1015600089E990E090931E0580931D058AE990E03B
:1015700090931C0580931B051092330680913806CA
:10158000823018F098E0909333068093360662E339
:1015900070E080E090E00E948902609139068EE25E
:1015A00096E00E94A70368EE73E080E090E00E945E
:1015B000890260E38EE296E00E943E050BE416E4A9
:1015C000C8010197F1F760E38EE296E00E943E05C4
:1015D000C8010197F1F760E38EE296E00E943E05B4
:1015E00083E592E00197F1F760E28EE296E00E94D7
:1015F0003E0560913306606240E08EE296E00E9414
:10160000570584E08093340640E06CE08EE296E07B
:101610000E9457050E946E0512E01093350640E0C7
:1016200066E08EE296E00E94570540E062E08EE2BE
:1016300096E00E9457058BE39FE10197F1F788E060
:101640008093390660E08EE296E00E94A703E09165
:101650007605F09177051083E0917205F09173059E
:101660001082E0917405F091750580E180831092FD
:101670007E05E0917A05F0917B0586E08083E0911C
:101680007805F0917905808180618083E09178050B
:10169000F0917905808188608083E0917805F091F0
:1016A0007905808180688083E0917805F0917905E3
:1016B00080818F7D808362E085E00E94280262E065
:1016C00086E00E94280262E087E00E94280261E032
:1016D0008DE00E94280261E08AE00E94280260E01A
:1016E0008AE00E94FA0166E470E080E090E00E94E7
:1016F000890261E08AE00E94FA0162E870E080E01D
:1017000090E00E94890210922A06109229061092F7
:1017100028061092270610922606109225068DE7BD
:1017200091E090932C0680932B0690911B069631A6
:1017300008F047C02DEA30E03093260620932506B6
:101740002BE731E0309328062093270624E131E08F
:1017500030932A06209329062091680084E098306F
:1017600048F031E09E3008F430E081E001C0880F9D
:101770003A95EAF7822B809368002DE630E09830A6
:1017800050F02BE630E09E3030F02CE630E0963121
:1017900010F030E020E03093230620932206292F1A
:1017A00030E0983008F076C081E001C0880F9A954B
:1017B000EAF78093240680912B0690912C060197DE
:1017C000F1F78091290690912A06892B49F1E09141
:1017D0002505F091260526E0EF30F20709F1309754
:1017E00039F0A389B4899C918589809589238C934C
:1017F00080912D068E7F80932D06109224051092E5
:1018000023058FE096E09093260580932505E091CF
:101810002206F0912306808190912406892B8083F3
:1018200044E050E065E071E08FE096E00E949B00AC
:1018300068EC70E080E090E00E94890245E050E0B2
:1018400060E071E08FE096E00E949B0062E370E050
:1018500080E090E00E9489028E010F5F1F4F6801B7
:10186000F12CE12C8FE096E00E9402051816190673
:1018700024F430E2E316F104D1F4F801D12CC12CA8
:10188000CF01801B910B8E159F05E4F48191C80E4A
:10189000D11CF6CF9E3040F42850310981E001C0C0
:1018A000880F2A95EAF785CF2E503109F7CF8FE0C0
:1018B00096E00E941A054FEFE41AF40AD6018D93C0
:1018C0006D01D0CF60E080E00E94790584E891E06E
:1018D0000E943E0668EE73E080E090E00E9489027C
:1018E00061E080E0BBEFCB16B6E0DB0609F056C046
:1018F0000E94790585E991E00E943E0668EE73E05A
:1019000080E090E00E9489020E946E0520911801FB
:101910003091190140911A0150911B01CF55DF4FB1
:10192000288339834A835B83C15AD040CF57DF4F26
:10193000288339834A835B83C158D040CE018F57B7
:101940009F4F0E948D0092E7998395E09A8391E7DB
:101950009B8391E19C838D8345E050E0B8018FE04B
:1019600096E00E949B0062E370E080E090E00E94BD
:101970008902F12CE12C8FE096E00E9402051816F6
:1019800019068CF430E8E316F10499F08FE096E044
:101990000E941A054FEFE41AF40AEDCF0E94790570
:1019A00086EA91E0A9CF5EE1E51203C081E0809371
:1019B000650580901C0190901D01A0901E01B090C3
:1019C0001F01CF57DF4F88829982AA82BB82C158FC
:1019D000D040CE018F579F4F0E948D0092E7998390
:1019E00095E09A8391E79B8397E19C838D8345E003
:1019F00050E0B8018FE096E00E949B0062E370E047
:101A000080E090E00E948902F12CE12C8FE096E0CA
:101A10000E9402051816190664F480E8E816F1041D
:101A200041F08FE096E00E941A059FEFE91AF90A4B
:101A3000EDCF8E2D8C3109F059C082E08093650581
:101A400060E082E00E94790587EB91E00E943E060B
:101A500061E086E00E94790584EC91E00E943E06F8
:101A600060ED77E080E090E00E9489020E946E05C0
:101A700045E050E069E071E08FE096E00E949B0055
:101A80006EE170E080E090E00E94890286E0E0E292
:101A9000F1E0DE01AF57BF4F01900D928A95E1F75B
:101AA00046E050E0BE016F577F4F8FE096E00E9406
:101AB0009B006EE170E080E090E00E948902780176
:101AC0006E01A1E8CA0ED11C8FE096E00E940205CB
:101AD0001816190684F4CE14DF0469F08FE096E03E
:101AE0000E941A05F70181937F01EECF8D3109F035
:101AF000A7CF83E0A3CF8A8580932C058B85809325
:101B00002B058C8580932A058D85809329058E85EC
:101B1000809328050E946E0560E085E00E947905AB
:101B200089EC91E00E943E0661E081E00E94790527
:101B300060912C0570E090E080E040E10E94C805D3
:101B400061E083E00E94790580ED91E00E943E060D
:101B500061E084E00E94790560912B0570E090E0DF
:101B600080E040E10E94C80561E086E00E947905BE
:101B700080ED91E00E943E0661E087E00E947905D9
:101B800060912A0570E090E080E040E10E94C80585
:101B900061E089E00E94790580ED91E00E943E06B7
:101BA00061E08AE00E9479056091290570E090E08B
:101BB00080E040E10E94C80561E08CE00E94790568
:101BC00080ED91E00E943E0661E08EE00E94790582
:101BD0006091280570E090E080E040E10E94C80537
:101BE0006CED75E080E090E00E9489020E946E0535
:101BF0008AA1809327050E946E058091650581303A
:101C000081F460E083E00E94790582ED91E00E941A
:101C10003E0661E083E00E9479058EED91E00E942E
:101C20003E06809165058131B1F40E946E0560E049
:101C300083E00E94790582ED91E00E943E0661E01A
:101C400083E00E9479056091270570E090E080E0D4
:101C50004AE00E94C8056CED75E080E090E00E94CB
:101C600089020E946E052091260130912701409142
:101C7000280150912901CB55DF4F288339834A83AE
:101C80005B83C55AD04030912A01C356DF4F388359
:101C9000CD59D04040912B01C256DF4F4883CE59D9
:101CA000D04020902C0130902D0140902E0150907A
:101CB0002F016090300170903101C355DF4F3883A0
:101CC000CD5AD040C255DF4F4883CE5AD040C1557F
:101CD000DF4F2882CF5AD040C055DF4F3882C05BDB
:101CE000D040CF54DF4F4882C15BD040CE54DF4F4D
:101CF0005882C25BD040CD54DF4F6882C35BD04076
:101D0000CC54DF4F7882C45BD040CB54DF4F388354
:101D1000C55BD040CA54DF4F4883C65BD040C9542E
:101D2000DF4F2882C75BD040C854DF4F3882C85B82
:101D3000D040C754DF4F4882C95BD040C654DF4F04
:101D40005882CA5BD040C554DF4F6882CB5BD0401D
:101D5000C454DF4F7882CC5BD040809132019091A7
:101D60003301A0913401B0913501C755DF4F88830D
:101D70009983AA83BB83C95AD0408091650581307D
:101D800009F0B9C2CF55DF4F288139814A815B8183
:101D9000C15AD040C756DF4F288339834A835B83BB
:101DA000C959D040CE0187569F4F0E948D0062E7EF
:101DB000D62EC457DF4FD882CC58D04075E0E72EDE
:101DC000C357DF4FE882CD58D040E1E7FE2EC2571F
:101DD000DF4FF882CE58D04091E1C157DF4F988352
:101DE000CF58D040C057DF4F8883C059D04045E01E
:101DF00050E0BE0164577F4F8FE096E00E949B0049
:101E000062E370E080E090E00E948902CB54DF4FF3
:101E10003881C55BD040CB56DF4F3883C559D040A1
:101E2000CA54DF4F4881C65BD040CA56DF4F488353
:101E3000C659D040C954DF4F5881C75BD040C956FE
:101E4000DF4F5883C759D040C854DF4F8881C85BE3
:101E5000D040C856DF4F8883C859D040CE018B563A
:101E60009F4F0E948D00C957DF4FD882C758D0407E
:101E7000C857DF4FE882C858D040C757DF4FF882B5
:101E8000C958D04090E2C657DF4F9883CA58D04017
:101E9000C557DF4F8883CB58D04045E050E0BE01A6
:101EA00069577F4F8FE096E00E949B0062E370E0ED
:101EB00080E090E00E948902C754DF4F9881C95B9F
:101EC000D040CF56DF4F9883C159D040C654DF4F22
:101ED000A881CA5BD040CE56DF4FA883C259D040FC
:101EE000C554DF4FB881CB5BD040CD56DF4FB883B0
:101EF000C359D040C454DF4FE881CC5BD040CC56AE
:101F0000DF4FE883C459D040CE018F569F4F0E94C7
:101F10008D00CF57DF4FD882C158D040CE57DF4F0A
:101F2000E882C258D040CD57DF4FF882C358D04026
:101F300091EDCC57DF4F9883C458D040CB57DF4F3B
:101F40008883C558D04045E050E0BE016F577F4FB1
:101F50008FE096E00E949B0062E370E080E090E0FA
:101F60000E94890278016E01F1E8CF0ED11C8FE04A
:101F700096E00E940205181619065CF4CE14DF04E0
:101F800041F08FE096E00E941A05D7018D937D0104
:101F9000EECF8A8590E0982F88272B85820F911DA0
:101FA00090936405809363056C8570E090E080E019
:101FB0000E941D1C20E030E040EA50E40E94D41C46
:101FC00020E030E040E85BE30E94D41C60935B05B6
:101FD00070935C0580935D0590935E058D85BAE0F6
:101FE0008B9FC001112444E0959587954A95E1F7B0
:101FF00090935A05809359056E8570E090E080E0DB
:102000000E941D1C20E030E040EA50E40E94D41CF5
:1020100020E030E040E85BE30E94D41C60934F0571
:102020007093500580935105909352058F85885287
:10203000990B90934E0580934D05688970E090E070
:1020400080E00E941D1C20E030E040EA50E40E9445
:10205000D41C20E030E040E85BE30E94D41C609395
:1020600055057093560580935705909358058989B7
:102070008852990B90935405809353056A8970E0B8
:1020800090E080E00E941D1C20E030E040EA50E437
:102090000E94D41C20E030E040E85BE30E94D41CA6
:1020A0000E94E71B70934C0560934B058B89885207
:1020B000990B90934A05809349056C8970E090E0F4
:1020C00080E00E941D1C20E030E040EA50E40E94C5
:1020D000D41C20E030E040E85BE30E94D41C0E9466
:1020E000E71B70934805609347058D8990E09093B6
:1020F0004605809345056E8970E090E080E00E947F
:102100001D1C20E030E040E251E40E94751B60930A
:102110005F05709360058093610590936205688DFB
:10212000862F90E0982F8827698D680F792F711D71
:10213000072E000C880B990B0E941F1C20E030E03A
:102140004FE753E40E94751B60933D0570933E0575
:1021500080933F05909340056A8D70E090E080E0A9
:102160000E941F1C20E030E040E05FE30E94D41C8E
:1021700020E030E040E852E40E94031B60934105F8
:102180007093420580934305909344058F8990E0B6
:1021900090933405809333056FA170E090E080E068
:1021A0000E941D1C20E030E040EA50E40E94D41C54
:1021B00020E030E040E85BE30E94D41C60933905E6
:1021C00070933A0580933B0590933C0568A570E0B9
:1021D00090E080E00E941D1C9B01AC010E94041B4A
:1021E00020E030E040E85BE30E94D41C60933505BA
:1021F0007093360580933705909338058BA981112C
:102200005DC01092320510922F058FA981116DC00B
:102210001092310586E00E94D101892B91F48091C2
:102220000F01815080930F010E946E0566E970E0F6
:1022300080E090E00E94890286E00E94D101892B13
:10224000D9F385E00E94D101892B91F480910F018F
:102250008F5F80930F010E946E0566E970E080E059
:1022600090E00E94890285E00E94D101892BD9F378
:10227000E0910F01EC3108F011C6F0E0EE5BFE4E8C
:102280000C947C1D0E1712175E17A517E7171A1866
:1022900049188018C618FF183B1968199319B51901
:1022A000D219D419D619E219E619EA19E619EE1964
:1022B000F019F519D01AD21AD51AE51A823021F47C
:1022C00081E0809332059FCF803231F481E08093AA
:1022D0002F051092320599CF823209F096CF81E016
:1022E0008093320580932F0590CF813009F092CFF3
:1022F000809331058FCF823009F03DC2C756DF4F42
:1023000088829982AA82BB82C959D040CE01875661
:102310009F4F0E948D00B2E7DB2EC457DF4FD8825B
:10232000CC58D04095E0E92EC357DF4FE882CD5816
:10233000D04021E7F22EC257DF4FF882CE58D0406E
:1023400097E1C157DF4F9883CF58D040C057DF4F38
:102350008883C059D04045E050E0BE0164577F4FAC
:102360008FE096E00E949B0062E370E080E090E0E6
:102370000E948902C355DF4FE881CD5AD040CB5629
:10238000DF4FE883C559D040C255DF4FF881CE5AA0
:10239000D040CA56DF4FF883C659D040C155DF4FF1
:1023A0002881CF5AD040C956DF4F2883C759D04023
:1023B000C055DF4F3881C05BD040C856DF4F3883EF
:1023C000C859D040CE018B569F4F0E948D00C957EF
:1023D000DF4FD882C758D040C857DF4FE882C8586F
:1023E000D040C757DF4FF882C958D04090E2C65757
:1023F000DF4F9883CA58D040C557DF4F8883CB58EA
:10240000D04045E050E0BE0169577F4F8FE096E035
:102410000E949B0062E370E080E090E00E948902ED
:10242000CF54DF4F4881C15BD040CF56DF4F488348
:10243000C159D040CE54DF4F5881C25BD040CE56F8
:10244000DF4F5883C259D040CD54DF4F8881C35BE2
:10245000D040CD56DF4F8883C359D040CC54DF4F96
:102460009881C45BD040CC56DF4F9883C459D0408C
:10247000CE018F569F4F0E948D00CF57DF4FD882DD
:10248000C158D040CE57DF4FE882C258D040CD5718
:10249000DF4FF882C358D04091EDCC57DF4F98837F
:1024A000C458D040CB57DF4F8883C558D04045E053
:1024B00050E0BE016F577F4F8FE096E00E949B0077
:1024C00062E370E080E090E00E94890278016E0192
:1024D000A1E8CA0ED11C8FE096E00E9402051816F2
:1024E00019065CF4CE14DF0441F08FE096E00E9400
:1024F0001A05F70181937F01EECF898590E0982F2F
:1025000088272A85820F911D909364058093630527
:102510006B8570E090E080E00E941D1C20E030E0C0
:1025200040EA50E40E94D41C20E030E040E85BE345
:102530000E94D41C60935B0570935C0580935D05DD
:1025400090935E058C85FAE08F9FC0011124F4E022
:1025500095958795FA95E1F790935A0580935905DB
:102560006D8570E090E080E00E941D1C20E030E06E
:1025700040EA50E40E94D41C20E030E040E85BE3F5
:102580000E94D41C60934F057093500580935105B1
:10259000909352058E858852990B90934E058093A7
:1025A0004D056F8570E090E080E00E941D1C20E0EA
:1025B00030E040EA50E40E94D41C20E030E040E8E3
:1025C0005BE30E94D41C609355057093560580937D
:1025D0005705909358052889422F4852550B7A0188
:1025E00050935405409353050E94E71B70934C058C
:1025F00060934B05F0924A05E0924905698970E0C5
:1026000090E080E00E941D1C20E030E040EA50E4B1
:102610000E94D41C20E030E040E85BE30E94D41C20
:102620000E94E71B70934805609347058A8990E0F4
:1026300090934605809345056B8970E090E080E0BB
:102640000E941D1C20E030E040E251E40E94751B16
:1026500060935F05709360058093610590936205B8
:102660006C89862F90E0982F88276D89680F792FC5
:10267000711D072E000C880B990B0E941F1C20E077
:1026800030E04FE753E40E94751B60933D05709363
:102690003E0580933F05909340056E8970E090E081
:1026A00080E00E941F1C20E030E040E05FE30E94D9
:1026B000D41C20E030E040E852E40E94031B609309
:1026C0004105709342058093430590934405888D9E
:1026D00090E090933405809333056DA170E090E015
:1026E00080E00E941D1C20E030E040EA50E40E949F
:1026F000D41C20E030E040E85BE30E94D41C6093EF
:10270000390570933A0580933B0590933C056EA183
:1027100070E090E080E00E941D1C9B01AC010E94D3
:10272000041B20E030E040E85BE30E94D41C60938F
:10273000350570933605809337059093380588A941
:10274000823059F481E0809332058CA9813041F4C4
:1027500080933105109230050BC010923205F5CFF1
:10276000803409F02AC21092310581E0809330054F
:1027700010922F054FCD833009F048C2C756DF4F66
:1027800088829982AA82BB82C959D040CE018756DD
:102790009F4F0E948D0052E7D52EC457DF4FD8823D
:1027A000CC58D04065E0E62EC357DF4FE882CD58C5
:1027B000D04071E7F72EC257DF4FF882CE58D04095
:1027C00097E1C157DF4F9883CF58D040C057DF4FB4
:1027D0008883C059D04045E050E0BE0164577F4F28
:1027E0008FE096E00E949B0062E370E080E090E062
:1027F0000E948902C356DF4F5881CD59D040CB5635
:10280000DF4F5883C559D040C256DF4F8881CE591B
:10281000D040CA56DF4F8883C659D040C956DF4FD3
:102820002882C759D040C856DF4F3882C859D04097
:10283000CE018B569F4F0E948D00C957DF4FD88223
:10284000C758D040C857DF4FE882C858D040C75754
:10285000DF4FF882C958D04090E2C657DF4F9883C7
:10286000CA58D040C557DF4F8883CB58D04045E089
:1028700050E0BE0169577F4F8FE096E00E949B00B9
:1028800062E370E080E090E00E948902CF56DF4F63
:102890004882C159D040CE56DF4F5882C259D040ED
:1028A000CD56DF4F6882C359D040CC56DF4F788277
:1028B000C459D040CE018F569F4F0E948D00CF57F4
:1028C000DF4FD882C158D040CE57DF4FE882C25880
:1028D000D040CD57DF4FF882C358D04091EDCC5750
:1028E000DF4F9883C458D040CB57DF4F8883C558FB
:1028F000D04045E050E0BE016F577F4F8FE096E03B
:102900000E949B0062E370E080E090E00E948902F8
:1029100078016E0191E8C90ED11C8FE096E00E940B
:102920000205181619065CF4CE14DF0441F08FE09E
:1029300096E00E941A05D7018D937D01EECF8A851E
:1029400090E0982F88272B85820F911D9093640526
:10295000809363056C8570E090E080E00E941D1C10
:1029600020E030E040EA50E40E94D41C20E030E057
:1029700040E85BE30E94D41C60935B0570935C05A8
:1029800080935D0590935E058D85BAE08B9FC001B5
:10299000112434E0959587953A95E1F790935A057F
:1029A000809359056E8570E090E080E00E941D1CC8
:1029B00020E030E040EA50E40E94D41C20E030E007
:1029C00040E85BE30E94D41C60934F057093500570
:1029D00080935105909352058F858852990B90935F
:1029E0004E0580934D056A8970E090E080E00E947A
:1029F0001D1C20E030E040EA50E40E94D41C20E09E
:102A000030E040E85BE30E94D41C6B017C01C09283
:102A10005505D0925605E0925705F09258058B89DE
:102A2000E82FF0E0C156DF4FF983E883CF59D0405B
:102A3000CF0188979093540580935305688970E07F
:102A400090E080E00E941D1C20E030E040EA50E46D
:102A50000E94D41C20E030E040E85BE30E94D41CDC
:102A60000E94E71B70934C0560934B05898988523F
:102A7000990B90934A0580934905C701B6010E94BE
:102A8000E71B7093480560934705C156DF4F2881C7
:102A90003981CF59D04030934605209345056C8944
:102AA00070E090E080E00E941D1C20E030E040E2F9
:102AB00051E40E94751B60935F05709360058093DD
:102AC0006105909362056D89862F90E0982F882785
:102AD0006E89680F792F711D072E000C880B990BDA
:102AE0000E941F1C20E030E04FE753E40E94751B5A
:102AF00060933D0570933E0580933F05909340059C
:102B00006F8970E090E080E00E941F1C20E030E0C0
:102B100040E05FE30E94D41C20E030E040E852E453
:102B20000E94031B60934105709342058093430507
:102B300090934405898D90E09093340580933305FC
:102B40006EA170E090E080E00E941D1C20E030E06B
:102B500040EA50E40E94D41C20E030E040E85BE30F
:102B60000E94D41C6093390570933A0580933B050D
:102B700090933C056FA170E090E080E00E941D1CE6
:102B80009B01AC010E94041B20E030E040E85BE3C5
:102B90000E94D41C609335057093360580933705E9
:102BA000909338058AA9823029F481E08093320518
:102BB0008EA9CCCD10923205FBCF803141F410921A
:102BC00031051092300581E080932F0523CB8134AD
:102BD00021F481E080933105C9CD813131F481E068
:102BE0008093310510923005EFCF803531F410928B
:102BF000310581E080933005E7CF813521F481E014
:102C000080933105F7CF10923105A4CD843009F0BF
:102C100001CBCB55DF4F88819981AA81BB81C55AF1
:102C2000D040CF57DF4F88839983AA83BB83C15895
:102C3000D040CE018F579F4F0E948D0092E799831D
:102C400095E09A8394E79B8391E09C838D8345E094
:102C500050E0B8018FE096E00E949B0062E370E0D4
:102C600080E090E00E94890281E8E82EF12C8FE05C
:102C700096E00E940205181619064CF491E0E91A34
:102C8000F10829F08FE096E00E941A05F0CF86E067
:102C90000E94D101892B91F480910E018150809383
:102CA0000E010E946E0566E970E080E090E00E94EF
:102CB000890286E00E94D101892BD9F385E00E9428
:102CC000D101892B91F480910E018F5F80930E01C9
:102CD0000E946E0566E970E080E090E00E94890243
:102CE00085E00E94D101892BD9F3E0910E01EF30EC
:102CF00008F090CAF0E0E158F94E0C947C1D0C17D6
:102D00008E169F16A616AD16B416BB16C216C91699
:102D1000D016D716DE1606170A170C1760E083E0E8
:102D20000E94790588EE91E00E943E0661E085E010
:102D30000E94790583EF91E00E943E066BCA60E035
:102D400083E00E9479058AEF91E0EECF60E083E0B6
:102D50000E94790585E092E0E7CF60E083E00E9481
:102D6000790580E192E0E0CF60E084E00E9479059F
:102D70008BE192E0D9CF60E083E00E94790584E2A4
:102D800092E0D2CF60E086E00E9479058EE292E088
:102D9000CBCF60E087E00E94790583E392E0C4CF67
:102DA00060E083E00E94790587E392E0BDCF60E0B8
:102DB00083E00E94790582E492E0B6CF60E080E093
:102DC0000E9479058DE492E00E943E0661E080E079
:102DD0000E9479058DE592E00E943E0687E00E9400
:102DE000D101892B09F016CA80910E018B3009F0B0
:102DF00011CA0E946E0581E080930F0110920E01AE
:102E000080912E0582538093650504CA8BE08093E0
:102E10000E0100CA0E946E0581E0F9CF8DE080931B
:102E20000F013CC060E080E00E9479058BE692E0F3
:102E30000E943E0660E08CE00E94790581E792E006
:102E40000E943E0660E086E00E9479056AE070E03C
:102E500080916305909164050E940C0661E080E01A
:102E60000E94790585E792E00E943E0661E086E0D7
:102E70000E94790560915F05709160058091610500
:102E80009091620542E050E00E94400661E08CE0D3
:102E90000E9479058BE792E00E943E0680E090E078
:102EA000892B11F40C94BD0E0E940501882311F4A6
:102EB0000C94AD0E0E9400000C94AD0E60E080E01A
:102EC0000E94790580E892E00E943E0660E088E07A
:102ED0000E94790560915B0570915C0580915D05AC
:102EE00090915E0542E050E00E94400660E08DE077
:102EF0000E94790588E892E00E943E0661E080E049
:102F00000E9479058CE892E00E943E0661E088E02C
:102F10000E9479056AE070E08091590590915A0508
:102F20000E940C068091590590915A0561E00A971C
:102F300034F489E00E94790584E992E0ADCF8DE018
:102F40000E94790588E992E0A7CF60E080E00E94C6
:102F500079058AE992E00E943E0660E088E00E94DE
:102F600079056091550570915605809157059091AE
:102F7000580542E050E00E94400660E08DE00E946B
:102F8000790588E892E00E943E0661E080E00E94B8
:102F9000790582EA92E00E943E0661E088E00E94A4
:102FA00079056AE070E080915305909154050E9484
:102FB0000C0661E08DE00E9479058FED0E94B2055C
:102FC00061E08EE00E94790588E793E065CF60E0DC
:102FD00080E00E9479058AEA92E00E943E0660E065
:102FE00088E00E94790560914F05709150058091AD
:102FF00051059091520542E050E00E94400660E089
:103000008DE00E94790588E892E00E943E0661E02A
:1030100080E00E94790582EB92E00E943E0661E02A
:1030200088E00E9479056AE070E080914D059091FA
:103030004E05BDCF60E080E00E9479058AEB92E00A
:103040000E943E0660E088E00E94790562E070E040
:1030500080914B0590914C050E940C0660E08DE03C
:103060000E94790588E892E00E943E0661E080E0D7
:103070000E94790582EC92E00E943E0661E088E0C1
:103080000E9479056AE070E08091490590914A05B7
:103090008ECF60E080E00E9479058AEC92E00E9489
:1030A0003E0660E086E00E94790562E070E0809173
:1030B0004705909148050E940C0660E08DE00E9453
:1030C000790588E892E00E943E0661E080E00E9477
:1030D00079058AEC92E00E943E0661E086E00E945B
:1030E00079056AE070E080914505909146050E945F
:1030F0000C0661E08DE00E94790580ED92E0CCCE77
:1031000060E080E00E94790584ED92E00E943E0636
:1031100060E087E00E947905609141057091420569
:10312000809143059091440541E050E00E944006A3
:1031300060E08BE00E94790587E093E00E943E0604
:1031400060E08DE00E9479058FED0E94B20561E09C
:1031500080E00E9479058AED92E00E943E0661E0DF
:1031600087E00E94790560913D0570913E05809150
:103170003F059091400541E050E00E94400661E02B
:103180008BE00E94790580EE92E086CE60E080E0E0
:103190000E94790585EE92E00E943E0660E08AE09A
:1031A0000E9479056091390570913A0580913B053F
:1031B00090913C0542E050E00E94400660E08FE0C4
:1031C0000E94790581E392E00E943E0661E080E082
:1031D0000E9479058FEE92E00E943E0661E08AE04F
:1031E0000E9479056091350570913605809137050B
:1031F0009091380542E050E00E9440064FCE60E0DA
:1032000080E00E94790589EF92E00E943E0660E02E
:103210008CE00E9479056AE070E08091330590911E
:1032200034050E940C0680913305909134050A976D
:1032300044F460E08DE00E94790585E093E00E940F
:103240003E0661E080E00E94790589E093E00E94FB
:103250003E0680913205882339F061E08CE00E94BF
:10326000790585E193E018CE61E08CE00E94790554
:1032700089E193E011CE60E080E00E9479058DE164
:1032800093E00E943E068091310560E08823D1F0F2
:103290008CE00E94790585E193E00E943E0661E0A2
:1032A00080E00E9479058EE293E00E943E068091C4
:1032B00030058111D2CF61E08CE00E94790589E26E
:1032C00093E0EACD8CE00E94790589E293E0E5CFB6
:1032D00060E080E00E9479058AE393E00E943E0668
:1032E00080912F0560E08823B1F08DE00E94790580
:1032F00085E193E00E943E0661E080E00E9479054E
:1033000087E493E00E943E0680912F0561E08823C8
:1033100041F08DE0A4CF8DE00E94790589E293E031
:10332000E9CF8DE0CACF60E080E00E94790584E5B6
:1033300093E00E943E0661E081E00E94790580E60C
:1033400093E00E943E0687E00E94D101892B09F09C
:10335000A5CD80910F018C3009F0A0CD8FE0809336
:103360000F0181E080930E0199CD60E080E00E9422
:1033700079058EE693E00E943E0661E081E00E94BE
:10338000790580E693E00E943E0687E00E94D10125
:10339000892B09F083CD80910F018D3009F07ECD0E
:1033A00085E13DCD81E03BCD0E946E0580916505B4
:1033B0008E5C80932E0583E180930F0184E08093DF
:1033C00065056CCD0E946E0580E129CD0E946E05D9
:1033D00083E125CD84E080936505FACF0E946E05D8
:1033E0000E946E0587E180930F0180910F01873164
:1033F00009F0D6C080912D0581110BC00E946E0589
:103400006EE170E080E090E00E94890281E08093AC
:103410002D0580912D05813009F0C2C0C755DF4FC1
:10342000288139814A815B81C95AD040CF57DF4F0B
:10343000288339834A835B83C158D040CE018F579C
:103440009F4F0E948D0092E7998395E09A8390E6C2
:103450009B8393E09C838D8345E050E0B8018FE02F
:1034600096E00E949B0062E370E080E090E00E94A2
:1034700089020E946E0560E080E00E9479058AE77B
:1034800093E00E943E0661E080E00E9479058AE8B0
:1034900093E00E943E0660ED77E080E090E00E94BD
:1034A00089020E946E0545E050E0B8018FE096E089
:1034B0000E949B0060E080E00E94790586E993E02D
:1034C0000E943E0661E080E00E94790586EA93E072
:1034D0000E943E0660ED77E080E090E00E94890265
:1034E00045E050E0B8018FE096E00E949B0061E06B
:1034F00080E00E94790583EB93E00E943E0661E044
:1035000080E00E94790581EC93E00E943E0668EE1F
:1035100073E080E090E00E94890245E050E0B8014D
:103520008FE096E00E949B0061E080E00E947905B8
:1035300080ED93E00E943E0668EE73E080E090E04C
:103540000E94890261E080E00E94790580EE93E0AC
:103550000E943E0668EE73E080E090E00E948902DF
:103560000E946E0561E081E00E94790581EF93E0A1
:103570000E943E0660ED77E080E090E00E948902C4
:1035800060E081E00E94790581E094E00E943E06BF
:1035900061E080E00E9479058FE094E00E943E06A1
:1035A0000E946E058AE180930F0160E081E00E9435
:1035B000790581E094E00E943E0661E080E00E948F
:1035C00079058FE094E00E943E068AE128CC8EE5E2
:1035D00091E09093100680930F06809125059091BD
:1035E00026058F50964071F4E0912206F091230653
:1035F00090818091240680958923808310922605EE
:103600001092250508955058BB27AA270E941B1B1E
:103610000C94951C0E94871C38F00E948E1C20F090
:1036200039F49F3F19F426F40C94841C0EF4E095B1
:10363000E7FB0C947E1CE92F0E94A61C58F3BA17D6
:10364000620773078407950720F079F4A6F50C94B8
:10365000C81C0EF4E0950B2EBA2FA02D0B01B9015A
:1036600090010C01CA01A0011124FF27591B99F0F8
:10367000593F50F4503E68F11A16F040A22F232F04
:10368000342F4427585FF3CF469537952795A79554
:10369000F0405395C9F77EF41F16BA0B620B730BFB
:1036A000840BBAF09150A1F0FF0FBB1F661F771F6C
:1036B000881FC2F70EC0BA0F621F731F841F48F421
:1036C000879577956795B795F7959E3F08F0B0CFAA
:1036D0009395880F08F09927EE0F97958795089591
:1036E0000E945A1C08F481E008950E94891B0C94E2
:1036F000951C0E948E1C58F00E94871C40F029F4F3
:103700005F3F29F00C947E1C51110C94C91C0C9441
:10371000841C0E94A61C68F39923B1F3552391F3EE
:10372000951B550BBB27AA2762177307840738F030
:103730009F5F5F4F220F331F441FAA1FA9F335D08D
:103740000E2E3AF0E0E832D091505040E695001C41
:10375000CAF72BD0FE2F29D0660F771F881FBB1FFB
:10376000261737074807AB07B0E809F0BB0B802DD9
:10377000BF01FF2793585F4F3AF09E3F510578F005
:103780000C947E1C0C94C91C5F3FE4F3983ED4F368
:10379000869577956795B795F7959F5FC9F7880FD9
:1037A000911D9695879597F90895E1E0660F771F2B
:1037B000881FBB1F621773078407BA0720F0621BBC
:1037C000730B840BBA0BEE1F88F7E09508950E94E7
:1037D000EE1B6894B1110C94C91C08950E94AE1C94
:1037E00088F09F5798F0B92F9927B751B0F0E1F0C2
:1037F000660F771F881F991F1AF0BA95C9F714C072
:10380000B13091F00E94C81CB1E008950C94C81C1E
:10381000672F782F8827B85F39F0B93FCCF38695AA
:1038200077956795B395D9F73EF490958095709507
:1038300061957F4F8F4F9F4F0895E89409C097FB84
:103840003EF490958095709561957F4F8F4F9F4F77
:103850009923A9F0F92F96E9BB279395F6958795BB
:1038600077956795B795F111F8CFFAF4BB0F11F47E
:1038700060FF1BC06F5F7F4F8F4F9F4F16C0882325
:1038800011F096E911C0772321F09EE8872F762F5B
:1038900005C0662371F096E8862F70E060E02AF09C
:1038A0009A95660F771F881FDAF7880F9695879588
:1038B00097F90895990F0008550FAA0BE0E8FEEF5D
:1038C00016161706E807F907C0F012161306E407E4
:1038D000F50798F0621B730B840B950B39F40A26DD
:1038E00061F0232B242B252B21F408950A2609F4BB
:1038F000A140A6958FEF811D811D089597F99F67BF
:1039000080E870E060E008959FEF80EC0895002467
:103910000A941616170618060906089500240A9434
:1039200012161306140605060895092E0394000CBA
:1039300011F4882352F0BB0F40F4BF2B11F460FF49
:1039400004C06F5F7F4F8F4F9F4F089557FD905872
:10395000440F551F59F05F3F71F04795880F97FB53
:10396000991F61F09F3F79F087950895121613060D
:103970001406551FF2CF4695F1DF08C0161617063C
:103980001806991FF1CF8695710561050894089571
:10399000E894BB2766277727CB0197F908950E9403
:1039A0005A1C08F48FEF08950E94E71C0C94951C94
:1039B0000E94871C38F00E948E1C20F0952311F085
:1039C0000C947E1C0C94841C11240C94C91C0E9421
:1039D000A61C70F3959FC1F3950F50E0551F629F91
:1039E000F001729FBB27F00DB11D639FAA27F00D58
:1039F000B11DAA1F649F6627B00DA11D661F829F7F
:103A00002227B00DA11D621F739FB00DA11D621F63
:103A1000839FA00D611D221F749F3327A00D611D80
:103A2000231F849F600D211D822F762F6A2F112462
:103A30009F5750409AF0F1F088234AF0EE0FFF1F95
:103A4000BB1F661F771F881F91505040A9F79E3FEC
:103A5000510580F00C947E1C0C94C91C5F3FE4F36C
:103A6000983ED4F3869577956795B795F795E79542
:103A70009F5FC1F7FE2B880F911D9695879597F94B
:103A800008950E945A1C880B990B089597FB072EE6
:103A900016F4009407D077FD09D00E94821D07FC20
:103AA00005D03EF4909581959F4F0895709561954E
:103AB0007F4F0895A1E21A2EAA1BBB1BFD010DC06A
:103AC000AA1FBB1FEE1FFF1FA217B307E407F507CE
:103AD00020F0A21BB30BE40BF50B661F771F881FAA
:103AE000991F1A9469F760957095809590959B0140
:103AF000AC01BD01CF010895EE0FFF1F0590F491B9
:103B0000E02D0994AA1BBB1B51E107C0AA1FBB1FD4
:103B1000A617B70710F0A61BB70B881F991F5A9559
:103B2000A9F780959095BC01CD01089510E0C2E6FB
:103B3000D0E004C0FE010E947C1D2196C336D1074F
:103B4000C9F7F894FFCF720500F099FE04728C72E9
:103B500005710018010100004000140054007205B6
:103B60007111720571177B060001037B72057401E8
:103B700072057120720571D17205600300000000AA
:103B80003B019B00C8008801F900D700EB00000052
:103B9000000078034B033B059800440331032203E4
:103BA00000000000A6049B003B05980002051A05D2
:103BB0008E0400000000AC059B003B05BB026E615B
:103BC0006E00696E66006F766600436F6E656374A3
:103BD00020746F204563752E2E2E00537563636528
:103BE000732E2E2E2E2E2E2E2E2E2E004761676126
:103BF0006C2E2E2E2E2E2E2E2E2E2E2E00416E644C
:103C0000616C6173204C696D6100546563680049A3
:103C1000445F45434D005F00466C61736820436F0D
:103C2000756E74006E6F206465746563740053650F
:103C30006E736F72204D4150003E204F4B203C0070
:103C400053656E736F7220454F540053656E736FEA
:103C500072204543540053656E736F722054505365
:103C600000496E6A6563746F720053656E736F729C
:103C7000204F320049414356004543550053656E7D
:103C8000736F7220434B500053656E736F72204206
:103C90004153004B656D62616C69206B65204D6519
:103CA0006E750054656B616E20456E746572203EC2
:103CB0000052504D203D0052706D00424154203D55
:103CC00000564F4C54005450532056203D00566F20
:103CD0006C005450532025203D002020202025003A
:103CE0004543542056203D004543542043203D0089
:103CF000454F542056203D00454F542043203D0061
:103D00004941542056203D004941542043203D0064
:103D10004D4150203D004B506100434B50203D0031
:103D2000494E4A203D0020206D53006F3220564FEF
:103D30004C54203D006F322053544654203D0053D4
:103D40005045454420202020203D002020200053C5
:103D500054445220534D5047203D004F4E20004FB9
:103D60004646004655454C2050554D50203D004F8D
:103D700046462000494143562020202020203D0077
:103D8000544D424C205354415254203D00524C411A
:103D900059205354415254203D0023204C696861FE
:103DA00074204454430054656B616E20656E7465E5
:103DB00072203E00232048617075732044544300F4
:103DC00050726F7365732E2E2E2E2E2E2121210000
:103DD000486170757320445443202E005361626122
:103DE00072205961612E2E2E2121210048617075AB
:103DF0007320445443202E2E004861707573204474
:103E00005443202E2E2E0048617075732044544375
:103E1000202E2E2E2E0048617075732044544320AE
:103E20002E2E2E2E2E004861707573204454432090
:103E30002E2E2E2E2E2E0053656C657361692E2E4C
:103E40002E2E21212121006F66662F6F6E20736355
:103E5000616E65720064616E206B756E6369206BC4
:063E60006F6E74616B003F
:107E0000112484B714BE81FFF0D085E080938100F7
:107E100082E08093C00088E18093C10086E0809377
:107E2000C20080E18093C4008EE0C9D0259A86E02C
:107E300020E33CEF91E0309385002093840096BBD3
:107E4000B09BFECF1D9AA8958150A9F7CC24DD24C4
:107E500088248394B5E0AB2EA1E19A2EF3E0BF2EE7
:107E6000A2D0813461F49FD0082FAFD0023811F036
:107E7000013811F484E001C083E08DD089C08234E0
:107E800011F484E103C0853419F485E0A6D080C0E4
:107E9000853579F488D0E82EFF2485D0082F10E0AE
:107EA000102F00270E291F29000F111F8ED06801E7
:107EB0006FC0863521F484E090D080E0DECF843638
:107EC00009F040C070D06FD0082F6DD080E0C81688
:107ED00080E7D80618F4F601B7BEE895C0E0D1E017
:107EE00062D089930C17E1F7F0E0CF16F0E7DF06D8
:107EF00018F0F601B7BEE89568D007B600FCFDCFD4
:107F0000A601A0E0B1E02C9130E011968C91119780
:107F100090E0982F8827822B932B1296FA010C0160
:107F200087BEE89511244E5F5F4FF1E0A038BF0790
:107F300051F7F601A7BEE89507B600FCFDCF97BE46
:107F4000E89526C08437B1F42ED02DD0F82E2BD052
:107F50003CD0F601EF2C8F010F5F1F4F84911BD097
:107F6000EA94F801C1F70894C11CD11CFA94CF0C13
:107F7000D11C0EC0853739F428D08EE10CD085E9AC
:107F80000AD08FE07ACF813511F488E018D01DD067
:107F900080E101D065CF982F8091C00085FFFCCF94
:107FA0009093C60008958091C00087FFFCCF809118
:107FB000C00084FD01C0A8958091C6000895E0E648
:107FC000F0E098E1908380830895EDDF803219F02E
:107FD00088E0F5DFFFCF84E1DECF1F93182FE3DFCA
:107FE0001150E9F7F2DF1F91089580E0E8DFEE27F6
:047FF000FF270994CA
:027FFE00040479
:00000001FF
