:020000040000FA
:100000000C9463000C948B000C948B000C94DE1207
:100010000C94DE120C94DE120C948B000C948B006A
:100020000C948B000C948B000C948B000C948B0024
:100030000C948B000C948B000C948B000C948B0014
:100040000C9475110C948B000C9443110C941D119D
:100050000C948B000C948B000C948B000C948B00F4
:100060000C94BF110C948B000000000024002700AA
:100070002A0000000008000201000003040700003D
:1000800000000000000000000000230026002900FE
:1000900000000000250028002B00040404040404D0
:1000A0000404020202020202030303030303010227
:1000B00004081020408001020408102001020408F6
:1000C00010205613C91D11241FBECFEFD8E0DEBF8C
:1000D000CDBF14E0A0E0B1E0EAE0F1E402C0059099
:1000E0000D92AC3EB107D9F727E0ACEEB4E001C009
:1000F0001D92A030B207E1F710E0C2E6D0E004C0E4
:100100002197FE010E945E20C136D107C9F70E94E7
:1001100028140C9478200C940000FC019C012C5FA6
:100120003F4F80E09191891BE217F307D9F70895BB
:10013000089508950895AF92BF92CF92DF92EF9203
:10014000FF920F931F93CF93DF936C017B018B0181
:10015000040F151FEB015E01AE18BF08C017D107D1
:1001600059F06991D601ED91FC910190F081E02D5B
:10017000C6010995892B79F7C501DF91CF911F91B0
:100180000F91FF90EF90DF90CF90BF90AF900895C8
:10019000FC01538D448D252F30E0842F90E0821B8D
:1001A000930B541710F0CF96089501970895FC0112
:1001B000918D828D981761F0A28DAE0FBF2FB11D6A
:1001C0005D968C91928D9F5F9F73928F90E00895C2
:1001D0008FEF9FEF0895FC01918D828D981731F07C
:1001E000828DE80FF11D858D90E008958FEF9FEFD0
:1001F0000895FC01918D228D892F90E0805C9F4FA6
:10020000821B91098F73992708958CE296E00E94D2
:10021000F90021E0892B09F420E0822F089580E085
:1002200090E0892B29F00E94050181110C940000B7
:100230000895FC01A48DA80FB92FB11DA35ABF4F7B
:100240002C91848D90E001968F739927848FA689D5
:10025000B7892C93A089B1898C91837080648C9329
:10026000938D848D981306C00288F389E02D8081D8
:100270008F7D80830895EF92FF920F931F93CF930A
:10028000DF93EC0181E0888F9B8D8C8D98131AC0D1
:10029000E889F989808185FF15C09FB7F894EE89B8
:1002A000FF896083E889F989808183708064808315
:1002B0009FBF81E090E0DF91CF911F910F91FF9060
:1002C000EF900895F62E0B8D10E00F5F1F4F0F7308
:1002D0001127E02E8C8D8E110CC00FB607FCFACFC3
:1002E000E889F989808185FFF5CFCE010E94190147
:1002F000F1CFEB8DEC0FFD2FF11DE35AFF4FF08294
:100300009FB7F8940B8FEA89FB8980818062CFCFF9
:10031000CF93DF93EC01888D8823B9F0AA89BB893C
:10032000E889F9898C9185FD03C0808186FD0DC027
:100330000FB607FCF7CF8C9185FFF2CF808185FF48
:10034000EDCFCE010E941901E9CFDF91CF91089541
:10035000833081F028F4813099F08230A9F008953B
:100360008730A9F08830C9F08430B1F480918000E2
:100370008F7D03C0809180008F77809380000895E7
:1003800084B58F7784BD089584B58F7DFBCF809130
:10039000B0008F778093B00008958091B0008F7D7A
:1003A000F9CFCF93DF93282F30E0F901EE58FF4FBC
:1003B0008491F901E255FF4FD491F901E656FF4FC0
:1003C000C491CC23A1F081110E94A801EC2FF0E090
:1003D000EE0FFF1FEA57FF4FA591B491EC91ED236B
:1003E00081E090E009F480E0DF91CF91089580E012
:1003F00090E0FACF1F93CF93DF93282F30E0F901DD
:10040000EE58FF4F8491F901E255FF4FD491F90165
:10041000E656FF4FC491CC23A9F0162F81110E94FC
:10042000A801EC2FF0E0EE0FFF1FE057FF4FA59162
:10043000B4918FB7F894EC91111108C0D095DE23D8
:10044000DC938FBFDF91CF911F910895DE2BF8CF02
:10045000CF93DF9390E0FC01E255FF4F2491865645
:100460009F4FFC0184918823C9F090E0880F991F69
:10047000FC01E859FF4FA591B491FC01E057FF4FF3
:10048000C591D49161110DC09FB7F8948C912095BE
:1004900082238C938881282328839FBFDF91CF916B
:1004A0000895623051F49FB7F8943C91822F809563
:1004B00083238C93E8812E2BEFCF8FB7F894EC91A8
:1004C0002E2B2C938FBFEACF3FB7F894809117065D
:1004D00090911806A0911906B0911A0626B5A89B0E
:1004E00005C02F3F19F00196A11DB11D3FBFBA2FC6
:1004F000A92F982F8827BC01CD01620F711D811D86
:10050000911D42E0660F771F881F991F4A95D1F70A
:1005100008958F929F92AF92BF92CF92DF92EF9207
:10052000FF924B015C010E9464026B017C010E94FE
:1005300064026C197D098E099F09683E734081052C
:100540009105A8F321E0821A9108A108B10888EE6C
:10055000C80E83E0D81EE11CF11C81149104A10493
:10056000B10429F7FF90EF90DF90CF90BF90AF904C
:100570009F908F9008952FB7F89460911306709113
:10058000140680911506909116062FBF08950895C0
:100590002091A105260F3327331F21323105ECF4BA
:1005A0002091EA05FC0190E080E0243069F082E0CF
:1005B0000895A091A1052191AC014F575A4FA40F66
:1005C000B52FB11D2C930196861798F38091A10544
:1005D000680F6093A10580E0089581E0089510926E
:1005E000EA0581E08093E9051092C40561E082E1AB
:1005F0000E94FA0161E083E10E94FA01E9EBF0E078
:1006000080818E7F808380818D7F808388E480934A
:10061000B80085E48093BC000895CF93DF9391E008
:10062000909380058823B9F0C091B800D091BA00AA
:100630008091BC008A7B8093BC0060E082E10E94D4
:10064000FA0160E083E10E94FA010E94EF02D09378
:10065000BA00C093B800DF91CF910895E0912206CF
:1006600080912106E81730F4F0E0E05AFA4F8081DB
:1006700090E008958FEF9FEF08959091220680916A
:1006800021062FEF3FEF981748F4E92FF0E0E05AEA
:10069000FA4F208130E09F5F90932206C9010895B0
:1006A0008091210690912206891B990B0895CF9283
:1006B000DF92EF92FF920F931F93CF93DF937C0112
:1006C000CB018A012091F005222389F0EB016B0117
:1006D000C40ED51ECC15DD0569F06991D701ED91E9
:1006E000FC910190F081E02DC7010995F3CF642FB3
:1006F0000E94C802C801DF91CF911F910F91FF9016
:10070000EF90DF90CF900895CF93DF931F92CDB7F6
:10071000DEB769832091F0052223F9F020911F06AE
:10072000203258F021E030E0FC013383228390E056
:1007300080E00F90DF91CF91089580912006E82FFF
:10074000F0E0EF50FA4F998190838F5F80932006FD
:1007500080931F0681E090E0ECCF61E0CE0101962E
:100760000E94C802F7CFCF92DF92EF92FF920F93D1
:100770001F93CF93DF93FC01C48121E02093F00508
:10078000C09311061092200610921F068385682BD5
:1007900089EC96E00E948403D0911F06D13208F0C4
:1007A00092C00E9464026B017C018091EA05811174
:1007B00065C082E08093EA0581E08093E9058FEFD0
:1007C0008093E8051092E705D093E605A1EFB5E028
:1007D000E6ECF5E080E0D81385C01092C505809165
:1007E000C505CC0FC82BC093C5058091C4058130C9
:1007F00009F07CC01092C4050E9464026B017C0168
:100800008091C5058093BB008091EC059091ED052A
:10081000A091EE05B091EF05892B8A2B8B2B99F0D7
:100820000E9464020091EC051091ED052091EE0507
:100830003091EF056C197D098E099F09061717077E
:1008400028073907E0F18091BC0083FDD9CF85EC02
:100850008093BC000E9464026B017C018091EA05D8
:10086000823009F445C08091E8058F3F61F18091A5
:10087000E805803241F18091E80525C08091EC05C2
:100880009091ED05A091EE05B091EF05892B8A2B93
:100890008B2B09F48ACF0E9464020091EC05109121
:1008A000ED052091EE053091EF056C197D098E095B
:1008B0009F09061717072807390708F076CF809198
:1008C000EB050E940D031092200610921F06109255
:1008D000F005DF91CF911F910F91FF90EF90DF9086
:1008E000CF9008959D9191938F5F75CF85EEB0CF96
:1008F0008091EC059091ED05A091EE05B091EF058A
:10090000892B8A2B8B2B09F4A9CF0E9464020091BA
:10091000EC051091ED052091EE053091EF056C1975
:100920007D098E099F09061717072807390708F060
:1009300095CFC5CF20912506309126062817390777
:1009400071F49091230680912406981741F0E0916C
:100950002306F0E0E05EFA4F808190E008958FEF8B
:100960009FEF0895EF92FF920F931F93CF93DF9322
:10097000DC015C96ED90FC905D97E114F10479F454
:1009800081E090E013969C938E93129790E080E024
:10099000DF91CF911F910F91FF90EF9008955196A5
:1009A000ED91FC91529750968C915097982F90957D
:1009B0000FB75E962C915E97122F127021FD6095F5
:1009C000F8942081112319F1282B2083E701219726
:1009D000F1F728E0462F50E0308160FF1AC0382B35
:1009E0003083E7012197F1F7BA017595679521509A
:1009F00089F7112381F08081892380830FBF5C9662
:100A00008D919C910197F1F781E090E0C1CF29236E
:100A1000DCCF3923E5CF9081892BEFCF20912506BC
:100A2000309126062817390771F480912406209109
:100A3000230690E0805C9F4F821B910960E470E088
:100A40000E942820089590E080E0089520912506D6
:100A50003091260628173907B9F490912306809122
:100A60002406981789F0E0912306F0E0E05EFA4F43
:100A700080812091230630E02F5F3F4F2F73332773
:100A80002093230690E008958FEF9FEF089590E064
:100A900080E00895DF92EF92FF920F931F93CF9320
:100AA000DF93CDB7DEB7C259D1090FB6F894DEBFD8
:100AB0000FBECDBF80910C0190910D01A0910E0150
:100AC000B0910F01C557DF4F88839983AA83BB83F9
:100AD000CB58D040CE0185579F4F0E948D008E018C
:100AE0000F571F4F92E7D92EF801D08225E0E22E52
:100AF000E18231E7F32EF28290E29383848345E032
:100B000050E0B80185ED96E00E949B0062E370E042
:100B100080E090E00E948902809110019091110183
:100B2000A0911201B0911301C157DF4F88839983BF
:100B3000AA83BB83CF58D040CE0181579F4F0E94DC
:100B40008D00CA57DF4FD882C658D040C957DF4FF3
:100B5000E882C758D040C857DF4FF882C858D04005
:100B600091EDC757DF4F9883C958D040C657DF4F24
:100B70008883CA58D04045E050E0BE016A577F4F95
:100B800085ED96E00E949B0062E370E080E090E0DB
:100B90000E948902CE0101967C0185ED96E00E94BB
:100BA0000E05181619065CF40E151F0541F085EDAB
:100BB00096E00E942605F70181937F01EECF6985BB
:100BC00070E090E080E00E94FF1E20E030E040EA0C
:100BD00050E40E94B61F20E030E040E85BE30E9452
:100BE000B61F6093F4047093F5048093F604909319
:100BF000F7046A8570E0660F672F661F770B072E74
:100C0000000C880B990B0E94011F6093F0047093F5
:100C1000F1048093F2049093F30480912B068111E8
:100C200015C08A8D8093EF048F898093EE04CE5691
:100C3000DF4F0FB6F894DEBF0FBECDBFDF91CF916F
:100C40001F910F91FF90EF90DF9008959FEF980F05
:100C5000923028F4898D8093EF048C89E6CF83301D
:100C600031F78A8D8093EF048D89DFCF0F931F9327
:100C7000CF938C01C62F0E94B3036C2F6460C80110
:100C80000E94B3036C2F6B7FC8010E94B30383ECF7
:100C900090E00197F1F7CF911F910F9108950F9375
:100CA0001F93CF93DF938C01D62FC42F607F642BCB
:100CB0000E94360680E1D89FB00111246C2BC80138
:100CC000DF91CF911F910F910C943606CF93DF9354
:100CD000CDB7DEB728970FB6F894DEBF0FBECDBFF5
:100CE00098E0E4E1F1E0DE01119601900D929A9511
:100CF000E1F79091FC06961708F46FEF262F30E08D
:100D0000220F331F41E050E04C0F5D1F240F351FB1
:100D1000F9016081680F606840E084EF96E02896F2
:100D20000FB6F894DEBF0FBECDBFDF91CF910C940C
:100D30004F0640E061E084EF96E00E944F068BE3AF
:100D40009FE10197F1F7089541E00E944F0681E08D
:100D500090E0089541E0682F84EF96E00E944F06EE
:100D600081E090E00895FB0101900020E9F73197C0
:100D7000AF01461B570BDC01ED91FC910280F38122
:100D8000E02D09948F929F92AF92BF92EF92FF92C3
:100D90000F931F93CF93DF93CDB7DEB7A1970FB615
:100DA000F894DEBF0FBECDBF7C01FA01CB0119A2C2
:100DB000223008F42AE08E010F5D1F4F822E912C05
:100DC000B12CA12CBF01A50194010E943C20F90186
:100DD000CA016A300CF5605DD8016E938D01232B3A
:100DE000242B252B79F790E080E0109721F0BD01AE
:100DF000C7010E94B306A1960FB6F894DEBF0FBEDE
:100E0000CDBFDF91CF911F910F91FF90EF90BF90D9
:100E1000AF909F908F900895695CDECFCF92DF9264
:100E2000EF92FF92CF93DF936C01990FEE08FF08CA
:100E30006A307105E1F42AE0F7FE1AC08DE20E94E3
:100E4000AA06EC0144275527BA014C195D096E0921
:100E50007F092AE084EF96E00E94C2068C0F9D1F56
:100E6000DF91CF91FF90EF90DF90CF900895262FE4
:100E7000B701A60184EF96E0DF91CF91FF90EF904C
:100E8000DF90CF900C94C2064F925F926F927F9248
:100E90008F929F92AF92BF92CF92DF92EF92FF928A
:100EA000CF93DF936B017C01942EAC019B010E94D8
:100EB00023206EE671E0811126C026013701E894F7
:100EC00077F82FEF3FEF4FE75FE7C301B2010E94D2
:100ED000232081110CC02FEF3FEF4FE75FE7C301E5
:100EE000B2010E94521E62E771E0181664F02FEF03
:100EF0003FEF4FE75FE4C701B6010E94B11F18162C
:100F0000A4F466E771E084EF96E0DF91CF91FF9063
:100F1000EF90DF90CF90BF90AF909F908F907F9099
:100F20006F905F904F900C94B3062FEF3FEF4FE719
:100F30005FECC701B6010E94521E87FDE2CF20E0A0
:100F400030E0A901C701B6010E94521EB12CA12CAC
:100F500087FF08C08DE20E94AA065C01F7FAF094B0
:100F6000F7F8F094C92D60E070E080E09FE3D0E0F6
:100F700020E030E040E251E40E94571E21E02D0FB6
:100F8000D1E02915A8F3A70196010E94E61D2B01C7
:100F90003C010E94D01E6B017C010E94FF1E9B0140
:100FA000AC01C301B2010E94E51D2B013C012AE006
:100FB000B701A60184EF96E00E94C2067C018EE292
:100FC0000E94AA06E80EF91EEA0CFB1CC15028F18B
:100FD00020E030E040E251E4C301B2010E94B61FBC
:100FE0002B013C010E94D01E4B01B12CA12C2AE008
:100FF000B501A40184EF96E00E94C206E80EF91E36
:10100000C501B4010E94FF1E9B01AC01C301B201E6
:101010000E94E51D2B013C01D9CFC701DF91CF9183
:10102000FF90EF90DF90CF90BF90AF909F908F9008
:101030007F906F905F904F900895CF93DF93BC01A6
:101040008CE296E00E94B306EC016AE771E08CE264
:1010500096E00E94B3068C0F9D1FDF91CF910895FB
:101060000C94B3068F929F92AF92BF92CF92DF9271
:10107000EF92FF920F931F93CF93DF93CDB7DEB71D
:10108000C958D1090FB6F894DEBF0FBECDBF0E947C
:10109000BB024B015C0180911C0190911D01A0914C
:1010A0001E01B0911F01CA57DF4F88839983AA831D
:1010B000BB83C658D040CE018A579F4F0E948D00F7
:1010C00092E7CF57DF4F9883C158D04095E0CE5775
:1010D000DF4F9883C258D04091E7CD57DF4F9883B8
:1010E000C358D04091E1CC57DF4F9883C458D040CB
:1010F000CB57DF4F8883C558D04045E050E0BE0154
:101100006F577F4F85ED96E00E949B0062E370E091
:1011100080E090E00E9489029E012F5F3F4F6901AD
:10112000790110E000E085ED96E00E940E051816AA
:1011300019066CF40038110551F085ED96E00E9417
:1011400026050F5F1F4FF70181937F01ECCF809140
:10115000270690912806A0912906B0912A06A5019C
:101160009401281B390B4A0B5B0BDA01C901853F3F
:101170009140A105B10530F46DE771E08CE296E095
:101180000E9430088092270690922806A092290695
:10119000B0922A06F12CE12C580141E0A41AB108C2
:1011A0000E151F05C1F0F60141916F0150E070E08E
:1011B00060E02AE08CE296E00E94C206AE14BF0412
:1011C00031F063E871E08CE296E00E943008FFEFB6
:1011D000EF1AFF0AE5CF6AE771E08CE296E00E9421
:1011E000B3068A8590E0982F8827990F2B85820F68
:1011F000911D90931F0580931E056C8570E090E013
:1012000080E00E94FF1E20E030E040EA50E40E94AF
:10121000B61F20E030E040E85BE30E94B61F609319
:1012200016057093170580931805909319058D8501
:101230002AE0829FC001112434E0959587953A9564
:10124000E1F790931505809314056E8570E090E0AA
:1012500080E00E94FF1E20E030E040EA50E40E945F
:10126000B61F20E030E040E85BE30E94B61F6093C9
:101270000A0570930B0580930C0590930D058F85DF
:101280008852990B9093090580930805688970E04E
:1012900090E080E00E94FF1E20E030E040EA50E451
:1012A0000E94B61F20E030E040E85BE30E94B61FDA
:1012B00060931005709311058093120590931305A8
:1012C00089898852990B90930F0580930E056A893E
:1012D00070E090E080E00E94FF1E20E030E040EAF5
:1012E00050E40E94B61F20E030E040E85BE30E943B
:1012F000B61F0E94C91E70930705609306058B896F
:101300008852990B90930505809304056C8970E0D1
:1013100090E080E00E94FF1E20E030E040EA50E4D0
:101320000E94B61F20E030E040E85BE30E94B61F59
:101330000E94C91E70930305609302058D8990E099
:1013400090930105809300058E8990E06AE070E03B
:101350000E942820072E000C880B990B0E94011F69
:1013600060931A0570931B0580931C0590931D05CF
:101370006F8970E090E080E00E94011F20E030EC77
:1013800044E853E40E94B61F2CEE31E143E852E4F6
:101390000E94571E6093FC047093FD048093FE042A
:1013A0009093FF04888D8054990B20E5289FB0010D
:1013B000299F700D112477FF02C061507F4F672F66
:1013C000770F770B072E000C880B990B0E94011FDB
:1013D0006093F8047093F9048093FA049093FB04EB
:1013E000898D90E09093ED048093EC04C757DF4F14
:1013F0000FB6F894DEBF0FBECDBFDF91CF911F9126
:101400000F91FF90EF90DF90CF90BF90AF909F90A3
:101410008F9008958F929F92AF92BF92CF92DF925A
:10142000EF92FF920F931F93CF93DF93CDB7DEB769
:10143000C958D1090FB6F894DEBF0FBECDBF0E94C8
:10144000BB024B015C018091200190912101A09190
:101450002201B0912301CA57DF4F88839983AA8361
:10146000BB83C658D040CE018A579F4F0E948D0043
:1014700092E7CF57DF4F9883C158D04095E0CE57C1
:10148000DF4F9883C258D04091E7CD57DF4F988304
:10149000C358D04097E1CC57DF4F9883C458D04011
:1014A000CB57DF4F8883C558D04045E050E0BE01A0
:1014B0006F577F4F85ED96E00E949B0062E370E0DE
:1014C00080E090E00E9489029E012F5F3F4F6901FA
:1014D000790110E000E085ED96E00E940E051816F7
:1014E00019066CF40038110551F085ED96E00E9464
:1014F00026050F5F1F4FF70181937F01ECCF80918D
:10150000270690912806A0912906B0912A06A501E8
:101510009401281B390B4A0B5B0BDA01C901853F8B
:101520009140A105B10530F46DE771E08CE296E0E1
:101530000E9430088092270690922806A0922906E1
:10154000B0922A06F12CE12C580141E0A41AB1080E
:101550000E151F05C1F0F60141916F0150E070E0DA
:1015600060E02AE08CE296E00E94C206AE14BF045E
:1015700031F063E871E08CE296E00E943008FFEF02
:10158000EF1AFF0AE5CF6AE771E08CE296E00E946D
:10159000B3068A8590E0982F88272B85820F911DAE
:1015A00090931F0580931E056C8570E090E080E0AD
:1015B0000E94FF1E20E030E040EA50E40E94B61F87
:1015C00020E030E040E85BE30E94B61F6093160520
:1015D0007093170580931805909319058D852AE05F
:1015E000829FC001112434E0959587953A95E1F7E3
:1015F00090931505809314056E8570E090E080E06F
:101600000E94FF1E20E030E040EA50E40E94B61F36
:1016100020E030E040E85BE30E94B61F60930A05DB
:1016200070930B0580930C0590930D052F85285220
:10163000330B3093090520930805609310057093D0
:101640001105809312059093130530930F05209395
:101650000E05688970E090E080E00E94FF1E20E0A7
:1016600030E040EA50E40E94B61F20E030E040E85D
:101670005BE30E94B61F0E94C91E7093070560932A
:10168000060589898852990B909305058093040576
:101690006A8970E090E080E00E94FF1E20E030E068
:1016A00040EA50E40E94B61F20E030E040E85BE3EF
:1016B0000E94B61F0E94C91E709303056093020525
:1016C0008B8990E090930105809300058C8990E0D0
:1016D0006AE070E00E942820072E000C880B990B0E
:1016E0000E94011F60931A0570931B0580931C05CF
:1016F00090931D056D8970E090E080E00E94011FCD
:1017000020E030EC44E853E40E94B61F2CEE31E1B7
:1017100043E852E40E94571E6093FC047093FD045A
:101720008093FE049093FF048E898054990B20E5EA
:10173000289FB001299F700D112477FF02C06150CE
:101740007F4F672F770F770B072E000C880B990BB5
:101750000E94011F6093F8047093F9048093FA04C7
:101760009093FB048F8990E09093ED048093EC04B8
:10177000C757DF4F0FB6F894DEBF0FBECDBFDF9166
:10178000CF911F910F91FF90EF90DF90CF90BF907E
:10179000AF909F908F9008958F929F92AF92BF923B
:1017A000CF92DF92EF92FF920F931F93CF93DF932D
:1017B000CDB7DEB7C958D1090FB6F894DEBF0FBE5A
:1017C000CDBF0E94BB024B015C0180912001909132
:1017D0002101A0912201B0912301CA57DF4F8883D4
:1017E0009983AA83BB83C658D040CE018A579F4FA6
:1017F0000E948D0092E7CF57DF4F9883C158D040A9
:1018000095E0CE57DF4F9883C258D04091E7CD572F
:10181000DF4F9883C358D04097E1CC57DF4F988370
:10182000C458D040CB57DF4F8883C558D04045E0DF
:1018300050E0BE016F577F4F85ED96E00E949B0000
:1018400062E370E080E090E00E9489029E012F5FD9
:101850003F4F6901790110E000E085ED96E00E94BC
:101860000E05181619066CF40038110551F085EDB7
:1018700096E00E9426050F5F1F4FF70181937F01BD
:10188000ECCF8091270690912806A0912906B0916F
:101890002A06A5019401281B390B4A0B5B0BDA01C0
:1018A000C901853F9140A105B10530F465E871E0BB
:1018B0008CE296E00E9430088092270690922806DB
:1018C000A0922906B0922A06F12CE12C580141E0A1
:1018D000A41AB1080E151F05C1F0F60141916F0160
:1018E00050E070E060E02AE08CE296E00E94C206E0
:1018F000AE14BF0431F063E871E08CE296E00E9420
:101900003008FFEFEF1AFF0AE5CF6AE771E08CE2DB
:1019100096E00E94B306898590E0982F88272A8553
:10192000820F911D90931F0580931E056B8570E0BB
:1019300090E080E00E94FF1E20E030E040EA50E4AA
:101940000E94B61F20E030E040E85BE30E94B61F33
:1019500060931605709317058093180590931905E9
:101960008C852AE0829FC001112434E095958795EB
:101970003A95E1F790931505809314056D8570E015
:1019800090E080E00E94FF1E20E030E040EA50E45A
:101990000E94B61F20E030E040E85BE30E94B61FE3
:1019A00060930A0570930B0580930C0590930D05C9
:1019B0002E852852330B3093090520930805609338
:1019C00010057093110580931205909313053093C1
:1019D0000F0520930E056F8570E090E080E00E9477
:1019E000FF1E20E030E040EA50E40E94B61F20E0F5
:1019F00030E040E85BE30E94B61F0E94C91E70936E
:101A000007056093060588898852990B9093050510
:101A100080930405698970E090E080E00E94FF1ED9
:101A200020E030E040EA50E40E94B61F20E030E0C1
:101A300040E85BE30E94B61F0E94C91E7093030535
:101A4000609302058A8990E09093010580930005D8
:101A50008B8990E06AE070E00E942820072E000C3D
:101A6000880B990B0E94011F60931A0570931B0548
:101A700080931C0590931D056C8970E090E080E0D8
:101A80000E94011F20E030EC44E853E40E94B61F9E
:101A90002CEE31E143E852E40E94571E6093FC04AF
:101AA0007093FD048093FE049093FF048D8980540D
:101AB000990B20E5289FB001299F700D112477FF15
:101AC00002C061507F4F672F770F770B072E000CF6
:101AD000880B990B0E94011F6093F8047093F9041E
:101AE0008093FA049093FB048F8990E09093ED0427
:101AF0008093EC04C757DF4F0FB6F894DEBF0FBEDC
:101B0000CDBFDF91CF911F910F91FF90EF90DF90AC
:101B1000CF90BF90AF909F908F9008950E94BB028E
:101B200080912B06811149C00E94320886E00E94F4
:101B3000D101892B91F480910B018F5F80930B0170
:101B40000E94990666E970E080E090E00E948902B8
:101B500086E00E94D101892BD9F385E00E94D10152
:101B6000892B91F480910B01815080930B010E948D
:101B7000990666E970E080E090E00E94890285E0C5
:101B80000E94D101892BD9F3E0910B01EF3008F0CD
:101B90001BC3F0E0E253F24F0C945E20EA0DEE0D11
:101BA000320E7F0EC70E000F510FAA0FF60F341022
:101BB0006D107E10BD10BF10BD109FEF980F9230BA
:101BC00018F40E94CC0BB2CF833009F0AFCF0E9443
:101BD0000A0AACCF8BE080930B01089560E080E0AF
:101BE0000E94660663E971E084EF96E00E94300887
:101BF00060E08CE00E94660669E971E084EF96E09F
:101C00000E94300860E086E00E9466066AE070E0AC
:101C100080911E0590911F050E940E0761E080E0F3
:101C20000E9466066DE971E084EF96E00E9430083C
:101C300061E086E00E94660660911A0570911B05BE
:101C400080911C0590911D0542E050E00E944407E0
:101C500061E08CE00E94660663EA71E084EF96E042
:101C60000C94300860E080E00E94660668EA71E04B
:101C700084EF96E00E94300860E088E00E946606EB
:101C800060911605709117058091180590911905BE
:101C900042E050E00E94440760E08DE00E9466064A
:101CA00060EB71E084EF96E00E94300861E080E034
:101CB0000E94660664EB71E084EF96E00E943008B3
:101CC00061E088E00E9466066AE070E08091140599
:101CD000909115050E940E078091140590911505AD
:101CE00061E00A9734F489E00E9466066CEB71E0CB
:101CF000B5CF8DE00E94660660EC71E0AFCF60E08A
:101D000080E00E94660662EC71E084EF96E00E943B
:101D1000300860E088E00E946606609110057091CE
:101D20001105809112059091130542E050E00E9448
:101D3000440760E08DE00E94660660EB71E084EF8E
:101D400096E00E94300861E080E00E9466066AEC3E
:101D500071E084EF96E00E94300861E088E00E9424
:101D600066066AE070E080910E0590910F050E9472
:101D70000E0761E08DE00E9466068FED0E94AA06C4
:101D800061E08EE00E94660661E574E067CF60E086
:101D900080E00E94660662ED71E084EF96E00E94AA
:101DA000300860E088E00E94660660910A05709144
:101DB0000B0580910C0590910D0542E050E00E94CA
:101DC000440760E08DE00E94660660EB71E084EFFE
:101DD00096E00E94300861E080E00E9466066AEDAD
:101DE00071E084EF96E00E94300861E088E00E9494
:101DF00066066AE070E08091080590910905B7CF0A
:101E000060E080E00E94660662EE71E084EF96E09A
:101E10000E94300880912B0660E081112EC088E07E
:101E20000E94660662E070E08091060590910705C9
:101E30000E940E0760E08DE00E94660660EB71E094
:101E400084EF96E00E94300861E080E00E94660620
:101E50006EEE71E084EF96E00E94300880912B06D0
:101E600061E0811114C088E00E9466066AE070E0BB
:101E700080910405909105057ACF88E00E9466065E
:101E80006AEE71E084EF96E00E943008D3CF88E0DC
:101E90000E9466066AEE71E084EF96E00E943008C8
:101EA00068CF60E080E00E94660666EF71E084EF34
:101EB00096E00E94300880912B0660E0811136C0C8
:101EC00086E00E94660662E070E0809102059091D3
:101ED00003050E940E0760E08DE00E94660660EB3D
:101EE00071E084EF96E00E94300861E080E00E949B
:101EF000660666EF71E084EF96E00E9430088091FC
:101F00002B0661E081111CC086E00E9466066AE033
:101F100070E080910005909101050E940E0761E03C
:101F20008DE00E9466066CEF71E098CE86E00E941C
:101F300066066AEE71E084EF96E00E943008CBCF2F
:101F400086E00E9466066AEE71E084EF96E00E94E9
:101F50003008E5CF60E080E00E94660660E072E055
:101F600084EF96E00E94300860E087E00E946606F9
:101F70006091FC047091FD048091FE049091FF0437
:101F800041E050E00E94440760E08BE00E9466065A
:101F900063E674E084EF96E00E94300860E08DE034
:101FA0000E9466068FED0E94AA0661E080E00E9412
:101FB000660666E072E084EF96E00E94300861E019
:101FC00087E00E9466066091F8047091F9048091A0
:101FD000FA049091FB0441E050E00E94440761E064
:101FE0008BE00E9466066CE072E038CE60E080E034
:101FF0000E94660661E172E084EF96E00E9430087C
:1020000060E08AE00E9466066091F4047091F50435
:102010008091F6049091F70442E050E00E9444075A
:1020200060E08FE00E9466066CE074E084EF96E06A
:102030000E94300861E080E00E9466066BE172E079
:1020400084EF96E00E94300861E08AE00E94660614
:102050006091F0047091F1048091F2049091F30486
:1020600042E050E00C94440760E080E00E94660685
:1020700065E272E084EF96E00E9430088091EF0400
:1020800060E08A30F1F48BE00E94660660E372E063
:1020900084EF96E00E94300861E080E00E946606CE
:1020A00065E372E084EF96E00E9430088091EE04D0
:1020B00061E0823061F48BE00E94660660E472E0C9
:1020C000CDCD8BE00E9466066AEE71E0E1CF8BE039
:1020D0000E94660664E472E0C1CD60E080E00E9488
:1020E000660668E472E084EF96E00E94300861E0E2
:1020F00080E00E9466066EE472E0B0CD60E080E0B1
:102100000E94660664E572E084EF96E00E94300863
:1021100080912B0660E0811126C088E00E9466064F
:102120006AE070E08091EC049091ED040E940E074B
:1021300060E08CE00E9466066CE572E084EF96E059
:102140000E94300861E080E00E94660661E672E06D
:1021500084EF96E00E94300861E088E00E94660605
:102160006AEE71E07BCD88E00E9466066AEE71E05F
:1021700084EF96E00E943008DBCF81E02CCD809187
:102180002B06811107C060E083E00E94660669E6C5
:1021900072E064CD813031F460E00E94660662E74F
:1021A00072E05CCD823039F460E083E00E94660624
:1021B00060E872E053CD833039F460E080E00E9443
:1021C00066066AE872E04ACD089585ED8093BC000A
:1021D0008091EC059091ED05A091EE05B091EF0591
:1021E0000796A11DB11D23E0B695A79597958795F4
:1021F0002A95D1F72091BC0024FD03C01092EA0576
:1022000008954091EC055091ED056091EE057091B7
:10221000EF05452B462B472B69F30097A105B10528
:1022200041F025E32A95F1F700000197A109B109D2
:10223000E1CF8091EB050C940D031F920F920FB626
:102240000F9211242F933F934F935F936F937F933C
:102250008F939F93AF93BF93EF93FF938CE296E09E
:102260000E941901FF91EF91BF91AF919F918F91C2
:102270007F916F915F914F913F912F910F900FBE82
:102280000F901F9018951F920F920FB60F92112466
:102290002F938F939F93EF93FF93E0913C06F091E0
:1022A0003D068081E0914206F091430682FD1BC00D
:1022B0009081809145068F5F8F732091460682172B
:1022C00041F0E0914506F0E0E45DF94F958F809391
:1022D0004506FF91EF919F918F912F910F900FBE27
:1022E0000F901F9018958081F4CF1F920F920FB618
:1022F0000F9211242F933F938F939F93AF93BF938C
:102300008091130690911406A0911506B0911606BF
:102310003091120623E0230F2D3758F50196A11DA9
:10232000B11D209312068093130690931406A09378
:102330001506B09316068091170690911806A09185
:102340001906B0911A060196A11DB11D80931706BA
:1023500090931806A0931906B0931A06BF91AF91F7
:102360009F918F913F912F910F900FBE0F901F90D3
:10237000189526E8230F0296A11DB11DD2CF1F92FA
:102380000F920FB60F9211242F933F934F935F93A9
:102390006F937F938F939F93AF93BF93EF93FF932D
:1023A0008091B900887F803609F44AC0F0F5883200
:1023B00009F4A7C018F5803109F49BC0B8F488234C
:1023C00009F4F9C0883009F494C0FF91EF91BF91EE
:1023D000AF919F918F917F916F915F914F913F91BD
:1023E0002F910F900FBE0F901F901895883109F410
:1023F00088C0803251F78093E80514C0803409F416
:102400009DC040F48033B9F38833F9F68093E80532
:1024100085ECB0C0803509F485C0883509F496C0D4
:10242000883499F60E94E510D0CF883909F48CC021
:1024300038F5883729F050F4883611F0803729F6BE
:1024400083E08093EA051092C30557C0883809F4E9
:102450007BC0803919F0803809F0B7CF8091C3056F
:10246000803208F071C0E091C30581E08E0F809347
:10247000C3058091BB00F0E0ED55FA4F80833DC06D
:10248000803B39F0E0F4803A09F479C0883A09F0E9
:102490009CCF84E08093EA051092A2051092A105DA
:1024A000E0911D06F0911E0609958091A10581110C
:1024B0000FC081E08093A1051092810509C0803C86
:1024C00009F4A6CF883C09F4A3CF883B09F07DCF5F
:1024D000E091A20581E08E0F8093A205F0E0EF5716
:1024E000FA4F80818093BB009091A2058091A10555
:1024F00029C08091C5058093BB0085EC8093BC000A
:1025000064CF9091E7058091E605981758F5E09122
:10251000E70581E08E0F8093E705F0E0EA53FA4F7C
:102520008081E9CFE091E70581E08E0F8093E70598
:102530008091BB00F0E0EA53FA4F80839091E70569
:102540008091E6059817C8F285E8D8CFE091E705B5
:1025500081E08E0F8093E7058091BB00F0E0EA53A5
:10256000FA4F80838091E90581115CCF81E08093EF
:10257000C40584EA8093BC001092EA0526CF85EC5E
:102580008093BC001092EA058091C305803230F43C
:10259000E091C305F0E0ED55FA4F10826091C3055C
:1025A00070E0E0911B06F0911C0683EA95E0099526
:1025B0001092C3050ACF1092E80534CF1F920F92F4
:1025C0000FB60F9211242F933F934F935F936F9306
:1025D0007F938F939F93AF93BF93EF93FF93E0917C
:1025E0002506F0912606309749F0A685B7858585A2
:1025F000968D91FF14C09C918923A1F4FF91EF91D6
:10260000BF91AF919F918F917F916F915F914F910A
:102610003F912F910F900FBE0F901F9018959C9196
:10262000892361F7A389B4899C9185898095892341
:102630008C93868997890197F1F7608D718DA685B6
:10264000B785558538E020E0CB010197F1F7822F5F
:1026500090E095958795282F4C91452309F02068A7
:10266000315091F7868D81FD20958091240690E070
:1026700001968F73992730912306381799F0A0910E
:102680002406B0E0A05EBA4F2C9380932406828D7E
:10269000938D0197F1F7A389B4898C919589892B42
:1026A0008C93ACCF868D8160868FF1CF10922F06F0
:1026B00010922E0688EE93E0A0E0B0E08093300602
:1026C00090933106A0933206B093330620E331E0B5
:1026D00030932D0620932C0625EC30E030933906FC
:1026E0002093380624EC30E030933B0620933A06E2
:1026F00020EC30E030933D0620933C0621EC30E0A6
:1027000030933F0620933E0622EC30E030934106A2
:102710002093400626EC30E0309343062093420697
:1027200010924506109246061092470610924806EF
:102730001092CC061092CB068093CD069093CE06D5
:10274000A093CF06B093D00622E431E03093CA06BE
:102750002093C9061092F7061092F60626E631E09D
:102760003093F5062093F4062FE32093F80620E13A
:102770002093FD0622E02093FE061092FF061092A1
:10278000D8061092D7068093D9069093DA06A093C4
:10279000DB06B093DC0684E591E09093D606809347
:1027A000D5061092EC061092EB061092EE061092EF
:1027B000ED061092F0061092EF061092F2061092BB
:1027C000F1066091F3066E7F6D7F6093F306669568
:1027D000617081E068278AE00E94FA0161E08AE086
:1027E0000E942802E8EBF0E0E491E093E506E4EAD9
:1027F000F0E0E491F0E0EE0FFF1FE057FF4F85910E
:1028000094919093E7068093E60660E08BE00E9447
:1028100028028091F30681FD04C061E08BE00E94F4
:10282000FA018BE08093E106E9EBF0E0E491E093BC
:10283000E206E5EAF0E0E491F0E0EE0FFF1FEA5770
:10284000FF4F859194919093E4068093E306089559
:10285000CF93DF93CDB7DEB7C159D1090FB6F89446
:10286000DEBF0FBECDBF789484B5826084BD84B5D1
:10287000816084BD85B5826085BD85B5816085BD7B
:1028800080916E00816080936E0010928100809133
:1028900081008260809381008091810081608093BB
:1028A0008100809180008160809380008091B100E0
:1028B00084608093B1008091B00081608093B0000B
:1028C00080917A00846080937A0080917A0082609F
:1028D00080937A0080917A00816080937A00809161
:1028E0007A00806880937A001092C1000E94BB0237
:1028F00010922206109221061092200610921F06B6
:102900000E94EF0289E990E090931E0680931D06D5
:102910008AE990E090931C0680931B061092F906BA
:102920008091FE06823018F098E09093F90680932B
:10293000FC0662E370E080E090E00E948902609112
:10294000FF0684EF96E00E94B30368EE73E080E038
:1029500090E00E94890260E384EF96E00E943606D0
:102960000BE416E4C8010197F1F760E384EF96E009
:102970000E943606C8010197F1F760E384EF96E004
:102980000E94360683E592E00197F1F760E284EF5A
:1029900096E00E9436066091F906606240E084EF9E
:1029A00096E00E944F0684E08093FA0640E06CE0D7
:1029B00084EF96E00E944F060E94990612E0109361
:1029C000FB0640E066E084EF96E00E944F0640E0A0
:1029D00062E084EF96E00E944F068BE39FE101974F
:1029E000F1F788E08093FF0660E084EF96E00E94B4
:1029F000B303E0913C06F0913D061083E091380668
:102A0000F09139061082E0913A06F0913B0680E1A0
:102A1000808310924406E0914006F091410686E0E2
:102A20008083E0913E06F0913F0680818061808343
:102A3000E0913E06F0913F06808188608083E091BE
:102A40003E06F0913F06808180688083E0913E06DB
:102A5000F0913F0680818F7D808362E085E00E9457
:102A6000280262E086E00E94280262E087E00E947D
:102A7000280261E08DE00E9428020E94990660E031
:102A800082E00E94660669E972E084EF96E00E94A7
:102A9000300861E086E00E94660666EA72E084EF34
:102AA00096E00E94300868E873E180E090E00E94C0
:102AB00089020E94990661E080E00E9466066BEA46
:102AC00072E084EF96E00E94300868EE73E080E0E8
:102AD00090E00E94890261E080E00E9466066AEB55
:102AE00072E084EF96E00E94300868EE73E080E0C8
:102AF00090E00E94890261E080E00E9466066AEC34
:102B000072E084EF96E00E94300868EE73E080E0A7
:102B100090E00E9489020E94990661E08AE00E948A
:102B2000280260E08AE00E94FA0166E470E080E03A
:102B300090E00E94890261E08AE00E94FA0162E866
:102B400070E080E090E00E94890260E08AE00E94EC
:102B5000FA019BEE292E92E0392EC1010197F1F77F
:102B600061E08AE00E94FA0183EB9BE00197F1F7B4
:102B700060E08AE00E94FA0183E394E00197F1F7B4
:102B800061E08AE00E94FA012BE6C22EDD24D39494
:102B9000C6010197F1F760E08AE00E94FA0183E53F
:102BA00097E00197F1F761E08AE00E94FA01C6011F
:102BB0000197F1F760E08AE00E94FA01C6010197EF
:102BC000F1F761E08AE00E94FA0133E8832E3DE0EC
:102BD000932EC4010197F1F760E08AE00E94FA01A8
:102BE0000BE711E0C8010197F1F761E08AE00E946C
:102BF000FA0167E170E080E090E00E94890260E005
:102C00008AE00E94FA014BEFE42E42E0F42EC70165
:102C10000197F1F761E08AE00E94FA01C80101978B
:102C2000F1F760E08AE00E94FA01C7010197F1F72D
:102C300061E08AE00E94FA018BE794E00197F1F7E6
:102C400060E08AE00E94FA01C8010197F1F761E0B3
:102C50008AE00E94FA01C8010197F1F760E08AE07A
:102C60000E94FA01C8010197F1F761E08AE00E9431
:102C7000FA01C8010197F1F760E08AE00E94FA01C9
:102C8000C8010197F1F761E08AE00E94FA01C801EA
:102C90000197F1F760E08AE00E94FA015BE7A52E58
:102CA00057E0B52EC5010197F1F761E08AE00E9477
:102CB000FA01C8010197F1F760E08AE00E94FA0189
:102CC000C4010197F1F761E08AE00E94FA01C801AE
:102CD0000197F1F760E08AE00E94FA018FE797E040
:102CE0000197F1F761E08AE00E94FA01C5010197BE
:102CF000F1F760E08AE00E94FA01C8010197F1F75C
:102D000061E08AE00E94FA01C8010197F1F760E0F2
:102D10008AE00E94FA01C7010197F1F761E08AE0B9
:102D20000E94FA01C7010197F1F760E08AE00E9472
:102D3000FA01C7010197F1F761E08AE00E94FA0108
:102D40006AE070E080E090E00E94890260E08AE042
:102D50000E94FA01C8010197F1F761E08AE00E9440
:102D6000FA01C7010197F1F760E08AE00E94FA01D9
:102D7000C8010197F1F761E08AE00E94FA01662438
:102D80006A9465E0762EC3010197F1F760E08AE06E
:102D90000E94FA01C8010197F1F761E08AE00E9400
:102DA000FA01C8010197F1F760E08AE00E94FA0198
:102DB000C7010197F1F761E08AE00E94FA01C701BB
:102DC0000197F1F760E08AE00E94FA01C5010197DE
:102DD000F1F761E08AE00E94FA01C8010197F1F77A
:102DE00060E08AE00E94FA018BE79DE00197F1F72D
:102DF00061E08AE00E94FA01C8010197F1F760E002
:102E00008AE00E94FA01C8010197F1F761E08AE0C7
:102E10000E94FA01C8010197F1F760E08AE00E9480
:102E2000FA018BE79AE00197F1F761E08AE00E94EE
:102E3000FA01C8010197F1F760E08AE00E94FA0107
:102E4000C8010197F1F761E08AE00E94FA01C70129
:102E50000197F1F760E08AE00E94FA018BEF98E0B9
:102E60000197F1F761E08AE00E94FA01C801019739
:102E7000F1F760E08AE00E94FA01C8010197F1F7DA
:102E800061E08AE00E94FA01C7010197F1F760E072
:102E90008AE00E94FA01C8010197F1F761E08AE037
:102EA0000E94FA017BEF472E75E0572EC201019771
:102EB000F1F760E08AE00E94FA01C8010197F1F79A
:102EC00061E08AE00E94FA0161E272E080E090E055
:102ED0000E94890260E08AE00E94FA01C80101971D
:102EE000F1F761E08AE00E94FA01C7010197F1F76A
:102EF00060E08AE00E94FA01C8010197F1F761E001
:102F00008AE00E94FA01C3010197F1F760E08AE0CC
:102F10000E94FA01C8010197F1F761E08AE00E947E
:102F2000FA01C8010197F1F760E08AE00E94FA0116
:102F3000C7010197F1F761E08AE00E94FA01C70139
:102F40000197F1F760E08AE00E94FA01C50101975C
:102F5000F1F761E08AE00E94FA01C8010197F1F7F8
:102F600060E08AE00E94FA01C7010197F1F761E091
:102F70008AE00E94FA01C8010197F1F760E08AE057
:102F80000E94FA01AA24AA94E8E0BE2EC501019786
:102F9000F1F761E08AE00E94FA01C8010197F1F7B8
:102FA00060E08AE00E94FA01C8010197F1F761E050
:102FB0008AE00E94FA01C8010197F1F760E08AE017
:102FC0000E94FA018FE79AE00197F1F761E08AE049
:102FD0000E94FA01C8010197F1F760E08AE00E94BF
:102FE000FA01C8010197F1F761E08AE00E94FA0155
:102FF000C7010197F1F760E08AE00E94FA01C5017C
:103000000197F1F761E08AE00E94FA01C801019797
:10301000F1F760E08AE00E94FA01C8010197F1F738
:1030200061E08AE00E94FA01C8010197F1F760E0CF
:103030008AE00E94FA01C7010197F1F761E08AE096
:103040000E94FA01C2010197F1F760E08AE00E9454
:10305000FA01C8010197F1F761E08AE00E94FA01E4
:103060006EE070E080E090E00E94890260E08AE01B
:103070000E94FA0166E470E080E090E00E9489021C
:1030800061E08AE00E94FA0162E870E080E090E08E
:103090000E94890260E08AE00E94FA01C101019762
:1030A000F1F761E08AE00E94FA0183EB9BE001976F
:1030B000F1F760E08AE00E94FA0183E394E001976F
:1030C000F1F761E08AE00E94FA01C6010197F1F789
:1030D00060E08AE00E94FA0183E597E00197F1F74A
:1030E00061E08AE00E94FA01C6010197F1F760E011
:1030F0008AE00E94FA01C6010197F1F761E08AE0D7
:103100000E94FA01C4010197F1F760E08AE00E9491
:10311000FA01C8010197F1F761E08AE00E94FA0123
:1031200067E170E080E090E00E94890260E08AE060
:103130000E94FA01C6010197F1F761E08AE00E945E
:10314000FA01C7010197F1F760E08AE00E94FA01F5
:10315000C6010197F1F761E08AE00E94FA01FBEEF7
:10316000AF2EF5E0BF2EC5010197F1F760E08AE0D0
:103170000E94FA01C6010197F1F761E08AE00E941E
:10318000FA01C6010197F1F760E08AE00E94FA01B6
:10319000C7010197F1F761E08AE00E94FA01C701D7
:1031A0000197F1F760E08AE00E94FA018FE797E06B
:1031B0000197F1F761E08AE00E94FA01C8010197E6
:1031C000F1F760E08AE00E94FA018BE69DE001974A
:1031D000F1F761E08AE00E94FA01C8010197F1F776
:1031E00060E08AE00E94FA01C6010197F1F761E010
:1031F0008AE00E94FA01C8010197F1F760E08AE0D5
:103200000E94FA0183E79AE00197F1F761E08AE012
:103210000E94FA01C8010197F1F760E08AE00E947C
:10322000FA01C6010197F1F761E08AE00E94FA0114
:10323000C7010197F1F760E08AE00E94FA0183EE8E
:1032400098E00197F1F761E08AE00E94FA01C80175
:103250000197F1F760E08AE00E94FA01C601019748
:10326000F1F761E08AE00E94FA01C7010197F1F7E6
:1032700060E08AE00E94FA01C6010197F1F761E07F
:103280008AE00E94FA01C5010197F1F760E08AE047
:103290000E94FA01C6010197F1F761E08AE00E94FD
:1032A000FA016CE172E080E090E00E9489028BED0F
:1032B00092E00E941D088AEE92E00E941D0861E0E3
:1032C0008AE00E94280260E08AE00E94FA0166E437
:1032D00070E080E090E00E94890261E08AE00E9454
:1032E000FA0162E870E080E090E00E9489021092AA
:1032F000F0061092EF061092EE061092ED06109274
:10330000EC061092EB068DE791E09093F206809325
:10331000F1069091E106963108F045C02DEA30E0C3
:103320003093EC062093EB061093EE060093ED0627
:1033300024E131E03093F0062093EF0620916800FD
:1033400084E0983048F031E09E3008F430E081E0CD
:1033500001C0880F3A95EAF7822B809368002DE62A
:1033600030E0983050F02BE630E09E3030F02CE624
:1033700030E0963110F030E020E03093E906209301
:10338000E806292F30E0983008F07EC081E001C0C7
:10339000880F9A95EAF78093EA068091F10690915A
:1033A000F2060197F1F78091EF069091F006892BD4
:1033B00049F1E0912506F091260626E0E53DF20769
:1033C00009F1309739F0A389B4899C91858980955A
:1033D00089238C938091F3068E7F8093F30610925D
:1033E00024061092230685ED96E09093260680939E
:1033F0002506E091E806F091E90680819091EA06C1
:10340000892B80838CE093E00E941D0844E050E00B
:1034100060E071E085ED96E00E949B0069E170E05C
:1034200080E090E00E9489028FE193E00E941D08F5
:1034300045E050E064E071E085ED96E00E949B007D
:1034400062E370E080E090E00E9489028E010F5FED
:103450001F4F6801F12CE12C85ED96E00E940E05CE
:103460001816190624F430E2E316F104D1F4F80139
:1034700090E080E09F01201B310B2E153F05E4F406
:103480002191820F911DF6CF9E3040F428503109D2
:1034900081E001C0880F2A95EAF77DCF2E503109CF
:1034A000F7CF85ED96E00E9426054FEFE41AF40A67
:1034B000D6018D936D01D0CF8115964009F059C08A
:1034C00087E393E00E941D0862E370E080E090E0F3
:1034D0000E9489022091240130912501409126010A
:1034E00050912701C657DF4F288339834A835B8376
:1034F000CA58D0408091280190912901A0912A01B9
:10350000B0912B01C257DF4F88839983AA83BB8375
:10351000CE58D0408DE0C82EDD24D3940E94BB024B
:1035200087E00E94D101892BA1F4F0902B0666E977
:1035300070E080E090E00E948902F394F0922B0604
:103540000E949906C0920B019CE090930A01D092D0
:103550000901E0912B06E730E8F4F0E0EE54F54E77
:103560000C945E20C41AD71AD71ADC1AE11A881CE8
:10357000C41D8DE593E00E941D0860ED77E080E0BA
:1035800090E00E948902A0CF0E948E0D0E94320816
:103590000E944A0580E090E0892B09F4BFCF0E9489
:1035A0000501882309F4B8CF0E940000B5CF0E941E
:1035B0008E0D0E94CC0BECCF0E948E0D0E940A0A49
:1035C000E7CF0E94BB021B012C01C257DF4F2881AD
:1035D00039814A815B81CE58D040CA57DF4F28835A
:1035E00039834A835B83C658D040CE018A579F4FA8
:1035F0000E948D0032E7CF57DF4F3883C158D0404B
:1036000095E0CE57DF4F9883C258D04044E7CD575E
:10361000DF4F4883C358D040CC57DF4FD882C458BF
:10362000D040CB57DF4F8883C558D04045E050E0AD
:10363000BE016F577F4F85ED96E00E949B0062E3CD
:1036400070E080E090E00E94890238015801F12C7E
:10365000E12C85ED96E00E940E05181619067CF403
:1036600050E8E516F10459F085ED96E00E94260534
:103670009FEFE91AF90AD5018D935D01EACF809198
:10368000270690912806A0912906B0912A06A2014A
:103690009101281B390B4A0B5B0BDA01C901813DF3
:1036A0009740A105B10530F46DE771E08CE296E03A
:1036B0000E94300820922706309228064092290660
:1036C00050922A06B12CA12C470141E0841A91089E
:1036D000AE14BF04C1F0D3014D913D0150E070E044
:1036E00060E020E18CE296E00E94C206A814B904D2
:1036F00031F063E871E08CE296E00E943008BFEFA1
:10370000AB1ABB0AE5CFEA84F12C8C84912CAE84F1
:10371000B12C86E00E94D101892B91F480910A019D
:103720008F5F80930A010E94990666E970E080E04D
:1037300090E00E94890286E00E94D101892BD9F392
:1037400085E00E94D101892B91F480910A0181507A
:1037500080930A010E94990666E970E080E090E09B
:103760000E94890285E00E94D101892BD9F3E09162
:103770000A01EE3008F00ECFF0E0EF53F44E0C9457
:103780005E20CF1BD31BDE1BF71B141C321C511CED
:10379000581C5F1C661C6D1C741C771C741CEAE0B2
:1037A000E0930A01F7CE60E083E00E94660662E9DA
:1037B00073E084EF96E00E9430082FC060E083E061
:1037C0000E94660664EA73E084EF96E00E94300887
:1037D000F7E0EF16F10409F561E080E00E9466066B
:1037E0006FEA73E084EF96E00E943008D3CE60E089
:1037F00083E00E9466066FEB73E084EF96E00E9420
:10380000300827E0E216F10439F337E0831691041B
:1038100019F347E0A416B104F9F261E085E00E94D3
:1038200066066DE973E0DECF60E083E00E94660625
:103830006AEC73E084EF96E00E94300858E0E516E9
:10384000F10439F461E080E00E94660665ED73E002
:10385000C9CF88E088169104A9F398E0A916B104AD
:10386000E1F6F0CF60E084E00E94660665EE73E06A
:1038700084EF96E00E943008ACE0EA16F10439F4D7
:1038800061E080E00E9466066EEE73E0ABCFBCE0C4
:103890008B169104A9F3ECE0AE16B10409F0BDCF8C
:1038A000EFCF60E083E00E9466066FEF73E081CFA8
:1038B00060E086E00E94660669E074E07ACF60E02E
:1038C00087E00E94660669E573E073CF60E083E0FD
:1038D0000E9466066EE074E06CCF60E083E00E94B8
:1038E000660669E174E065CFD0920A0153CE60E0CC
:1038F00084E00E94660664E274E084EF96E00E9431
:10390000300861E081E00E9466066CE274E06ACFF4
:10391000C0920B010E94BB024B015C018091270603
:1039200090912806A0912906B0912A06A50194013C
:10393000281B390B4A0B5B0BDA01C901893893410B
:10394000A105B10540F445E050E064E071E085ED8B
:1039500096E00E949B008092270690922806A092F3
:103960002906B0922A060E94BB0285E00E94D1017E
:10397000892B91F4809109018F5F809309010E9446
:10398000990666E970E080E090E00E94890285E097
:103990000E94D101892BD9F3F090090141E0F4167E
:1039A00009F4D0C0F41608F4CAC052E0F51609F4C0
:1039B000DAC083E0F812EECDC657DF4F2881398197
:1039C0004A815B81CA58D040CF57DF4F2883398363
:1039D0004A835B83C158D040CE018F579F4F0E94CE
:1039E0008D0032E7398395E09A8340E64B83FC8271
:1039F0008D8345E050E0B80185ED96E00E949B0084
:103A000062E370E080E090E00E94890260E080E084
:103A10000E94660665E674E084EF96E00E94300836
:103A200061E080E00E94660665E774E084EF96E05E
:103A30000E94300860ED77E080E090E00E9489020B
:103A40000E94990645E050E0B80185ED96E00E949D
:103A50009B0060E080E00E94660661E874E084EF0D
:103A600096E00E94300861E080E00E94660661E90D
:103A700074E084EF96E00E94300860ED77E080E02B
:103A800090E00E94890245E050E0B80185ED96E0A3
:103A90000E949B0061E080E00E9466066EE974E08F
:103AA00084EF96E00E94300861E080E00E946606A4
:103AB0006CEA74E084EF96E00E94300868EE73E0F0
:103AC00080E090E00E94890245E050E0B80185ED79
:103AD00096E00E949B0061E080E00E9466066BEB2E
:103AE00074E084EF96E00E94300868EE73E080E0B6
:103AF00090E00E94890261E080E00E9466066BEC23
:103B000074E084EF96E00E94300868EE73E080E095
:103B100090E00E9489020E94990661E081E00E9483
:103B200066066CED74E084EF96E00E94300860ED6C
:103B300077E080E090E00E9489020E949906D0928E
:103B4000090128CD61E084E00E94660669E474E022
:103B500084EF96E00E94300860E084E00E946606F0
:103B60006BE374E03FCE60E080E00E94660663E4B1
:103B700074E084EF96E00E94300861E080E00E94EB
:103B8000660663E574E02ECEC0920B0110922B0600
:103B900001CD84E591E09093D6068093D50680917F
:103BA000250690912606855D964071F4E091E80621
:103BB000F091E90690818091EA06809589238083BF
:103BC000109226061092250608955058BB27AA2762
:103BD0000E94FD1D0C94771F0E94691F38F00E94FF
:103BE000701F20F039F49F3F19F426F40C94661FDF
:103BF0000EF4E095E7FB0C94601FE92F0E94881FEC
:103C000058F3BA17620773078407950720F079F411
:103C1000A6F50C94AA1F0EF4E0950B2EBA2FA02D3A
:103C20000B01B90190010C01CA01A0011124FF2769
:103C3000591B99F0593F50F4503E68F11A16F04064
:103C4000A22F232F342F4427585FF3CF4695379563
:103C50002795A795F0405395C9F77EF41F16BA0B28
:103C6000620B730B840BBAF09150A1F0FF0FBB1FD6
:103C7000661F771F881FC2F70EC0BA0F621F731F1F
:103C8000841F48F4879577956795B795F7959E3F7C
:103C900008F0B0CF9395880F08F09927EE0F97950D
:103CA000879508950E943C1F08F481E008950E94C2
:103CB0006B1E0C94771F0E94701F58F00E94691FA2
:103CC00040F029F45F3F29F00C94601F51110C94CF
:103CD000AB1F0C94661F0E94881F68F39923B1F3F1
:103CE000552391F3951B550BBB27AA276217730722
:103CF000840738F09F5F5F4F220F331F441FAA1FB6
:103D0000A9F335D00E2E3AF0E0E832D09150504071
:103D1000E695001CCAF72BD0FE2F29D0660F771F1F
:103D2000881FBB1F261737074807AB07B0E809F005
:103D3000BB0B802DBF01FF2793585F4F3AF09E3F8A
:103D4000510578F00C94601F0C94AB1F5F3FE4F3B7
:103D5000983ED4F3869577956795B795F7959F5FCD
:103D6000C9F7880F911D9695879597F90895E1E019
:103D7000660F771F881FBB1F621773078407BA0778
:103D800020F0621B730B840BBA0BEE1F88F7E095D3
:103D900008950E94D01E6894B1110C94AB1F089531
:103DA0000E94901F88F09F5798F0B92F9927B7511C
:103DB000B0F0E1F0660F771F881F991F1AF0BA95CF
:103DC000C9F714C0B13091F00E94AA1FB1E0089564
:103DD0000C94AA1F672F782F8827B85F39F0B93F56
:103DE000CCF3869577956795B395D9F73EF4909582
:103DF0008095709561957F4F8F4F9F4F0895E89400
:103E000009C097FB3EF490958095709561957F4F22
:103E10008F4F9F4F9923A9F0F92F96E9BB279395D0
:103E2000F695879577956795B795F111F8CFFAF4E0
:103E3000BB0F11F460FF1BC06F5F7F4F8F4F9F4F11
:103E400016C0882311F096E911C0772321F09EE86F
:103E5000872F762F05C0662371F096E8862F70E0D5
:103E600060E02AF09A95660F771F881FDAF7880FAF
:103E70009695879597F90895990F0008550FAA0B05
:103E8000E0E8FEEF16161706E807F907C0F012166D
:103E90001306E407F50798F0621B730B840B950B70
:103EA00039F40A2661F0232B242B252B21F40895C5
:103EB0000A2609F4A140A6958FEF811D811D089562
:103EC00097F99F6780E870E060E008959FEF80ECCD
:103ED000089500240A941616170618060906089570
:103EE00000240A9412161306140605060895092ED6
:103EF0000394000C11F4882352F0BB0F40F4BF2B45
:103F000011F460FF04C06F5F7F4F8F4F9F4F089584
:103F100057FD9058440F551F59F05F3F71F047957A
:103F2000880F97FB991F61F09F3F79F0879508955F
:103F3000121613061406551FF2CF4695F1DF08C07E
:103F4000161617061806991FF1CF8695710561059B
:103F500008940895E894BB2766277727CB0197F943
:103F600008950E943C1F08F48FEF08950E94C91F16
:103F70000C94771F0E94691F38F00E94701F20F078
:103F8000952311F00C94601F0C94661F11240C945F
:103F9000AB1F0E94881F70F3959FC1F3950F50E0EF
:103FA000551F629FF001729FBB27F00DB11D639FEB
:103FB000AA27F00DB11DAA1F649F6627B00DA11D91
:103FC000661F829F2227B00DA11D621F739FB00D37
:103FD000A11D621F839FA00D611D221F749F3327A7
:103FE000A00D611D231F849F600D211D822F762F40
:103FF0006A2F11249F5750409AF0F1F088234AF01D
:10400000EE0FFF1FBB1F661F771F881F9150504088
:10401000A9F79E3F510580F00C94601F0C94AB1FD4
:104020005F3FE4F3983ED4F3869577956795B7950F
:10403000F795E7959F5FC1F7FE2B880F911D969529
:10404000879597F908950E943C1F880B990B089556
:1040500097FB072E16F4009407D077FD09D00E9435
:10406000642007FC05D03EF4909581959F4F0895FC
:10407000709561957F4F0895A1E21A2EAA1BBB1B74
:10408000FD010DC0AA1FBB1FEE1FFF1FA217B30724
:10409000E407F50720F0A21BB30BE40BF50B661F3A
:1040A000771F881F991F1A9469F7609570958095FE
:1040B00090959B01AC01BD01CF010895EE0FFF1F4C
:1040C0000590F491E02D0994AA1BBB1B51E107C098
:1040D000AA1FBB1FA617B70710F0A61BB70B881F98
:1040E000991F5A95A9F780959095BC01CD01089527
:1040F00010E0C2E6D0E004C0FE010E945E202196DE
:10410000C336D107C9F7F894FFCFFE04FFFF72054D
:1041100000F099010C0D72057120720571D100003B
:104120004000140054007205711172057117720578
:10413000600372057401000000003B019B00C80091
:104140008801F900D700EB0000000000840357034A
:104150004705980050033D032E0300000000B20401
:104160009B00470598000E0526059A0400000000F4
:10417000A4069B004705C7026E616E00696E66006B
:104180006F7666000D0A005241573A20003B0052FC
:10419000415720424541542046493A200052504D53
:1041A000203D0052706D00424154203D00564F4C5E
:1041B00054005450532056203D00566F6C0054500C
:1041C000532025203D002020202025004543542059
:1041D00056203D004543542043203D00454F542088
:1041E00056203D00454F542043203D004941542076
:1041F00056203D002D2D2D004941542043203D00E7
:104200004D4150203D004B506100434B50203D003C
:10421000494E4A203D0020206D53006F3220564FFA
:104220004C54203D006F322053544654203D0045ED
:104230004E474E20535453203D002D2D2D2000532A
:1042400057544320535453203D004F4E20004F46B7
:104250004600534353203D004D494C203D005350F0
:10426000454544203D004B6D2F680050554D502072
:10427000203D002041445620313530002042656108
:1042800074204669203230313300205265766F2029
:1042900046697400204265617420506F50203230AE
:1042A000313300416E64616C6173204C696D610053
:1042B00054656368004C6F6164696E672064617463
:1042C00061202E004C6F6164696E672064617461C7
:1042D000202E2E004C6F6164696E672064617461EA
:1042E000202E2E2E005374617274696E67207570D3
:1042F0002E2E2E0053657474696E67206C696E658E
:10430000206C6F772037306D732C206869676820C8
:104310003132306D730053656E64696E67204543BA
:10432000552057616B6575700053656E64696E67E3
:104330002045435520496E697420537472696E6735
:10434000005375636365737366756C6C79206F7069
:10435000656E656420636F6E6E656374696F6E2051
:10436000746F20454355004661696C656420746F25
:10437000206F70656E20636F6E6E656374696F6E1B
:1043800020746F204543552C20747279696E672024
:10439000616761696E20696E2032730053656E73C8
:1043A0006F72204D4150003E204F4B203C00536522
:1043B0006E736F7220454F54003E204572726F72CB
:1043C000204D494C202837290053656E736F7220A9
:1043D0004543540053656E736F7220545053003E32
:1043E000204572726F72204D494C202838290049AF
:1043F0006E6A6563746F72003E204572726F722040
:104400004D494C20283132290053656E736F72205C
:104410004F3200494143560053656E736F7220431B
:104420004B500053656E736F722042415300202041
:1044300028445443290044617461204B65727573AC
:10444000616B616E00202052455345540059616BE9
:10445000696E204861707573204454430054656B45
:10446000616E20446F776E2E2E2E21212120005068
:10447000726F7365732E2E2E2E2E2E212121004851
:104480006170757320445443202E00536162617241
:10449000205961612E2E2E212121004861707573F3
:1044A00020445443202E2E004861707573204454DC
:1044B00043202E2E2E0048617075732044544320F3
:1044C0002E2E2E2E00486170757320445443202EEA
:1044D0002E2E2E2E00486170757320445443202EDA
:1044E0002E2E2E2E2E0053656C657361692E2E2E96
:0644F0002E212121210014
:107E0000112484B714BE81FFF0D085E080938100F7
:107E100082E08093C00088E18093C10086E0809377
:107E2000C20080E18093C4008EE0C9D0259A86E02C
:107E300020E33CEF91E0309385002093840096BBD3
:107E4000B09BFECF1D9AA8958150A9F7CC24DD24C4
:107E500088248394B5E0AB2EA1E19A2EF3E0BF2EE7
:107E6000A2D0813461F49FD0082FAFD0023811F036
:107E7000013811F484E001C083E08DD089C08234E0
:107E800011F484E103C0853419F485E0A6D080C0E4
:107E9000853579F488D0E82EFF2485D0082F10E0AE
:107EA000102F00270E291F29000F111F8ED06801E7
:107EB0006FC0863521F484E090D080E0DECF843638
:107EC00009F040C070D06FD0082F6DD080E0C81688
:107ED00080E7D80618F4F601B7BEE895C0E0D1E017
:107EE00062D089930C17E1F7F0E0CF16F0E7DF06D8
:107EF00018F0F601B7BEE89568D007B600FCFDCFD4
:107F0000A601A0E0B1E02C9130E011968C91119780
:107F100090E0982F8827822B932B1296FA010C0160
:107F200087BEE89511244E5F5F4FF1E0A038BF0790
:107F300051F7F601A7BEE89507B600FCFDCF97BE46
:107F4000E89526C08437B1F42ED02DD0F82E2BD052
:107F50003CD0F601EF2C8F010F5F1F4F84911BD097
:107F6000EA94F801C1F70894C11CD11CFA94CF0C13
:107F7000D11C0EC0853739F428D08EE10CD085E9AC
:107F80000AD08FE07ACF813511F488E018D01DD067
:107F900080E101D065CF982F8091C00085FFFCCF94
:107FA0009093C60008958091C00087FFFCCF809118
:107FB000C00084FD01C0A8958091C6000895E0E648
:107FC000F0E098E1908380830895EDDF803219F02E
:107FD00088E0F5DFFFCF84E1DECF1F93182FE3DFCA
:107FE0001150E9F7F2DF1F91089580E0E8DFEE27F6
:047FF000FF270994CA
:027FFE00040479
:00000001FF
