:020000040000FA
:100000000C9463000C948B000C948B000C945C1C7F
:100010000C945C1C0C945C1C0C948B000C948B005A
:100020000C948B000C948B000C948B000C948B0024
:100030000C948B000C948B000C948B000C948B0014
:100040000C94F31A0C948B000C94C11A0C949B1A08
:100050000C948B000C948B000C948B000C948B00F4
:100060000C943D1B0C948B00000000002400270022
:100070002A0000000008000201000003040700003D
:1000800000000000000000000000230026002900FE
:1000900000000000250028002B00040404040404D0
:1000A0000404020202020202030303030303010227
:1000B00004081020408001020408102001020408F6
:1000C0001020D41C9A2411241FBECFEFD8E0DEBF2D
:1000D000CDBF15E0A0E0B1E0ECEAFEE402C005907F
:1000E0000D92AA34B107D9F727E0AAE4B5E001C020
:1000F0001D92AC35B207E1F710E0C2E6D0E004C0D3
:100100002197FE010E942F27C136D107C9F70E940F
:10011000A61D0C9449270C940000FC019C012C5F47
:100120003F4F80E09191891BE217F307D9F70895BB
:10013000089508950895AF92BF92CF92DF92EF9203
:10014000FF920F931F93CF93DF936C017B018B0181
:10015000040F151FEB015E01AE18BF08C017D107D1
:1001600059F06991D601ED91FC910190F081E02D5B
:10017000C6010995892B79F7C501DF91CF911F91B0
:100180000F91FF90EF90DF90CF90BF90AF900895C8
:10019000FC01538D448D252F30E0842F90E0821B8D
:1001A000930B541710F0CF96089501970895FC0112
:1001B000918D828D981761F0A28DAE0FBF2FB11D6A
:1001C0005D968C91928D9F5F9F73928F90E00895C2
:1001D0008FEF9FEF0895FC01918D828D981731F07C
:1001E000828DE80FF11D858D90E008958FEF9FEFD0
:1001F0000895FC01918D228D892F90E0805C9F4FA6
:10020000821B91098F739927089588E896E00E94D0
:10021000F90021E0892B09F420E0822F089580E085
:1002200090E0892B29F00E94050181110C940000B7
:100230000895FC01A48DA80FB92FB11DA35ABF4F7B
:100240002C91848D90E001968F739927848FA689D5
:10025000B7892C93A089B1898C91837080648C9329
:10026000938D848D981306C00288F389E02D8081D8
:100270008F7D80830895EF92FF920F931F93CF930A
:10028000DF93EC0181E0888F9B8D8C8D98131AC0D1
:10029000E889F989808185FF15C09FB7F894EE89B8
:1002A000FF896083E889F989808183708064808315
:1002B0009FBF81E090E0DF91CF911F910F91FF9060
:1002C000EF900895F62E0B8D10E00F5F1F4F0F7308
:1002D0001127E02E8C8D8E110CC00FB607FCFACFC3
:1002E000E889F989808185FFF5CFCE010E94190147
:1002F000F1CFEB8DEC0FFD2FF11DE35AFF4FF08294
:100300009FB7F8940B8FEA89FB8980818062CFCFF9
:10031000CF93DF93EC01888D8823B9F0AA89BB893C
:10032000E889F9898C9185FD03C0808186FD0DC027
:100330000FB607FCF7CF8C9185FFF2CF808185FF48
:10034000EDCFCE010E941901E9CFDF91CF91089541
:10035000833081F028F4813099F08230A9F008953B
:100360008730A9F08830C9F08430B1F480918000E2
:100370008F7D03C0809180008F77809380000895E7
:1003800084B58F7784BD089584B58F7DFBCF809130
:10039000B0008F778093B00008958091B0008F7D7A
:1003A000F9CFCF93DF93282F30E0F901EE58FF4FBC
:1003B0008491F901E255FF4FD491F901E656FF4FC0
:1003C000C491CC23A1F081110E94A801EC2FF0E090
:1003D000EE0FFF1FEA57FF4FA591B491EC91ED236B
:1003E00081E090E009F480E0DF91CF91089580E012
:1003F00090E0FACF1F93CF93DF93282F30E0F901DD
:10040000EE58FF4F8491F901E255FF4FD491F90165
:10041000E656FF4FC491CC23A9F0162F81110E94FC
:10042000A801EC2FF0E0EE0FFF1FE057FF4FA59162
:10043000B4918FB7F894EC91111108C0D095DE23D8
:10044000DC938FBFDF91CF911F910895DE2BF8CF02
:10045000CF93DF9390E0FC01E255FF4F2491865645
:100460009F4FFC0184918823C9F090E0880F991F69
:10047000FC01E859FF4FA591B491FC01E057FF4FF3
:10048000C591D49161110DC09FB7F8948C912095BE
:1004900082238C938881282328839FBFDF91CF916B
:1004A0000895623051F49FB7F8943C91822F809563
:1004B00083238C93E8812E2BEFCF8FB7F894EC91A8
:1004C0002E2B2C938FBFEACF3FB7F89480917506FF
:1004D00090917606A0917706B091780626B5A89BF4
:1004E00005C02F3F19F00196A11DB11D3FBFBA2FC6
:1004F000A92F982F8827BC01CD01620F711D811D86
:10050000911D42E0660F771F881F991F4A95D1F70A
:1005100008958F929F92AF92BF92CF92DF92EF9207
:10052000FF924B015C010E9464026B017C010E94FE
:1005300064026C197D098E099F09683E734081052C
:100540009105A8F321E0821A9108A108B10888EE6C
:10055000C80E83E0D81EE11CF11C81149104A10493
:10056000B10429F7FF90EF90DF90CF90BF90AF904C
:100570009F908F90089508952091FF05260F3327AF
:10058000331F21323105ECF420914806FC0190E044
:1005900080E0243069F082E00895A091FF05219168
:1005A000AC0141525A4FA40FB52FB11D2C930196A7
:1005B000861798F38091FF05680F6093FF0580E030
:1005C000089581E008951092480681E080934706DF
:1005D0001092220661E082E10E94FA0161E083E16B
:1005E0000E94FA01E9EBF0E080818E7F80838081B8
:1005F0008D7F808388E48093B80085E48093BC007D
:100600000895CF93DF9391E09093DE058823B9F0AE
:10061000C091B800D091BA008091BC008A7B8093D1
:10062000BC0060E082E10E94FA0160E083E10E9488
:10063000FA010E94E302D093BA00C093B800DF91A0
:10064000CF910895E091800680917F06E81730F4FD
:10065000F0E0E254FA4F808190E008958FEF9FEF31
:1006600008959091800680917F062FEF3FEF9817B5
:1006700048F4E92FF0E0E254FA4F208130E09F5F28
:1006800090938006C901089580917F06909180061D
:10069000891B990B0895CF92DF92EF92FF920F93EF
:1006A0001F93CF93DF937C01CB018A0120914E06EB
:1006B000222389F0EB016B01C40ED51ECC15DD059C
:1006C00069F06991D701ED91FC910190F081E02DE5
:1006D000C7010995F3CF642F0E94BC02C801DF91C6
:1006E000CF911F910F91FF90EF90DF90CF900895E1
:1006F000CF93DF931F92CDB7DEB7698320914E066B
:100700002223F9F020917D06203258F021E030E0DC
:10071000FC013383228390E080E00F90DF91CF9142
:10072000089580917E06E82FF0E0E15BF94F998112
:1007300090838F5F80937E0680937D0681E090E0BA
:10074000ECCF61E0CE0101960E94BC02F7CFCF92C0
:10075000DF92EF92FF920F931F93CF93DF93FC01F1
:10076000C48121E020934E06C0936F0610927E064E
:1007700010927D068385682B85E297E00E947803BE
:10078000D0917D06D13208F092C00E9464026B01C4
:100790007C0180914806811165C082E08093480603
:1007A00081E0809347068FEF8093460610924506BE
:1007B000D0934406AFE4B6E0E4E2F6E080E0D8137C
:1007C00085C01092230680912306CC0FC82BC093BE
:1007D000230680912206813009F07CC01092220607
:1007E0000E9464026B017C01809123068093BB0010
:1007F00080914A0690914B06A0914C06B0914D060F
:10080000892B8A2B8B2B99F00E94640200914A0657
:1008100010914B0620914C0630914D066C197D09C4
:100820008E099F090617170728073907E0F18091FD
:10083000BC0083FDD9CF85EC8093BC000E9464028C
:100840006B017C0180914806823009F445C080919B
:1008500046068F3F61F180914606803241F18091DA
:10086000460625C080914A0690914B06A0914C0601
:10087000B0914D06892B8A2B8B2B09F48ACF0E94CD
:10088000640200914A0610914B0620914C0630916B
:100890004D066C197D098E099F0906171707280751
:1008A000390708F076CF809149060E940103109223
:1008B0007E0610927D0610924E06DF91CF911F9119
:1008C0000F91FF90EF90DF90CF9008959D919193BD
:1008D0008F5F75CF85EEB0CF80914A0690914B0621
:1008E000A0914C06B0914D06892B8A2B8B2B09F4D5
:1008F000A9CF0E94640200914A0610914B062091F4
:100900004C0630914D066C197D098E099F0906171A
:1009100017072807390708F095CFC5CF2091830620
:10092000309184062817390771F4909181068091DF
:100930008206981741F0E0918106F0E0E258FA4F04
:10094000808190E008958FEF9FEF0895EF92FF92DE
:100950000F931F93CF93DF93DC015C96ED90FC9097
:100960005D97E114F10479F481E090E013969C9393
:100970008E93129790E080E0DF91CF911F910F91BD
:10098000FF90EF9008955196ED91FC9152975096FB
:100990008C915097982F90950FB75E962C915E97FB
:1009A000122F127021FD6095F8942081112319F106
:1009B000282B2083E7012197F1F728E0462F50E00C
:1009C000308160FF1AC0382B3083E7012197F1F79F
:1009D000BA0175956795215089F7112381F08081BF
:1009E000892380830FBF5C968D919C910197F1F7CD
:1009F00081E090E0C1CF2923DCCF3923E5CF90817E
:100A0000892BEFCF20918306309184062817390770
:100A100071F4809182062091810690E0805C9F4F66
:100A2000821B910960E470E00E94F926089590E02D
:100A300080E00895209183063091840628173907B5
:100A4000B9F49091810680918206981789F0E0911F
:100A50008106F0E0E258FA4F80812091810630E073
:100A60002F5F3F4F2F7333272093810690E0089527
:100A70008FEF9FEF089590E080E00895DF92EF926E
:100A8000FF920F931F93CF93DF93CDB7DEB7C25979
:100A9000D1090FB6F894DEBF0FBECDBF8091120111
:100AA00090911301A0911401B0911501C557DF4F2A
:100AB00088839983AA83BB83CB58D040CE018557C6
:100AC0009F4F0E948D008E010F571F4F92E7D92E26
:100AD000F801D08225E0E22EE18231E7F32EF282A6
:100AE00090E29383848345E050E0B8018DE397E082
:100AF0000E949B0062E370E080E090E00E94890227
:100B00008091160190911701A0911801B0911901DF
:100B1000C157DF4F88839983AA83BB83CF58D040C6
:100B2000CE0181579F4F0E948D00CA57DF4FD88258
:100B3000C658D040C957DF4FE882C758D040C85781
:100B4000DF4FF882C858D04091EDC757DF4F9883E8
:100B5000C958D040C657DF4F8883CA58D04045E0B7
:100B600050E0BE016A577F4F8DE397E00E949B00E3
:100B700062E370E080E090E00E948902CE0101967D
:100B80007C018DE397E00E940205181619065CF4BB
:100B9000E016F10641F08DE397E00E941A05F70197
:100BA00081937F01EECF698570E090E080E00E9444
:100BB000D02520E030E040EA50E40E94872620E083
:100BC00030E040E85BE30E94872660937A057093EB
:100BD0007B0580937C0590937D056A8570E0660FA8
:100BE000672F661F770B072E000C880B990B0E944E
:100BF000D22560937605709377058093780590935E
:100C00007905809175058130A9F48A8D80937405EA
:100C10008F8980937305CE56DF4F0FB6F894DEBFF1
:100C20000FBECDBFDF91CF911F910F91FF90EF903D
:100C3000DF900895823029F4898D809374058C8922
:100C4000E8CF833041F78A8D809374058D89E1CF99
:100C50000F931F93CF938C01C62F0E94A7036C2F75
:100C60006460C8010E94A7036C2F6B7FC8010E94BB
:100C7000A70383EC90E00197F1F7CF911F910F91BB
:100C800008950F931F93CF93DF938C01D62FC42F1A
:100C9000607F642B0E94280680E1D89FB001112458
:100CA0006C2BC801DF91CF911F910F910C942806F6
:100CB000CF93DF93CDB7DEB728970FB6F894DEBF9A
:100CC0000FBECDBF98E0EAE1F1E0DE0111960190A0
:100CD0000D929A95E1F790913907961708F46FEF06
:100CE000262F30E0220F331F41E050E04C0F5D1FF4
:100CF000240F351FF9016081680F606840E081E3CF
:100D000097E028960FB6F894DEBF0FBECDBFDF91F7
:100D1000CF910C94410640E061E081E397E00E94AE
:100D200041068BE39FE10197F1F7089541E00E94AE
:100D3000410681E090E0089541E0682F81E397E06B
:100D40000E94410681E090E00895FC01019000209E
:100D5000E9F73197AF01481B590BBC0181E397E0DC
:100D60000C949B008F929F92AF92BF920F931F9310
:100D7000CF93DF93CDB7DEB7A1970FB6F894DEBF60
:100D80000FBECDBF19A2423008F44AE08E010F5DBC
:100D90001F4F842E912CB12CA12CA50194010E94EF
:100DA0000D27E62FB901CA01EA30F4F4E05DD8015D
:100DB000EE938D01232B242B252B79F790E080E0F7
:100DC000109719F0CD010E94A506A1960FB6F894D0
:100DD000DEBF0FBECDBFDF91CF911F910F91BF90AE
:100DE000AF909F908F900895E95CE1CFCF92DF9212
:100DF000EF92FF92CF93DF936C01990FEE08FF08FB
:100E00006A307105D1F44AE0F7FE18C08DE20E9405
:100E10009C06EC0166277727CB016C197D098E09AA
:100E20009F094AE00E94B2068C0F9D1FDF91CF916F
:100E3000FF90EF90DF90CF900895462FC701B60145
:100E4000DF91CF91FF90EF90DF90CF900C94B2069E
:100E5000682F70E090E080E040E10C94B2060C94C2
:100E6000A506EF92FF920F931F93CF93DF93CDB719
:100E7000DEB7C058D1090FB6F894DEBF0FBECDBFA4
:100E800045E050E060E071E08DE397E00E949B0058
:100E900062E370E080E090E00E9489028E010F5FC3
:100EA0001F4F7E0181E8E80EF11C8DE397E00E9460
:100EB0000205181619065CF40E151F0541F08DE3A6
:100EC00097E00E941A05F80181938F01EECF8A8581
:100ED000809372058B85809371058C858093700556
:100EE0008D8580936F058E8580936E050E948B069D
:100EF00060E085E00E94580684E791E00E942F0799
:100F000061E080E00E945806809172050E942807E7
:100F100061E082E00E9458068BE791E00E942F0773
:100F200061E083E00E945806809171050E942807C5
:100F300061E085E00E9458068BE791E00E942F0750
:100F400061E086E00E945806809170050E942807A3
:100F500061E088E00E9458068BE791E00E942F072D
:100F600061E089E00E94580680916F050E94280781
:100F700061E08BE00E9458068BE791E00E942F070A
:100F800061E08CE00E94580680916E050E9428075F
:100F90006CED75E080E090E00E9489020E948B0673
:100FA00080917205813049F580917105843309F093
:100FB000C6C1809170058F3071F480916F058130CA
:100FC00051F480916E05811106C081E090E090930C
:100FD000110180931001809170058F3071F4809120
:100FE0006F05813051F480916E05813031F480E1DC
:100FF00090E0909311018093100180E0C058DF4F82
:101000000FB6F894DEBF0FBECDBFDF91CF911F9119
:101010000F91FF90EF900895809170058B3771F4D8
:1010200080916F058F3051F480916E05813031F4DD
:1010300082E090E0909311018093100180917005FF
:101040008A3771F480916F0581110AC080916E0515
:101050008C3A31F486E090E0909311018093100176
:1010600080917005823971F480916F058F3051F451
:1010700080916E05813031F482E190E0909311010E
:101080008093100180917005853271F480916F0515
:101090008F3051F480916E05813031F48BE190E016
:1010A000909311018093100180917005803109F0B7
:1010B00026C180916F058F3009F09FCF80916E051A
:1010C000813009F09ACF80E290E093CF8091700553
:1010D000873C09F07AC180916F0581110AC0809127
:1010E0006E05863C31F483E090E09093110180938B
:1010F000100180917005833E71F480916F0581111C
:101100000AC080916E058E3A31F487E090E09093AA
:1011100011018093100180917005833E71F48091DC
:101120006F058F3051F480916E05813031F48AE083
:1011300090E09093110180931001809170058233AB
:1011400071F480916F058F3051F480916E0581307C
:1011500031F488E190E09093110180931001809127
:101160007005873E09F049CF80916F058F3009F0F7
:1011700044CF80916E05813009F03FCF8DE190E042
:1011800038CF80916F058111B4CF80916E05873C77
:1011900009F0AFCF84E090E0A8CF80917005833D47
:1011A00009F025C180916F0581110AC080916E05FB
:1011B0008A3F31F488E090E0909311018093100110
:1011C00080917005873809F021C180916F058F30BB
:1011D00051F480916E05823031F48BE090E0909371
:1011E000110180931001809170058B3109F01EC1AF
:1011F00090916F059F3051F490916E05923031F4CB
:101200002EE030E03093110120931001833F09F06C
:101210001EC180916F058F3009F019C180916E0554
:10122000813009F014C181E190E00DC18091700519
:10123000843071F480916F058F3051F480916E0588
:10124000813031F48DE090E0909311018093100192
:10125000809170058F3A71F480916F058F3051F451
:1012600080916E05813031F48AE190E09093110114
:101270008093100180917005853A09F050C08091EB
:101280006F058F3009F0B9CE80916E05813009F07D
:10129000B4CE82E290E0ADCE809170058A3F71F4C9
:1012A00080916F05803151F480916E05813031F469
:1012B00083E190E09093110180931001809170057B
:1012C000883E69F480916F058F3009F096CE809149
:1012D0006E05823009F091CE86E190E08ACE8F359E
:1012E00009F08BCE80916F058F3009F086CE80910A
:1012F0006E05813009F081CE87E190E07ACE8131B0
:1013000009F07BCE80916F058F3009F076CE809109
:101310006E05813009F071CE81E290E06ACE843AA8
:1013200009F06BCE80916F058F3009F066CE809109
:101330006E05813009F061CE83E290E05ACE8330B1
:1013400009F46ACE823009F4C1CE833009F476CE36
:10135000823009F4CECE813009F41FCF823009F4F7
:10136000DACE813009F42CCF843009F45FCF81309C
:1013700009F439CF843309F42ECE833009F470CECA
:10138000882309F489CF813009F461C0882309F4E6
:1013900095CF823009F4D1CE813009F46BC084300E
:1013A00009F456CF833009F46DCE813009F474C04E
:1013B000823009F4D4CE813009F480C0833009F43E
:1013C00073CE843009F456CF18CE813409F4D9CEC7
:1013D000833E09F08ECE80916F0581118ACE809177
:1013E0006E058A3709F085CE85E090E07ECE843D9B
:1013F00009F0E6CE80916F058111E2CE80916E05F5
:101400008D3009F0DDCE89E090E0D6CE883809F045
:10141000EACE80916F058D3009F0E5CE80916E05A2
:10142000813009F0E0CE8CE090E0D9CE8E3B09F01F
:10143000EDCE80916F058F3051F480916E05813033
:1014400031F48FE090E0909311018093100180912E
:1014500070058B3109F043C080916F058F3051F4D6
:1014600080916E05823031F484E190E09093110117
:1014700080931001809170058B3871F480916F0515
:101480008F3051F480916E05813031F489E190E024
:10149000909311018093100180917005813B71F44C
:1014A00080916F058F3051F480916E05813031F459
:1014B0008CE190E090931101809310018091700570
:1014C0008037D1F480916F058F3009F096CD8091EF
:1014D0006E05813009F091CD8EE190E08ACD8131A9
:1014E00049F680916F058F3029F680916E05813025
:1014F00009F685E190E0BACF803209F07ECD809187
:101500006F058F3009F079CD80916E05813009F03B
:1015100074CD8FE190E06DCD80911001909111011B
:10152000019741F460E084E00E9458068DE791E065
:101530000E942F078091100190911101029741F4B0
:1015400060E084E00E94580685E891E00E942F0741
:101550008091100190911101039741F460E084E0C3
:101560000E9458068DE891E00E942F07809110019B
:1015700090911101049741F460E084E00E945806C4
:1015800085E991E00E942F0780911001909111014F
:10159000059741F460E084E00E94580685E991E0F7
:1015A0000E942F078091100190911101069741F43C
:1015B00060E084E00E9458068EE991E00E942F07C7
:1015C0008091100190911101079741F460E084E04F
:1015D0000E94580688EA91E00E942F07809110012E
:1015E00090911101089741F460E084E00E94580650
:1015F00082EB91E00E942F078091100190911101E0
:10160000099741F460E084E00E94580682EB91E083
:101610000E942F0780911001909111010A9741F4C7
:1016200060E084E00E9458068BEB91E00E942F0757
:1016300080911001909111010B9741F460E084E0DA
:101640000E94580684EC91E00E942F0780911001BF
:10165000909111010C9741F460E084E00E945806DB
:101660008EEC91E00E942F07809110019091110162
:101670000D9741F460E084E00E94580688ED91E007
:101680000E942F0780911001909111010E9741F453
:1016900060E083E00E94580680EE91E00E942F07F0
:1016A00080911001909111010F9741F460E081E069
:1016B0000E9458068BEE91E00E942F078091100146
:1016C00090911101409741F460E084E00E94580637
:1016D0008DE791E00E942F078091100190911101F8
:1016E000419741F460E084E00E94580689EF91E060
:1016F0000E942F078091100190911101429741F4AF
:1017000060E081E00E94580683E092E00E942F078B
:101710008091100190911101439741F460E082E0C3
:101720000E94580681E192E00E942F0780911001EB
:1017300090911101449741F460E084E00E945806C2
:101740008DE192E00E942F0780911001909111018C
:10175000459741F460E082E00E94580685E292E0FD
:101760000E942F078091100190911101469741F43A
:1017700060E082E00E94580681E392E00E942F0719
:101780008091100190911101479741F460E082E04F
:101790000E94580681E392E00E942F078091100179
:1017A00090911101489741F460E084E00E9458064E
:1017B0008DE392E00E942F0780911001909111011A
:1017C000499741F460E083E00E94580686E492E085
:1017D0000E942F0780911001909111014A9741F4C6
:1017E00060E082E00E94580681E392E00E942F07A9
:1017F00080911001909111014B9741F460E084E0D9
:101800000E94580680E592E00E942F078091100107
:10181000909111014C9741F460E084E00E945806D9
:1018200080E592E00E942F078091100190911101B4
:101830004D9741F460E084E00E94580689EF91E002
:101840000E942F0780911001909111014E9741F451
:1018500060E084E00E94580689E592E00E942F072C
:1018600080911001909111014F9741F460E084E064
:101870000E94580689EF91E00E942F078091100185
:1018800090911101809741F460E084E00E94580635
:1018900082E692E00E942F07809110019091110141
:1018A000819741F460E084E00E94580682E692E06D
:1018B0000E942F078091100190911101829741F4AD
:1018C00060E084E00E94580682E692E00E942F07C2
:1018D0008091100190911101839741F460E084E0C0
:1018E0000E94580682E692E00C942F0708954F92CA
:1018F0005F926F927F928F929F92AF92BF92CF92A0
:10190000DF92EF92FF92CF93DF936B017C01942ED5
:10191000AC019B010E94F426882391F08CE692E0B2
:10192000DF91CF91FF90EF90DF90CF90BF90AF907D
:101930009F908F907F906F905F904F900C94A50632
:1019400026013701E89477F82FEF3FEF4FE75FE785
:10195000C301B2010E94F42681110DC02FEF3FEFA9
:101960004FE75FE7C301B2010E94232518161CF45C
:1019700080E792E0D5CF2FEF3FEF4FE75FE4C7015D
:10198000B6010E94822618161CF484E792E0C8CFA4
:101990002FEF3FEF4FE75FECC701B6010E94232511
:1019A00087FDF3CF20E030E0A901C701B6010E9416
:1019B0002325B12CA12C87FF08C08DE20E949C0634
:1019C0005C01F7FAF094F7F8F094C92D60E070E04C
:1019D00080E09FE3D0E020E030E040E251E40E946C
:1019E000282521E02D0FD1E02915A8F3A7019601A4
:1019F0000E94B7242B013C010E94A1256B017C01B0
:101A00000E94D0259B01AC01C301B2010E94B62403
:101A10002B013C014AE0C701B6010E94B2067C01DD
:101A20008EE20E949C06E80EF91EEA0CFB1CC150D7
:101A300018F120E030E040E251E4C301B2010E941D
:101A400087262B013C010E94A1254B01B12CA12C22
:101A50004AE0C501B4010E94B206E80EF91EC501B4
:101A6000B4010E94D0259B01AC01C301B2010E94C8
:101A7000B6242B013C01DBCFC701DF91CF91FF9052
:101A8000EF90DF90CF90BF90AF909F908F907F901E
:101A90006F905F904F900895EF92FF920F931F9376
:101AA000CF93DF93CDB7DEB7C958D1090FB6F894FD
:101AB000DEBF0FBECDBF8091220190912301A09186
:101AC0002401B0912501CA57DF4F88839983AA83E7
:101AD000BB83C658D040CE018A579F4F0E948D00CD
:101AE0008E010F571F4F92E7F801908395E0918385
:101AF00091E7928397E19383848345E050E0B801B6
:101B00008DE397E00E949B0062E370E080E090E04C
:101B10000E948902CE0101967C018DE397E00E942C
:101B20000205181619065CF40E151F0541F08DE329
:101B300097E00E941A05F70181937F01EECF8A8515
:101B400090E0982F88272B85820F911D90936D052B
:101B500080936C056C8570E090E080E00E94D02559
:101B600020E030E040EA50E40E94872620E030E0A8
:101B700040E85BE30E9487266093680570936905DF
:101B800080936A0590936B058D85FAE08F9FC00165
:101B9000112434E0959587953A95E1F79093670580
:101BA000809366056E8570E090E080E00E94D0250D
:101BB00020E030E040EA50E40E94872620E030E058
:101BC00040E85BE30E94872660936205709363059B
:101BD00080936405909365058F858852990B909347
:101BE000610580936005688970E090E080E00E9464
:101BF000D02520E030E040EA50E40E94872620E033
:101C000030E040E85BE30E9487260E949A257093AB
:101C10005F0560935E0589898852990B90935D05F5
:101C200080935C056A8970E090E080E00E94D02596
:101C300020E030E040EA50E40E94872620E030E0D7
:101C400040E85BE30E9487260E949A2570935B051B
:101C500060935A058B8990E09093590580935805BD
:101C60006C8970E090E080E00E94D02520E030E0B8
:101C700040E251E40E942825609354057093550575
:101C800080935605909357056D8970E090E080E051
:101C90000E94D22520E030E440E853E40E948726E9
:101CA0002CEE31E143E852E40E9428256093500570
:101CB0007093510580935205909353058E898054FB
:101CC000990B20E5289FB001299F700D112477FF03
:101CD00002C061507F4F672F770F770B072E000CE4
:101CE000880B990B0E94D22560934C0570934D058B
:101CF00080934E0590934F058F8990E090934B050C
:101D000080934A0583E08093750586E00E94D101A7
:101D1000892B91F480910E01815080930E010E94D5
:101D20008B0666E970E080E090E00E94890286E020
:101D30000E94D101892BD9F385E00E94D101892B22
:101D400091F480910E018F5F80930E010E948B06AB
:101D500066E970E080E090E00E94890285E00E94E0
:101D6000D101892BD9F3E0910E01E23108F057C07F
:101D7000F0E0E354F14F0C942F27CF0ED30E1D0F3C
:101D8000640FA60FED0F3C108210BB10EE10251152
:101D900056117C11A7119E11A711A111A5118CE05C
:101DA00080930E013CC060E080E00E94580688E706
:101DB00092E00E942F0760E08CE00E9458068EE7B8
:101DC00092E00E942F0760E086E00E9458066AE0D9
:101DD00070E080916C0590916D050E94F60661E0BF
:101DE00080E00E94580682E892E00E942F0761E09E
:101DF00086E00E94580660915405709155058091C7
:101E000056059091570542E050E00E94770C61E042
:101E10008CE00E94580688E892E00E942F07C7577E
:101E2000DF4F0FB6F894DEBF0FBECDBFDF91CF916D
:101E30001F910F91FF90EF90089560E080E00E9465
:101E400058068DE892E00E942F0760E088E00E942B
:101E50005806609168057091690580916A059091B6
:101E60006B0542E050E00E94770C60E08DE00E943C
:101E7000580685E992E00E942F0761E080E00E9409
:101E8000580689E992E00E942F0761E088E00E94ED
:101E900058066AE070E080916605909167050E949F
:101EA000F606809166059091670561E00A9734F423
:101EB00089E00E94580681EA92E0AFCF8DE00E944F
:101EC000580685EA92E0A9CF60E080E00E945806BB
:101ED00087EA92E00E942F0760E088E00E9458069F
:101EE000609162057091630580916405909165052C
:101EF00042E050E00E94770C60E08DE00E945806BE
:101F000085E992E00E942F0761E080E00E94580678
:101F10008FEA92E00E942F0761E088E00E94580655
:101F20006AE070E080916005909161050E94F6067C
:101F300061E08DE00E9458068FED0E949C0661E0F2
:101F40008EE00E94580686E593E067CF60E080E06F
:101F50000E94580687EB92E00E942F07809175053A
:101F600060E081112AC088E00E94580662E070E0BB
:101F700080915E0590915F050E94F60660E08DE01D
:101F80000E94580685E992E00E942F0761E080E0F8
:101F90000E94580683EC92E00E942F0780917505FD
:101FA00061E0811112C088E00E9458066AE070E08A
:101FB00080915C0590915D05B9CF88E00E9458063C
:101FC0008FEB92E00E942F07D9CF88E00E9458063D
:101FD0008FEB92E00E942F07ABCF60E080E00E9481
:101FE00058068BEC92E00E942F078091750560E007
:101FF000811132C086E00E94580662E070E0809154
:102000005A0590915B050E94F60660E08DE00E9403
:10201000580685E992E00E942F0761E080E00E9467
:1020200058068BEC92E00E942F078091750561E0C5
:1020300081111AC086E00E9458066AE070E0809123
:102040005805909159050E94F60661E08DE00E94C6
:10205000580681ED92E0E1CE86E00E9458068FEBB3
:1020600092E00E942F07D1CF86E00E9458068FEBA6
:1020700092E00E942F07E9CF60E080E00E945806BE
:1020800085ED92E00E942F0760E087E00E945806ED
:1020900060915005709151058091520590915305C2
:1020A00041E050E00E94770C60E08BE00E9458060F
:1020B00088E093E00E942F0760E08DE00E945806C0
:1020C0008FED0E949C0661E080E00E9458068BED37
:1020D00092E00E942F0761E087E00E94580660911D
:1020E0004C0570914D0580914E0590914F0541E052
:1020F00050E00E94770C61E08BE00E94580681EE70
:1021000092E08BCE60E080E00E94580686EE92E07E
:102110000E942F0760E08AE00E94580660917A05CD
:1021200070917B0580917C0590917D0542E050E0A7
:102130000E94770C60E08FE00E94580682E194E0F4
:102140000E942F0761E080E00E94580680EF92E035
:102150000E942F0761E08AE00E9458066091760590
:1021600070917705809178059091790542E050E073
:102170000E94770C54CE60E080E00E9458068AEFFF
:1021800092E00E942F078091740560E08A30D1F4BC
:102190008BE00E94580685E093E00E942F0761E0E3
:1021A00080E00E9458068AE093E00E942F07809109
:1021B000730561E0823061F48BE00E94580685E18E
:1021C00093E02BCE8BE00E9458068FEB92E0E5CF98
:1021D0008BE00E94580689E193E01FCE60E080E02A
:1021E0000E9458068DE193E00E942F0780917505AB
:1021F00060E0811122C088E00E9458066AE070E029
:1022000080914A0590914B050E94F60660E08CE0B3
:102210000E94580685E293E00E942F0761E080E06B
:102220000E9458068AE293E00E942F0761E088E04E
:102230000E9458068FEB92E0F0CD88E00E9458068D
:102240008FEB92E00E942F07E1CF60E080E00E94D8
:10225000580682E393E00E942F0761E081E00E942C
:1022600058068EE393E00E942F0787E00E94D10179
:10227000892B09F0D4CD80910E018A3009F0CFCDA1
:102280008091100190911101181619060CF0C7CD1C
:1022900088519C4F90931101809310019093870671
:1022A000809386068DE080930F01B9CD60E080E0D9
:1022B0000E9458068CE493E00E942F0761E081E0C1
:1022C0000E9458068EE393E00E942F0787E00E9449
:1022D000D101892B09F0A3CD80910E018B3009F03B
:1022E0009ECD80ED97E09093110180931001909323
:1022F00087068093860693CD60E080E00E945806B2
:1023000088E593E00E942F0761E081E00E94580673
:102310008EE393E00E942F0787E00E94D101892B72
:1023200009F07DCD80910E018C3009F078CD88EBDD
:102330009BE0909311018093100171CD0E948C0A53
:102340006ECD0E948B068EE02BCD0E948B0681E025
:1023500027CDEF92FF920F931F93CF93DF93CDB7CB
:10236000DEB7C958D1090FB6F894DEBF0FBECDBF96
:102370008091220190912301A0912401B091250127
:10238000CA57DF4F88839983AA83BB83C658D0403E
:10239000CE018A579F4F0E948D008E010F571F4F0D
:1023A00092E7F801908395E0918391E7928397E11A
:1023B0009383848345E050E0B8018DE397E00E9469
:1023C0009B0062E370E080E090E00E948902CE0111
:1023D00001967C018DE397E00E940205181619060C
:1023E0005CF40E151F0541F08DE397E00E941A057D
:1023F000F70181937F01EECF898590E0982F8827A0
:102400002A85820F911D90936D0580936C056B85D5
:1024100070E090E080E00E94D02520E030E040EACB
:1024200050E40E94872620E030E040E85BE30E9411
:102430008726609368057093690580936A05909379
:102440006B058C85FAE08F9FC001112434E09595CF
:1024500087953A95E1F790936705809366056D85BA
:1024600070E090E080E00E94D02520E030E040EA7B
:1024700050E40E94872620E030E040E85BE30E94C1
:10248000872660936205709363058093640590933B
:1024900065058E858852990B909361058093600540
:1024A0006F8570E090E080E00E94D02520E030E071
:1024B00040EA50E40E94872620E030E040E85BE3F9
:1024C0000E9487260E949A2570935F0560935E059F
:1024D00088898852990B90935D0580935C05698982
:1024E00070E090E080E00E94D02520E030E040EAFB
:1024F00050E40E94872620E030E040E85BE30E9441
:1025000087260E949A2570935B0560935A058A89F5
:1025100090E090935905809358056B8970E090E0A6
:1025200080E00E94D02520E030E040E251E40E94AB
:102530002825609354057093550580935605909314
:1025400057056C8970E090E080E00E94D22520E081
:1025500030E440E853E40E9487262CEE31E143E862
:1025600052E40E9428256093500570935105809392
:102570005205909353058D898054990B20E5289F2F
:10258000B001299F700D112477FF02C061507F4F69
:10259000672F770F770B072E000C880B990B0E9483
:1025A000D22560934C0570934D0580934E05909312
:1025B0004F058E8990E090934B0580934A0582E009
:1025C0008093750586E00E94D101892B91F480915A
:1025D0000E01815080930E010E948B0666E970E027
:1025E00080E090E00E94890286E00E94D101892B60
:1025F000D9F385E00E94D101892B91F480910E01DD
:102600008F5F80930E010E948B0666E970E080E088
:1026100090E00E94890285E00E94D101892BD9F3C4
:10262000E0910E01E23108F057C0F0E0E65EFC4EAA
:102630000C942F272C1330137A13C11303144A144C
:102640009914DF1418154B158215B315D9150416F6
:10265000FB150416FE1502168CE080930E013CC09B
:1026600060E080E00E94580688E792E00E942F0711
:1026700060E08CE00E9458068EE792E00E942F07EF
:1026800060E086E00E9458066AE070E080916C0588
:1026900090916D050E94F60661E080E00E94580668
:1026A00082E892E00E942F0761E086E00E945806CF
:1026B000609154057091550580915605909157058C
:1026C00042E050E00E94770C61E08CE00E945806E6
:1026D00088E892E00E942F07C757DF4F0FB6F894A3
:1026E000DEBF0FBECDBFDF91CF911F910F91FF9045
:1026F000EF90089560E080E00E9458068DE892E037
:102700000E942F0760E088E00E94580660916805EB
:102710007091690580916A0590916B0542E050E0E7
:102720000E94770C60E08DE00E94580685E992E0F7
:102730000E942F0761E080E00E94580689E992E03C
:102740000E942F0761E088E00E9458066AE070E06E
:1027500080916605909167050E94F6068091660556
:102760009091670561E00A9734F489E00E94580669
:1027700081EA92E0AFCF8DE00E94580685EA92E0B0
:10278000A9CF60E080E00E94580687EA92E00E94AC
:102790002F0760E088E00E94580660916205709102
:1027A0006305809164059091650542E050E00E94C8
:1027B000770C60E08DE00E94580685E992E00E9467
:1027C0002F0761E080E00E9458068FEA92E00E94A5
:1027D0002F0761E088E00E9458066AE070E080916F
:1027E0006005909161050E94F60661E08DE00E940F
:1027F00058068FED0E949C0661E08EE00E9458060C
:1028000086E593E067CF60E080E00E94580687EBA2
:1028100092E00E942F078091750560E081112AC027
:1028200088E00E94580662E070E080915E05909119
:102830005F050E94F60660E08DE00E94580685E97B
:1028400092E00E942F0761E080E00E94580683EC2E
:1028500092E00E942F078091750561E0811112C0FE
:1028600088E00E9458066AE070E080915C059091D3
:102870005D05B9CF88E00E9458068FEB92E00E9478
:102880002F07D9CF88E00E9458068FEB92E00E9474
:102890002F07ABCF60E080E00E9458068BEC92E0FF
:1028A0000E942F078091750560E0811132C086E09B
:1028B0000E94580662E070E080915A0590915B0595
:1028C0000E94F60660E08DE00E94580685E992E0DD
:1028D0000E942F0761E080E00E9458068BEC92E096
:1028E0000E942F078091750561E081111AC086E072
:1028F0000E9458066AE070E0809158059091590551
:102900000E94F60661E08DE00E94580681ED92E09B
:10291000E1CE86E00E9458068FEB92E00E942F07DE
:10292000D1CF86E00E9458068FEB92E00E942F07DD
:10293000E9CF60E080E00E94580685ED92E00E94B9
:102940002F0760E087E00E94580660915005709163
:102950005105809152059091530541E050E00E944D
:10296000770C60E08BE00E94580688E093E00E94BC
:102970002F0760E08DE00E9458068FED0E949C06B4
:1029800061E080E00E9458068BED92E00E942F07E4
:1029900061E087E00E94580660914C0570914D05FA
:1029A00080914E0590914F0541E050E00E94770CD8
:1029B00061E08BE00E94580681EE92E08BCE60E0F1
:1029C00080E00E94580686EE92E00E942F0760E0A9
:1029D0008AE00E94580660917A0570917B0580918B
:1029E0007C0590917D0542E050E00E94770C60E00C
:1029F0008FE00E94580682E194E00E942F0761E078
:102A000080E00E94580680EF92E00E942F0761E06C
:102A10008AE00E9458066091760570917705809152
:102A200078059091790542E050E00E94770C54CEF1
:102A300060E080E00E9458068AEF92E00E942F0733
:102A40008091740560E08A30D1F48BE00E945806D2
:102A500085E093E00E942F0761E080E00E94580625
:102A60008AE093E00E942F078091730561E0823035
:102A700061F48BE00E94580685E193E02BCE8BE059
:102A80000E9458068FEB92E0E5CF8BE00E9458063B
:102A900089E193E01FCE60E080E00E9458068DE15E
:102AA00093E00E942F078091750560E0811122C09C
:102AB00088E00E9458066AE070E080914A05909193
:102AC0004B050E94F60660E08CE00E94580685E205
:102AD00093E00E942F0761E080E00E9458068AE29E
:102AE00093E00E942F0761E088E00E9458068FEB78
:102AF00092E0F0CD88E00E9458068FEB92E00E94B1
:102B00002F07E1CF60E080E00E94580682E393E067
:102B10000E942F0761E081E00E9458068EE393E057
:102B20000E942F0787E00E94D101892B09F0D4CDA4
:102B300080910E018A3009F0CFCD809110019091E3
:102B40001101181619060CF0C7CD88519C4F9093AF
:102B500011018093100190938706809386068DE083
:102B600080930F01B9CD60E080E00E9458068CE4AC
:102B700093E00E942F0761E081E00E9458068EE3F7
:102B800093E00E942F0787E00E94D101892B09F072
:102B9000A3CD80910E018B3009F09ECD80ED97E0A2
:102BA000909311018093100190938706809386067D
:102BB00093CD60E080E00E94580688E593E00E9493
:102BC0002F0761E081E00E9458068EE393E00E94A7
:102BD0002F0787E00E94D101892B09F07DCD8091DC
:102BE0000E018C3009F078CD88EB9BE090931101B9
:102BF0008093100171CD0E948C0A6ECD0E948B06CD
:102C00008EE02BCD0E948B0681E027CDEF92FF92C4
:102C10000F931F93CF93DF93CDB7DEB7C958D10978
:102C20000FB6F894DEBF0FBECDBF80912601909104
:102C30002701A0912801B0912901CA57DF4F88834D
:102C40009983AA83BB83C658D040CE018A579F4F31
:102C50000E948D008E010F571F4F92E7F80190835D
:102C600095E0918391E7928391E19383848345E09A
:102C700050E0B8018DE397E00E949B0062E370E0B2
:102C800080E090E00E948902CE0101967C018DE3F4
:102C900097E00E940205181619065CF40E151F0530
:102CA00041F08DE397E00E941A05F70181937F01BF
:102CB000EECF8A8590E0982F88272B85820F911D73
:102CC00090936D0580936C056C8570E090E080E0DA
:102CD0000E94D02520E030E040EA50E40E948726A0
:102CE00020E030E040E85BE30E94872660936805BF
:102CF0007093690580936A0590936B058D85FAE062
:102D00008F9FC001112434E0959587953A95E1F79E
:102D100090936705809366056E8570E090E080E093
:102D20000E94D02520E030E040EA50E40E9487264F
:102D300020E030E040E85BE30E9487266093620574
:102D40007093630580936405909365058F85885221
:102D5000990B90936105809360056A8970E090E01B
:102D600080E00E94D02520E030E040EA50E40E945C
:102D7000872620E030E040E85BE30E9487260E943F
:102D80009A2570935F0560935E058B898852990B35
:102D900090935D0580935C056C8970E090E080E025
:102DA0000E94D02520E030E040EA50E40E948726CF
:102DB00020E030E040E85BE30E9487260E949A25ED
:102DC00070935B0560935A058D8990E09093590547
:102DD000809358056E8970E090E080E00E94D025D5
:102DE00020E030E040E251E40E9428256093540541
:102DF0007093550580935605909357056F8970E041
:102E000090E080E00E94D22520E030E440E853E4E6
:102E10000E9487262CEE31E143E852E40E942825E7
:102E2000609350057093510580935205909353051C
:102E3000888D8054990B20E5289FB001299F700D43
:102E4000112477FF02C061507F4F672F770F770BF8
:102E5000072E000C880B990B0E94D22560934C051D
:102E600070934D0580934E0590934F05898D90E0AA
:102E700090934B0580934A0581E08093750586E029
:102E80000E94D101892B91F480910E018150809391
:102E90000E010E948B0666E970E080E090E00E94DF
:102EA000890286E00E94D101892BD9F385E00E9436
:102EB000D101892B91F480910E018F5F80930E01D7
:102EC0000E948B0666E970E080E090E00E94890233
:102ED00085E00E94D101892BD9F3E0910E01E23106
:102EE00008F057C0F0E0E958F84E0C942F278917E6
:102EF0008D17D7171E186018A718F6183C197519E2
:102F0000A819DF19101A361A611A581A611A5B1AB1
:102F10005F1A8CE080930E013CC060E080E00E946C
:102F2000580688E792E00E942F0760E08CE00E943C
:102F300058068EE792E00E942F0760E086E00E942C
:102F400058066AE070E080916C0590916D050E94D2
:102F5000F60661E080E00E94580682E892E00E9456
:102F60002F0761E086E00E94580660915405709139
:102F70005505809156059091570542E050E00E941A
:102F8000770C61E08CE00E94580688E892E00E948D
:102F90002F07C757DF4F0FB6F894DEBF0FBECDBF68
:102FA000DF91CF911F910F91FF90EF90089560E016
:102FB00080E00E9458068DE892E00E942F0760E0B2
:102FC00088E00E94580660916805709169058091BB
:102FD0006A0590916B0542E050E00E94770C60E03A
:102FE0008DE00E94580685E992E00E942F0761E07B
:102FF00080E00E94580689E992E00E942F0761E074
:1030000088E00E9458066AE070E080916605909121
:1030100067050E94F606809166059091670561E05C
:103020000A9734F489E00E94580681EA92E0AFCF13
:103030008DE00E94580685EA92E0A9CF60E080E02A
:103040000E94580687EA92E00E942F0760E088E01D
:103050000E94580660916205709163058091640535
:103060009091650542E050E00E94770C60E08DE0B1
:103070000E94580685E992E00E942F0761E080E0F7
:103080000E9458068FEA92E00E942F0761E088E0D4
:103090000E9458066AE070E0809160059091610599
:1030A0000E94F60661E08DE00E9458068FED0E94B6
:1030B0009C0661E08EE00E94580686E593E067CFAB
:1030C00060E080E00E94580687EB92E00E942F07A4
:1030D0008091750560E081112AC088E00E94580641
:1030E00062E070E080915E0590915F050E94F606B7
:1030F00060E08DE00E94580685E992E00E942F076B
:1031000061E080E00E94580683EC92E00E942F0765
:103110008091750561E0811112C088E00E94580617
:103120006AE070E080915C0590915D05B9CF88E020
:103130000E9458068FEB92E00E942F07D9CF88E0BB
:103140000E9458068FEB92E00E942F07ABCF60E001
:1031500080E00E9458068BEC92E00E942F0780913D
:10316000750560E0811132C086E00E94580662E079
:1031700070E080915A0590915B050E94F60660E030
:103180008DE00E94580685E992E00E942F0761E0D9
:1031900080E00E9458068BEC92E00E942F078091FD
:1031A000750561E081111AC086E00E9458066AE048
:1031B00070E080915805909159050E94F60661E0F3
:1031C0008DE00E94580681ED92E0E1CE86E00E94FB
:1031D00058068FEB92E00E942F07D1CF86E00E9425
:1031E00058068FEB92E00E942F07E9CF60E080E065
:1031F0000E94580685ED92E00E942F0760E087E06C
:103200000E945806609150057091510580915205B9
:103210009091530541E050E00E94770C60E08BE014
:103220000E94580688E093E00E942F0760E08DE03E
:103230000E9458068FED0E949C0661E080E00E948B
:1032400058068BED92E00E942F0761E087E00E9414
:10325000580660914C0570914D0580914E059091F6
:103260004F0541E050E00E94770C61E08BE00E9446
:10327000580681EE92E08BCE60E080E00E94580616
:1032800086EE92E00E942F0760E08AE00E945806D6
:1032900060917A0570917B0580917C0590917D0508
:1032A00042E050E00E94770C60E08FE00E945806F8
:1032B00082E194E00E942F0761E080E00E945806BE
:1032C00080EF92E00E942F0761E08AE00E9458069A
:1032D00060917605709177058091780590917905D8
:1032E00042E050E00E94770C54CE60E080E00E9403
:1032F00058068AEF92E00E942F078091740560E0E3
:103300008A30D1F48BE00E94580685E093E00E9459
:103310002F0761E080E00E9458068AE093E00E9457
:103320002F078091730561E0823061F48BE00E9489
:10333000580685E193E02BCE8BE00E9458068FEB78
:1033400092E0E5CF8BE00E94580689E193E01FCE22
:1033500060E080E00E9458068DE193E00E942F0714
:103360008091750560E0811122C088E00E945806B6
:103370006AE070E080914A0590914B050E94F60644
:1033800060E08CE00E94580685E293E00E942F07DF
:1033900061E080E00E9458068AE293E00E942F07D5
:1033A00061E088E00E9458068FEB92E0F0CD88E063
:1033B0000E9458068FEB92E00E942F07E1CF60E059
:1033C00080E00E94580682E393E00E942F0761E0AC
:1033D00081E00E9458068EE393E00E942F0787E069
:1033E0000E94D101892B09F0D4CD80910E018A3041
:1033F00009F0CFCD80911001909111011816190696
:103400000CF0C7CD88519C4F90931101809310010F
:1034100090938706809386068DE080930F01B9CD47
:1034200060E080E00E9458068CE493E00E942F0741
:1034300061E081E00E9458068EE393E00E942F072E
:1034400087E00E94D101892B09F0A3CD80910E0164
:103450008B3009F09ECD80ED97E090931101809321
:103460001001909387068093860693CD60E080E0FC
:103470000E94580688E593E00E942F0761E081E0F2
:103480000E9458068EE393E00E942F0787E00E9477
:10349000D101892B09F07DCD80910E018C3009F08E
:1034A00078CD88EB9BE0909311018093100171CD52
:1034B0000E948C0A6ECD0E948B068EE02BCD0E945E
:1034C0008B0681E027CD85ED8093BC0080914A0674
:1034D00090914B06A0914C06B0914D060796A11D08
:1034E000B11D23E0B695A795979587952A95D1F7B5
:1034F0002091BC0024FD03C010924806089540911D
:103500004A0650914B0660914C0670914D06452B32
:10351000462B472B69F30097A105B10541F025E340
:103520002A95F1F700000197A109B109E1CF809137
:1035300049060C9401031F920F920FB60F921124AB
:103540002F933F934F935F936F937F938F939F93AB
:10355000AF93BF93EF93FF9388E896E00E94190121
:10356000FF91EF91BF91AF919F918F917F916F915B
:103570005F914F913F912F910F900FBE0F901F9031
:1035800018951F920F920FB60F9211242F938F93BD
:103590009F93EF93FF93E0919806F09199068081B5
:1035A000E0919E06F0919F0682FD1BC09081809164
:1035B000A1068F5F8F732091A206821741F0E091E0
:1035C000A106F0E0E857F94F958F8093A106FF918F
:1035D000EF919F918F912F910F900FBE0F901F90A1
:1035E00018958081F4CF1F920F920FB60F9211247D
:1035F0002F933F938F939F93AF93BF9380917106C7
:1036000090917206A0917306B09174063091700685
:1036100023E0230F2D3758F50196A11DB11D2093EE
:1036200070068093710690937206A0937306B09310
:1036300074068091750690917606A0917706B091F8
:1036400078060196A11DB11D8093750690937606AC
:10365000A0937706B0937806BF91AF919F918F9119
:103660003F912F910F900FBE0F901F90189526E855
:10367000230F0296A11DB11DD2CF1F920F920FB63C
:103680000F9211242F933F934F935F936F937F93E8
:103690008F939F93AF93BF93EF93FF938091B90064
:1036A000887F803609F44AC0F0F5883209F4A7C053
:1036B00018F5803109F49BC0B8F4882309F4F9C0E7
:1036C000883009F494C0FF91EF91BF91AF919F9121
:1036D0008F917F916F915F914F913F912F910F90BB
:1036E0000FBE0F901F901895883109F488C0803262
:1036F00051F78093460614C0803409F49DC040F40D
:103700008033B9F38833F9F68093460685ECB0C070
:10371000803509F485C0883509F496C0883499F657
:103720000E94631AD0CF883909F48CC038F58837E5
:1037300029F050F4883611F0803729F683E0809321
:1037400048061092210657C0883809F47BC080399A
:1037500019F0803809F0B7CF80912106803208F047
:1037600071C0E091210681E08E0F80932106809147
:10377000BB00F0E0EF5FF94F80833DC0803B39F044
:10378000E0F4803A09F479C0883A09F09CCF84E0EB
:1037900080934806109200061092FF05E0917B0688
:1037A000F0917C0609958091FF0581110FC081E0A1
:1037B0008093FF051092DF0509C0803C09F4A6CF75
:1037C000883C09F4A3CF883B09F07DCFE091000647
:1037D00081E08E0F80930006F0E0E152FA4F808185
:1037E0008093BB00909100068091FF0529C08091D5
:1037F00023068093BB0085EC8093BC0064CF90913E
:10380000450680914406981758F5E091450681E0F9
:103810008E0F80934506F0E0EC5DF94F8081E9CF93
:10382000E091450681E08E0F809345068091BB00B4
:10383000F0E0EC5DF94F808390914506809144065D
:103840009817C8F285E8D8CFE091450681E08E0F41
:10385000809345068091BB00F0E0EC5DF94F8083DA
:103860008091470681115CCF81E08093220684EA33
:103870008093BC001092480626CF85EC8093BC0054
:103880001092480680912106803230F4E0912106A2
:10389000F0E0EF5FF94F10826091210670E0E09157
:1038A0007906F0917A0681E096E00995109221065A
:1038B0000ACF1092460634CF1F920F920FB60F9286
:1038C00011242F933F934F935F936F937F938F9325
:1038D0009F93AF93BF93EF93FF93E0918306F09193
:1038E0008406309749F0A685B7858585968D91FF2A
:1038F00014C09C918923A1F4FF91EF91BF91AF91E6
:103900009F918F917F916F915F914F913F912F91F7
:103910000F900FBE0F901F9018959C91892361F70F
:10392000A389B4899C918589809589238C93868904
:1039300097890197F1F7608D718DA685B7855585BB
:1039400038E020E0CB010197F1F7822F90E09595C8
:103950008795282F4C91452309F02068315091F725
:10396000868D81FD20958091820690E001968F736F
:10397000992730918106381799F0A0918206B0E01E
:10398000A258BA4F2C9380938206828D938D019713
:10399000F1F7A389B4898C919589892B8C93ACCF4D
:1039A000868D8160868FF1CF10928B0610928A06E9
:1039B00088EE93E0A0E0B0E080938C0690938D06B3
:1039C000A0938E06B0938F0626E331E030938906EC
:1039D0002093880625EC30E03093950620939406DA
:1039E00024EC30E0309397062093960620EC30E0EC
:1039F000309399062093980621EC30E030939B0693
:103A000020939A0622EC30E030939D0620939C068A
:103A100026EC30E030939F0620939E061092A1067C
:103A20001092A2061092A3061092A40610922807E4
:103A3000109227078093290790932A07A0932B07BA
:103A4000B0932C0728E431E0309326072093250714
:103A50001092400710923F078093410790934207CE
:103A6000A0934307B093440786E691E090933E0706
:103A700080933D07109254071092530710925607F7
:103A800010925507109258071092570710925A0734
:103A90001092590760915B076E7F6D7F60935B07A3
:103AA0006695617081E068278AE00E94FA0161E012
:103AB0008AE00E942802E8EBF0E0E491E0934D07F1
:103AC000E4EAF0E0E491F0E0EE0FFF1FE057FF4F73
:103AD0008591949190934F0780934E0760E08BE01F
:103AE0000E94280280915B0781FD04C061E08BE0A9
:103AF0000E94FA018BE080934907E9EBF0E0E49142
:103B0000E0934A07E5EAF0E0E491F0E0EE0FFF1FF2
:103B1000EA57FF4F8591949190934C0780934B0700
:103B200010923407109233078AE591E090933207A0
:103B30008093310787E28093350780E180933A07CD
:103B400082E080933B0710923C070895CF93DF9368
:103B5000CDB7DEB7C059D1090FB6F894DEBF0FBE9E
:103B6000CDBF789484B5826084BD84B5816084BD06
:103B700085B5826085BD85B5816085BD80916E000B
:103B8000816080936E00109281008091810082603C
:103B90008093810080918100816080938100809179
:103BA00080008160809380008091B1008460809368
:103BB000B1008091B00081608093B00080917A0064
:103BC000846080937A0080917A00826080937A008A
:103BD00080917A00816080937A0080917A00806879
:103BE00080937A001092C1001092800610927F0696
:103BF00010927E0610927D060E94E30289E990E011
:103C000090937C0680937B068AE990E090937A06F5
:103C1000809379061092360780913B07823018F026
:103C200098E0909336078093390762E370E080E074
:103C300090E00E94890260913C0781E397E00E9436
:103C4000A70368EE73E080E090E00E94890260E3E1
:103C500081E397E00E9428060BE416E4C80101976F
:103C6000F1F760E381E397E00E942806C80101971D
:103C7000F1F760E381E397E00E94280683E592E094
:103C80000197F1F760E281E397E00E9428066091D6
:103C90003607606240E081E397E00E94410684E0DD
:103CA0008093370740E06CE081E397E00E94410693
:103CB0000E948B0612E01093380740E066E081E333
:103CC00097E00E94410640E062E081E397E00E94B5
:103CD00041068BE39FE10197F1F788E080933C0771
:103CE00060E081E397E00E94A703E0919806F091DD
:103CF00099061083E0919406F09195061082E09168
:103D00009606F091970680E180831092A006E091DC
:103D10009C06F0919D0686E08083E0919A06F091E2
:103D20009B06808180618083E0919A06F0919B06DA
:103D3000808188608083E0919A06F0919B06808163
:103D400080688083E0919A06F0919B0680818F7D48
:103D5000808362E085E00E94280262E086E00E94A3
:103D6000280262E087E00E94280261E08DE00E9464
:103D7000280261E08AE00E94280260E08AE00E9456
:103D8000FA0166E470E080E090E00E94890261E060
:103D90008AE00E94FA0168E770E080E090E00E940B
:103DA00089021092580710925707109256071092E6
:103DB000550710925407109253078DE791E09093A6
:103DC0005A078093590790914907963108F047C0E8
:103DD0002DEA30E030935407209353072BE731E06E
:103DE000309356072093550724E131E0309358076C
:103DF000209357072091680084E0983048F031E024
:103E00009E3008F430E081E001C0880F3A95EAF76F
:103E1000822B809368002DE630E0983050F02BE63E
:103E200030E09E3030F02CE630E0963110F030E09B
:103E300020E03093510720935007292F30E098302D
:103E400008F071C081E001C0880F9A95EAF780936D
:103E500052078091590790915A070197F1F7809185
:103E6000570790915807892B49F1E0918306F0910B
:103E7000840627E0ED33F20709F1309739F0A38982
:103E8000B4899C918589809589238C9380915B0767
:103E90008E7F80935B0710928206109281068DE3DD
:103EA00097E09093840680938306E0915007F09109
:103EB0005107808190915207892B808344E050E024
:103EC0006AE071E08DE397E00E949B0068EC70E08F
:103ED00080E090E00E94890245E050E065E071E0FA
:103EE0008DE397E00E949B0062E370E080E090E049
:103EF0000E9489028E010F5F1F4F7E0181E2E80E52
:103F0000F11C8DE397E00E94020518161906C4F40F
:103F1000E016F106A9F08DE397E00E941A05D8019A
:103F20008D938D01EECF9E3040F42850310981E011
:103F300001C0880F2A95EAF78ACF2E503109F7CFB2
:103F400062E370E080E090E00E9489020E94310705
:103F50000E94310760E082E00E94580684E693E008
:103F60000E942F0761E086E00E94580681E793E0F7
:103F70000E942F0764EF71E080E090E00E948902C8
:103F80000E948B0660E080E00E94580686E793E07E
:103F90000E942F0761E080E00E94580687E893E0C6
:103FA0000E942F0780912A0190912B01A0912C0152
:103FB000B0912D01C657DF4F88839983AA83BB83B5
:103FC000CA58D0408E010F571F4F80902E0170901D
:103FD0002F016090300150903101482CC257DF4FC3
:103FE0007882CE58D040C157DF4F6882CF58D0403A
:103FF000C057DF4F5882C059D04082E7C82E95E0A5
:10400000992EDD24D3948091100190911101019794
:1040100021F40E943E050E94A91180911001909107
:104020001101029721F40E943E050E94061680911C
:10403000100190911101039721F40E943E050E9406
:1040400006168091100190911101049721F40E94AD
:104050003E050E944C0D8091100190911101059731
:1040600021F40E943E050E944C0D80911001909118
:104070001101069721F40E943E050E944C0D80918B
:10408000100190911101079721F40E943E050E94B2
:104090004C0D8091100190911101089721F40E941C
:1040A0003E050E944C0D80911001909111010997DD
:1040B00021F40E943E050E944C0D809110019091C8
:1040C00011010A9721F40E943E050E944C0D809137
:1040D0001001909111010B9721F40E943E050E945E
:1040E000A91180911001909111010C9721F40E9467
:1040F0003E050E94A91180911001909111010D9728
:1041000021F40E943E050E940616809110019091B4
:1041100011010E9721F40E943E050E94A911809181
:104120001001909111010F9721F40E943E050E9409
:104130004C0D8091100190911101409721F40E9443
:104140003E050E94A91180911001909111014197A3
:1041500021F40E943E050E94A911809110019091C6
:104160001101429721F40E943E050E94A9118091FD
:10417000100190911101439721F40E943E050E9485
:1041800006168091100190911101449721F40E942C
:104190003E050E94A911809110019091110145974F
:1041A00021F40E943E050E94061680911001909114
:1041B0001101469721F40E943E050E94A9118091A9
:1041C000100190911101479721F40E943E050E9431
:1041D000A9118091100190911101489721F40E943A
:1041E0003E050E944C0D809110019091110149975C
:1041F00021F40E943E050E94A91180911001909126
:1042000011014A9721F40E943E050E94A911809154
:104210001001909111014B9721F40E943E050E94DC
:104220004C0D80911001909111014C9721F40E9446
:104230003E050E944C0D80911001909111014D9707
:1042400021F40E943E050E94A911809110019091D5
:1042500011014E9721F40E943E050E94A911809100
:104260001001909111014F9721F40E943E050E9488
:10427000A9118091100190911101809721F40E9461
:104280003E050E944C0D8091100190911101819783
:1042900021F40E943E050E944C0D809110019091E6
:1042A0001101829721F40E943E050E944C0D8091DD
:1042B000100190911101839721F40E943E050E9404
:1042C0004C0D2091860630918706809110019091C7
:1042D00011012817390709F0B0C0C657DF4F888190
:1042E0009981AA81BB81CA58D040CA57DF4F8883C1
:1042F0009983AA83BB83C658D040CE018A579F4F6B
:104300000E948D00D801CC9211969C921197E4E7FF
:104310001296EC9312971396DC92139714968C9343
:1043200045E050E0B8018DE397E00E949B0062E316
:1043300070E080E090E00E948902CE0101967C014D
:104340008DE397E00E940205181619065CF4E0164A
:10435000F10641F08DE397E00E941A05D7018D9395
:104360007D01EECFEA84F12CAC84B12C2E84312C6B
:1043700086E00E94D101892B91F480910F01815038
:1043800080930F010E948B0666E970E080E090E068
:104390000E94890286E00E94D101892BD9F385E031
:1043A0000E94D101892B91F480910F018F5F80933E
:1043B0000F010E948B0666E970E080E090E00E94A9
:1043C000890285E00E94D101892BD9F3E0910F0188
:1043D000EF3008F032C0F0E0E051FE4D0C942F2792
:1043E0009724FF210822EB23092425244124482473
:1043F0004F2456245D24642491249524972460E05E
:1044000083E00E94580688E993E00E942F07FAC1D2
:1044100060E083E00E9458068AEA93E00E942F073A
:10442000B7E0EB16F10409F0EDC161E080E00E9415
:10443000580685EB93E00E942F0780911001909120
:104440001101803D974009F0E0C0809185068111FF
:104450000AC00E948B066EE170E080E090E00E944E
:104460008902D092850680918506813009F0A6C127
:10447000F8014082C257DF4F2881CE58D0402183B7
:10448000C157DF4F8881CF58D0408283C057DF4F5C
:104490009881C059D0409383C8010E948D00C98281
:1044A0009A8290E69B8393E09C838D8345E050E065
:1044B000BE016F5F7F4F8DE397E00E949B0062E338
:1044C00070E080E090E00E9489020E948B0660E02C
:1044D00080E00E9458068CE494E00E942F0761E07F
:1044E00080E00E9458068CE594E00E942F0760ED62
:1044F00077E080E090E00E9489020E948B0645E010
:1045000050E0BE016F5F7F4F8DE397E00E949B00FC
:1045100060E080E00E94580688E694E00E942F0741
:1045200061E080E00E94580688E794E00E942F072F
:1045300060ED77E080E090E00E94890245E050E085
:10454000BE016F5F7F4F8DE397E00E949B0061E0AB
:1045500080E00E94580685E894E00E942F0761E001
:1045600080E00E94580683E994E00E942F0768EEDD
:1045700073E080E090E00E94890245E050E0BE01D7
:104580006F5F7F4F8DE397E00E949B0061E080E0CA
:104590000E94580682EA94E00E942F0768EE73E0BA
:1045A00080E090E00E94890261E080E00E9458066D
:1045B00082EB94E00E942F0768EE73E080E090E0C9
:1045C0000E9489020E948B0661E081E00E945806E9
:1045D00083EC94E00E942F0760ED77E080E090E0AC
:1045E0000E94890260E081E00E94580683ED94E019
:1045F0000E942F0761E080E00E94580681EE94E05F
:104600000E942F0782E0809385068091100190918F
:104610001101883B9B4009F0D1C080918506811132
:104620000AC00E948B066EE170E080E090E00E947C
:104630008902D092850680918506813009F0BEC03E
:10464000F8018082718262825382C8010E948D00CB
:10465000C9829A8290E69B8393E09C838D8345E098
:1046600050E0BE016F5F7F4F8DE397E00E949B009B
:1046700062E370E080E090E00E9489020E948B0675
:1046800060E080E00E9458068CE494E00E942F07CE
:1046900061E080E00E94580682EF94E00E942F07BC
:1046A00060ED77E080E090E00E9489020E948B0636
:1046B00045E050E0BE016F5F7F4F8DE397E00E94C1
:1046C0009B0060E080E00E94580688E694E00E942B
:1046D0002F0761E080E00E9458068EEF94E00E9470
:1046E0002F0760ED77E080E090E00E94890245E0CE
:1046F00050E0BE016F5F7F4F8DE397E00E949B000B
:1047000061E080E00E9458068BE095E00E942F0750
:1047100061E080E00E94580689E195E00E942F0741
:1047200068EE73E080E090E00E94890245E050E08E
:10473000BE016F5F7F4F8DE397E00E949B0061E0B9
:1047400080E00E94580688E295E00E942F0768EEFC
:1047500073E080E090E00E94890261E080E00E94C6
:10476000580688E395E00E942F0768EE73E080E02A
:1047700090E00E9489020E948B0661E081E00E9425
:10478000580683EC94E00E942F0760ED77E080E00C
:1047900090E00E94890260E081E00E94580683ED6B
:1047A00094E00E942F0761E080E00E94580681EEAD
:1047B00094E00E942F0782E08093850680E090E0DD
:1047C000892B09F420CC0E940501882309F415CC1B
:1047D0000E94000012CC60E083E00E94580685EC45
:1047E00093E00E942F07E7E0EE16F10409F41DCED6
:1047F000F7E0AF16B10409F418CE27E02216310411
:1048000009F413CE61E085E00E94580683EA93E044
:1048100012CE60E083E00E94580680ED93E00E9493
:104820002F0788E0E816F10439F461E080E00E9487
:1048300058068BED93E0FFCD98E0A916B104A9F3DB
:10484000A8E02A163104F1F6F0CF60E084E00E947F
:1048500058068BEE93E00E942F07BCE0EB16F104A4
:1048600039F461E080E00E94580684EF93E0E3CDE4
:10487000ECE0AE16B104A9F3FCE02F16310411F6FA
:10488000F0CF60E083E00E94580685E094E0BDCD63
:1048900060E086E00E9458068FE094E0B6CD60E0CC
:1048A00087E00E94580684E194E0AFCD60E083E0A9
:1048B0000E94580688E194E0A8CD60E083E00E9461
:1048C000580683E294E0A1CD60E080E00E945806A3
:1048D0008EE294E00E942F0761E080E00E9458067B
:1048E0008EE394E00E942F0787E00E94D101892B7C
:1048F00009F0A3CD80910F018B3009F09ECD8091FE
:10490000860690918706885E93409093110180936C
:10491000100121E120930E01109287061092860665
:104920008CCD8BE080930F0188CD0E948B06D092B6
:104930000F0183CD86E691E090933E0780933D077B
:1049400080918306909184068D53974071F4E09195
:104950005007F091510790818091520780958923EB
:104960008083109284061092830608955058BB27C6
:10497000AA270E94CE240C9448260E943A2638F09A
:104980000E94412620F039F49F3F19F426F40C943C
:1049900037260EF4E095E7FB0C943126E92F0E94B0
:1049A000592658F3BA17620773078407950720F052
:1049B00079F4A6F50C947B260EF4E0950B2EBA2F15
:1049C000A02D0B01B90190010C01CA01A001112415
:1049D000FF27591B99F0593F50F4503E68F11A16C1
:1049E000F040A22F232F342F4427585FF3CF469552
:1049F00037952795A795F0405395C9F77EF41F1674
:104A0000BA0B620B730B840BBAF09150A1F0FF0F3D
:104A1000BB1F661F771F881FC2F70EC0BA0F621F29
:104A2000731F841F48F4879577956795B795F79519
:104A30009E3F08F0B0CF9395880F08F09927EE0FAE
:104A40009795879508950E940D2608F481E00895B2
:104A50000E943C250C9448260E94412658F00E9452
:104A60003A2640F029F45F3F29F00C943126511189
:104A70000C947C260C9437260E94592668F39923BF
:104A8000B1F3552391F3951B550BBB27AA2762174A
:104A90007307840738F09F5F5F4F220F331F441F57
:104AA000AA1FA9F335D00E2E3AF0E0E832D091508B
:104AB0005040E695001CCAF72BD0FE2F29D0660F78
:104AC000771F881FBB1F261737074807AB07B0E8BB
:104AD00009F0BB0B802DBF01FF2793585F4F3AF0C1
:104AE0009E3F510578F00C9431260C947C265F3F54
:104AF000E4F3983ED4F3869577956795B795F79547
:104B00009F5FC9F7880F911D9695879597F908952E
:104B1000E1E0660F771F881FBB1F621773078407CA
:104B2000BA0720F0621B730B840BBA0BEE1F88F7D9
:104B3000E09508950E94A1256894B1110C947C26FB
:104B400008950E94612688F09F5798F0B92F992701
:104B5000B751B0F0E1F0660F771F881F991F1AF068
:104B6000BA95C9F714C0B13091F00E947B26B1E02C
:104B700008950C947B26672F782F8827B85F39F02B
:104B8000B93FCCF3869577956795B395D9F73EF401
:104B900090958095709561957F4F8F4F9F4F0895A9
:104BA000E89409C097FB3EF49095809570956195C7
:104BB0007F4F8F4F9F4F9923A9F0F92F96E9BB277D
:104BC0009395F695879577956795B795F111F8CFF9
:104BD000FAF4BB0F11F460FF1BC06F5F7F4F8F4F64
:104BE0009F4F16C0882311F096E911C0772321F05A
:104BF0009EE8872F762F05C0662371F096E8862FF2
:104C000070E060E02AF09A95660F771F881FDAF748
:104C1000880F9695879597F90895990F0008550F75
:104C2000AA0BE0E8FEEF16161706E807F907C0F032
:104C300012161306E407F50798F0621B730B840B3A
:104C4000950B39F40A2661F0232B242B252B21F414
:104C500008950A2609F4A140A6958FEF811D811DB4
:104C6000089597F99F6780E870E060E008959FEFEE
:104C700080EC089500240A941616170618060906F3
:104C8000089500240A9412161306140605060895C2
:104C9000092E0394000C11F4882352F0BB0F40F44A
:104CA000BF2B11F460FF04C06F5F7F4F8F4F9F4F8A
:104CB000089557FD9058440F551F59F05F3F71F00C
:104CC0004795880F97FB991F61F09F3F79F0879573
:104CD0000895121613061406551FF2CF4695F1DFFC
:104CE00008C0161617061806991FF1CF869571058C
:104CF000610508940895E894BB2766277727CB01C0
:104D000097F908950E940D2608F48FEF08950E94E8
:104D10009A260C9448260E943A2638F00E94412692
:104D200020F0952311F00C9431260C943726112491
:104D30000C947C260E94592670F3959FC1F3950F21
:104D400050E0551F629FF001729FBB27F00DB11D0F
:104D5000639FAA27F00DB11DAA1F649F6627B00D9F
:104D6000A11D661F829F2227B00DA11D621F739F88
:104D7000B00DA11D621F839FA00D611D221F749F96
:104D80003327A00D611D231F849F600D211D822FDD
:104D9000762F6A2F11249F5750409AF0F1F0882304
:104DA0004AF0EE0FFF1FBB1F661F771F881F915031
:104DB0005040A9F79E3F510580F00C9431260C9489
:104DC0007C265F3FE4F3983ED4F38695779567950C
:104DD000B795F795E7959F5FC1F7FE2B880F911D5B
:104DE0009695879597F908950E940D26880B990B43
:104DF000089597FB072E16F4009407D077FD09D08D
:104E00000E94352707FC05D03EF4909581959F4F71
:104E10000895709561957F4F0895A1E21A2EAA1BFF
:104E2000BB1BFD010DC0AA1FBB1FEE1FFF1FA2175A
:104E3000B307E407F50720F0A21BB30BE40BF50B57
:104E4000661F771F881F991F1A9469F760957095E0
:104E5000809590959B01AC01BD01CF010895EE0FA7
:104E6000FF1F0590F491E02D0994AA1BBB1B51E193
:104E700007C0AA1FBB1FA617B70710F0A61BB70BCA
:104E8000881F991F5A95A9F780959095BC01CD016F
:104E9000089510E0C2E6D0E004C0FE010E942F2772
:104EA0002196C336D107C9F7F894FFCF7205710078
:104EB00018720500F099FE04728C100D280072051E
:104EC0007120720571D10000400014005400720579
:104ED000711772057111720574017205600300008B
:104EE00000003B019B00C8008801F900D700EB00DF
:104EF0000000000078034B033B0598004403310396
:104F000022030000000096069B003B05BB02000048
:104F10000000A6049B003B05980002051A058E04BC
:104F200049445F45434D005F004265617420464936
:104F3000004144562031353000504358203135303F
:104F40000042454154204E455700424541542032CD
:104F50003032300042454154203230313900424530
:104F60004154204F4C440042654174204553500049
:104F70005265766F2032303137005265766F2032BD
:104F800030313400504358203136300043423135FF
:104F90003052204F4C4400564152494F2031323557
:104FA000204F4C44005645525A4120313530005371
:104FB000555052412047545220313530004342521F
:104FC0002031353020304C440043422031353052BE
:104FD0000043425220313530204F4C44005355504D
:104FE000524120582031323500435246203135306D
:104FF0004C00424C4144452031323500434252205E
:1050000031353052004D4547412050524F00474501
:105010004E494F20313130006E616E00696E66007E
:105020006F76660052504D203D0052706D00424137
:1050300054203D00564F4C54005450532056203DB0
:1050400000566F6C005450532025203D0020202036
:10505000202500454F542056203D00454F54204305
:10506000203D004941542056203D002D2D2D004962
:1050700041542043203D004D4150203D004B5061A4
:1050800000434B50203D00494E4A203D0020206DFA
:1050900053006F3220564F4C54203D006F32205346
:1050A000544654203D00454E474E20535453203D16
:1050B000002D2D2D20005357544320535453203D91
:1050C000004F4E20004F4646005350454544203D7A
:1050D000004B6D2F680050554D5020203D0023207F
:1050E0004C69686174204454430054656B616E20C0
:1050F000656E746572203E002320486170757320D0
:1051000044544300232052657365742045434D0089
:10511000416E64616C6173204C696D61005465631C
:105120006800546964616B204164612E2E2E2E2E1E
:105130002121004B6F6E656B73692E2E2E2E2E2E45
:105140002E21210053656E736F72204D4150003E39
:10515000204F4B203C0053656E736F7220454F54B7
:10516000003E204572726F72204D494C202837292D
:105170000053656E736F72204543540053656E7320
:105180006F7220545053003E204572726F72204D52
:10519000494C2028382900496E6A6563746F720093
:1051A0003E204572726F72204D494C2028313229C1
:1051B0000053656E736F72204F32004941435600B1
:1051C0004543550053656E736F7220434B50005337
:1051D000656E736F7220424153004B656D62616C66
:1051E00069206B65204D656E750054656B616E209E
:1051F000456E746572203E0050726F7365732E2E7B
:105200002E2E2E2E212121004861707573204454CA
:1052100043202E005361626172205961612E2E2E4F
:1052200021212100486170757320445443202E2EA3
:1052300000486170757320445443202E2E2E004880
:105240006170757320445443202E2E2E2E00486129
:1052500070757320445443202E2E2E2E2E0048614C
:1052600070757320445443202E2E2E2E2E2E005364
:10527000656C657361692E2E2E2E21212121006F10
:1052800066662F6F6E207363616E65720064616E77
:10529000206B756E6369206B6F6E74616B00526575
:1052A0007365742045434D202E005265736574204C
:1052B00045434D202E2E0052657365742045434DA5
:1052C000202E2E2E0052657365742045434D202EEE
:1052D0002E2E2E0052657365742045434D202E2ED0
:1052E0002E2E2E0052657365742045434D202E2EC0
:0652F0002E2E2E2E000000
:107E0000112484B714BE81FFF0D085E080938100F7
:107E100082E08093C00088E18093C10086E0809377
:107E2000C20080E18093C4008EE0C9D0259A86E02C
:107E300020E33CEF91E0309385002093840096BBD3
:107E4000B09BFECF1D9AA8958150A9F7CC24DD24C4
:107E500088248394B5E0AB2EA1E19A2EF3E0BF2EE7
:107E6000A2D0813461F49FD0082FAFD0023811F036
:107E7000013811F484E001C083E08DD089C08234E0
:107E800011F484E103C0853419F485E0A6D080C0E4
:107E9000853579F488D0E82EFF2485D0082F10E0AE
:107EA000102F00270E291F29000F111F8ED06801E7
:107EB0006FC0863521F484E090D080E0DECF843638
:107EC00009F040C070D06FD0082F6DD080E0C81688
:107ED00080E7D80618F4F601B7BEE895C0E0D1E017
:107EE00062D089930C17E1F7F0E0CF16F0E7DF06D8
:107EF00018F0F601B7BEE89568D007B600FCFDCFD4
:107F0000A601A0E0B1E02C9130E011968C91119780
:107F100090E0982F8827822B932B1296FA010C0160
:107F200087BEE89511244E5F5F4FF1E0A038BF0790
:107F300051F7F601A7BEE89507B600FCFDCF97BE46
:107F4000E89526C08437B1F42ED02DD0F82E2BD052
:107F50003CD0F601EF2C8F010F5F1F4F84911BD097
:107F6000EA94F801C1F70894C11CD11CFA94CF0C13
:107F7000D11C0EC0853739F428D08EE10CD085E9AC
:107F80000AD08FE07ACF813511F488E018D01DD067
:107F900080E101D065CF982F8091C00085FFFCCF94
:107FA0009093C60008958091C00087FFFCCF809118
:107FB000C00084FD01C0A8958091C6000895E0E648
:107FC000F0E098E1908380830895EDDF803219F02E
:107FD00088E0F5DFFFCF84E1DECF1F93182FE3DFCA
:107FE0001150E9F7F2DF1F91089580E0E8DFEE27F6
:047FF000FF270994CA
:027FFE00040479
:00000001FF
