:020000040000FA
:100000000C94E0000C9408010C9408010C945C170B
:100010000C945C170C945C170C9408010C94080168
:100020000C9408010C9408010C9408010C9408012C
:100030000C9408010C9408010C9408010C9408011C
:100040000C94F3150C9408010C94C1150C949B1599
:100050000C9408010C9408010C9408010C940801FC
:100060000C943D160C94080100407A10F35A00A03D
:10007000724E18090010A5D4E80000E87648170071
:1000800000E40B54020000CA9A3B000000E1F505B1
:10009000000080969800000040420F000000A086FB
:1000A00001000000102700000000E803000000002D
:1000B0006400000000000A000000000001000000D1
:1000C00000002C76D888DC674F0823DFC1DFAE59EB
:1000D000E1B1B796E5E3E453C63AE651997696E87E
:1000E000E6C28426EB898C9B62ED407C6FFCEFBC02
:1000F0009C9F40F2BAA56FA5F490055A2AF75C932D
:100100006B6CF9676DC11BFCE0E40D47FEF520E662
:10011000B500D0ED902E0300943577050080841E45
:10012000080000204E0A000000C80C333333330FA0
:10013000986E12831141EF8D2114893BE65516CF3D
:10014000FEE6DB18D1844B381BF77C1D901DA4BB49
:10015000E424203284725E228100C9F124ECA1E5FE
:100160003D2700000000240027002A0000000008AE
:10017000000201000003040700000000000000006E
:1001800000000000230026002900000000002500D8
:1001900028002B00040404040404040402020202E4
:1001A000020203030303030301020408102040803A
:1001B000010204081020010204081020D417DB24D7
:1001C00011241FBECFEFD8E0DEBFCDBF26E0A6E4EE
:1001D000B4E001C01D92AB36B207E1F714E0A0E035
:1001E000B1E0EEEDF8E502C005900D92A634B1073E
:1001F000D9F710E0CFEDD0E004C02197FE010E94B6
:10020000562ACE3DD107C9F70E94A6180C94622C3D
:100210000C940000FC019C012C5F3F4F80E0919109
:10022000891BE217F307D9F70895089508950895F3
:10023000AF92BF92CF92DF92EF92FF920F931F93F4
:10024000CF93DF936C017B018B01040F151FEB0132
:100250005E01AE18BF08C017D10759F06991D601E9
:10026000ED91FC910190F081E02DC6010995892B5B
:1002700079F7C501DF91CF911F910F91FF90EF901A
:10028000DF90CF90BF90AF900895FC0144815581DD
:100290006081718183E995E00C941801FC01538D14
:1002A000448D252F30E0842F90E0821B930B541750
:1002B00010F0CF96089501970895FC01918D828DDD
:1002C000981761F0A28DAE0FBF2FB11D5D968C9176
:1002D000928D9F5F9F73928F90E008958FEF9FEFB5
:1002E0000895FC01918D828D981731F0828DE80F71
:1002F000F11D858D90E008958FEF9FEF0895FC012B
:10030000918D228D892F90E0805C9F4F821B9109F7
:100310008F739927089583E995E00E947F0121E07A
:10032000892B09F420E0822F089580E090E0892B4A
:1003300029F00E948B0181110C9400000895FC01AA
:10034000A48DA80FB92FB11DA35ABF4F2C91848D36
:1003500090E001968F739927848FA689B7892C9393
:10036000A089B1898C91837080648C93938D848DE6
:10037000981306C00288F389E02D80818F7D8083E9
:100380000895EF92FF920F931F93CF93DF93EC01A9
:1003900081E0888F9B8D8C8D98131AC0E889F9892C
:1003A000808185FF15C09FB7F894EE89FF8960832F
:1003B000E889F98980818370806480839FBF81E0B0
:1003C00090E0DF91CF911F910F91FF90EF900895F2
:1003D000F62E0B8D10E00F5F1F4F0F731127E02ECD
:1003E0008C8D8E110CC00FB607FCFACFE889F98905
:1003F000808185FFF5CFCE010E949F01F1CFEB8D6B
:10040000EC0FFD2FF11DE35AFF4FF0829FB7F894D8
:100410000B8FEA89FB8980818062CFCFCF93DF93F6
:10042000EC01888D8823B9F0AA89BB89E889F9890C
:100430008C9185FD03C0808186FD0DC00FB607FC41
:10044000F7CF8C9185FFF2CF808185FFEDCFCE0174
:100450000E949F01E9CFDF91CF910895833081F011
:1004600028F4813099F08230A9F008958730A9F0FE
:100470008830C9F08430B1F4809180008F7D03C052
:10048000809180008F7780938000089584B58F7766
:1004900084BD089584B58F7DFBCF8091B0008F77A8
:1004A0008093B00008958091B0008F7DF9CFCF93F5
:1004B000DF93282F30E0F901E459FE4F8491F901D0
:1004C000E855FE4FD491F901EC56FE4FC491CC2370
:1004D000A1F081110E942E02EC2FF0E0EE0FFF1F21
:1004E000E058FE4FA591B491EC91ED2381E090E0AE
:1004F00009F480E0DF91CF91089580E090E0FACF99
:100500001F93CF93DF93282F30E0F901E459FE4F7A
:100510008491F901E855FE4FD491F901EC56FE4F54
:10052000C491CC23A9F0162F81110E942E02EC2F2A
:10053000F0E0EE0FFF1FE657FE4FA591B4918FB785
:10054000F894EC91111108C0D095DE23DC938FBF95
:10055000DF91CF911F910895DE2BF8CFCF93DF93DA
:1005600090E0FC01E855FE4F24918C569E4FFC0113
:1005700084918823C9F090E0880F991FFC01EE59FF
:10058000FE4FA591B491FC01E657FE4FC591D49161
:1005900061110DC09FB7F8948C91209582238C93A4
:1005A0008881282328839FBFDF91CF9108956230EF
:1005B00051F49FB7F8943C91822F809583238C93BC
:1005C000E8812E2BEFCF8FB7F894EC912E2B2C9344
:1005D0008FBFEACF3FB7F8948091520590915305B1
:1005E000A0915405B091550526B5A89B05C02F3F95
:1005F00019F00196A11DB11D3FBFBA2FA92F982F49
:100600008827BC01CD01620F711D811D911D42E043
:10061000660F771F881F991F4A95D1F708958F920B
:100620009F92AF92BF92CF92DF92EF92FF924B01D7
:100630005C010E94EA026B017C010E94EA026C19D3
:100640007D098E099F09683E734081059105A8F3D5
:1006500021E0821A9108A108B10888EEC80E83E053
:10066000D81EE11CF11C81149104A104B10429F7E6
:10067000FF90EF90DF90CF90BF90AF909F908F90C2
:1006800008952FB7F89460914E0570914F058091B1
:100690005005909151052FBF08950F931F930E940D
:1006A000410360939B0570939C0580939D059093F7
:1006B0009E0583E995E00E94710197FF1DC00E948D
:1006C000410300919B0510919C0520919D0530915F
:1006D0009E05601B710B820B930B00919705109187
:1006E00098052091990530919A0560177107820746
:1006F0009307F8F28FEF9FEF1F910F9108950895E0
:100700002091DC04260F3327331F21323105ECF40E
:1007100020912505FC0190E080E0243069F082E022
:100720000895A091DC042191AC0144545B4FA40FC7
:10073000B52FB11D2C930196861798F38091DC0498
:10074000680F6093DC0480E0089581E008951092C2
:10075000250581E0809324051092FF0461E082E189
:100760000E94800261E083E10E948002E9EBF0E0F8
:1007700080818E7F808380818D7F808388E48093D9
:10078000B80085E48093BC000895CF93DF9391E097
:100790009093BB048823B9F0C091B800D091BA00FF
:1007A0008091BC008A7B8093BC0060E082E10E9463
:1007B000800260E083E10E9480020E94A703D09340
:1007C000BA00C093B800DF91CF910895E0915D0524
:1007D00080915C05E81730F4F0E0E556FB4F80812E
:1007E00090E008958FEF9FEF089590915D058091BF
:1007F0005C052FEF3FEF981748F4E92FF0E0E5563E
:10080000FB4F208130E09F5F90935D05C901089503
:1008100080915C0590915D05891B990B0895CF929D
:10082000DF92EF92FF920F931F93CF93DF937C01A0
:10083000CB018A0120912B05222389F0EB016B016A
:10084000C40ED51ECC15DD0569F06991D701ED9177
:10085000FC910190F081E02DC7010995F3CF642F41
:100860000E948003C801DF91CF911F910F91FF90EB
:10087000EF90DF90CF900895CF93DF931F92CDB785
:10088000DEB7698320912B052223F9F020915A05C8
:10089000203258F021E030E0FC013383228390E0E5
:1008A00080E00F90DF91CF91089580915B05E82F54
:1008B000F0E0E45DFA4F998190838F5F80935B0550
:1008C00080935A0581E090E0ECCF61E0CE01019683
:1008D0000E948003F7CFCF92DF92EF92FF920F93A7
:1008E0001F93CF93DF93FC01C48121E020932B055C
:1008F000C0934C0510925B0510925A058385682BB6
:1009000080E396E00E943C04D0915A05D13208F071
:1009100092C00E94EA026B017C0180912505811141
:1009200065C082E08093250581E0809324058FEFE8
:100930008093230510922205D0932105ACE2B5E007
:10094000E1E0F5E080E0D81385C0109200058091C9
:100950000005CC0FC82BC09300058091FF048130A7
:1009600009F07CC01092FF040E94EA026B017C0136
:10097000809100058093BB00809127059091280508
:10098000A0912905B0912A05892B8A2B8B2B99F0F0
:100990000E94EA020091270510912805209129055F
:1009A00030912A056C197D098E099F0906171707D2
:1009B00028073907E0F18091BC0083FDD9CF85EC91
:1009C0008093BC000E94EA026B017C0180912505A6
:1009D000823009F445C0809123058F3F61F18091F9
:1009E0002305803241F18091230525C080912705A0
:1009F00090912805A0912905B0912A05892B8A2B71
:100A00008B2B09F48ACF0E94EA02009127051091EE
:100A100028052091290530912A056C197D098E0938
:100A20009F09061717072807390708F076CF809126
:100A300026050E94C50310925B0510925A0510927C
:100A40002B05DF91CF911F910F91FF90EF90DF90D9
:100A5000CF9008959D9191938F5F75CF85EEB0CF24
:100A60008091270590912805A0912905B0912A052C
:100A7000892B8A2B8B2B09F4A9CF0E94EA020091C3
:100A80002705109128052091290530912A056C1918
:100A90007D098E099F09061717072807390708F0EF
:100AA00095CFC5CF20916005309161052817390792
:100AB00071F490915E0580915F05981741F0E09187
:100AC0005E05F0E0E55AFB4F808190E008958FEFDE
:100AD0009FEF0895EF92FF920F931F93CF93DF93B1
:100AE000DC015C96ED90FC905D97E114F10479F4E3
:100AF00081E090E013969C938E93129790E080E0B3
:100B0000DF91CF911F910F91FF90EF900895519633
:100B1000ED91FC91529750968C915097982F90950B
:100B20000FB75E962C915E97122F127021FD609583
:100B3000F8942081112319F1282B2083E7012197B4
:100B4000F1F728E0462F50E0308160FF1AC0382BC3
:100B50003083E7012197F1F7BA0175956795215028
:100B600089F7112381F08081892380830FBF5C96F0
:100B70008D919C910197F1F781E090E0C1CF2923FD
:100B8000DCCF3923E5CF9081892BEFCF2091600511
:100B9000309161052817390771F480915F05209124
:100BA0005E0590E0805C9F4F821B910960E470E0DD
:100BB0000E94202A089590E080E008952091600529
:100BC0003091610528173907B9F490915E0580913D
:100BD0005F05981789F0E0915E05F0E0E55AFB4F5C
:100BE000808120915E0530E02F5F3F4F2F733327C8
:100BF00020935E0590E008958FEF9FEF089590E0B9
:100C000080E00895EF92FF920F931F93CF93DF93AD
:100C1000CDB7DEB7C958D1090FB6F894DEBF0FBE05
:100C2000CDBF8091140190911501A0911601B09152
:100C30001701CA57DF4F88839983AA83BB83C6589D
:100C4000D040CE018A579F4F0E940A018E010F5754
:100C50001F4F92E7F801908395E0918391E792838B
:100C600097E19383848345E050E0B8018CE396E0FC
:100C70000E94180162E370E080E090E00E940F03A0
:100C8000CE0101967C018CE396E00E94C605181601
:100C900019065CF40E151F0541F08CE396E00E94E6
:100CA000DE05F70181937F01EECF8A8590E0982FD2
:100CB00088272B85820F911D90938C0580938B053F
:100CC0006C8570E090E080E00E94912720E030E0A9
:100CD00040EA50E40E94F22720E030E040E85BE385
:100CE0000E94F22760938705709388058093890599
:100CF00090938A058D85FAE08F9FC001112434E01E
:100D0000959587953A95E1F79093860580938505AB
:100D10006E8570E090E080E00E94912720E030E056
:100D200040EA50E40E94F22720E030E040E85BE334
:100D30000E94F2276093810570938205809383055A
:100D4000909384052F852852330B30938005209390
:100D50007F0560937B0570937C0580937D05909360
:100D60007E0530937A0520937905688970E090E0DC
:100D700080E00E94912720E030E040EA50E40E94A9
:100D8000F22720E030E040E85BE30E94F2270E9477
:100D9000E029709378056093770589898852990BCB
:100DA00090937605809375056A8970E090E080E005
:100DB0000E94912720E030E040EA50E40E94F227B0
:100DC00020E030E040E85BE30E94F2270E94E02947
:100DD00070937405609373058B8990E0909372050E
:100DE000809371056C8970E090E080E00E9491270B
:100DF00020E030E040E251E40E946E2960936D05EE
:100E000070936E0580936F05909370056D8970E007
:100E100090E080E00E94932720E030EC44E853E427
:100E20000E94F2272CEE31E143E852E40E946E2941
:100E30006093690570936A0580936B0590936C05C8
:100E40008E898054990B20E5289FB001299F700D51
:100E5000112477FF02C061507F4F672F770F770B08
:100E6000072E000C880B990B0E9493276093650551
:100E7000709366058093670590936805898D90E06F
:100E80009093640580936305C757DF4F0FB6F894BE
:100E9000DEBF0FBECDBFDF91CF911F910F91FF90AD
:100EA000EF900895EF92FF920F931F93CF93DF93EC
:100EB000CDB7DEB7C958D1090FB6F894DEBF0FBE63
:100EC000CDBF0E9441038091180190911901A0911A
:100ED0001A01B0911B01CA57DF4F88839983AA83F7
:100EE000BB83C658D040CE018A579F4F0E940A014B
:100EF0008E010F571F4F92E7F801908395E0918381
:100F000091E7928391E19383848345E050E0B801B7
:100F10008CE396E00E94180162E370E080E090E0CC
:100F20000E940F03CE0101967C018CE396E00E94A3
:100F3000C605181619065CF40E151F0541F08CE362
:100F400096E00E94DE05F70181937F01EECF8A854E
:100F500090E0982F88272B85820F911D90938C0508
:100F600080938B056C8570E090E080E00E94912773
:100F700020E030E040EA50E40E94F22720E030E038
:100F800040E85BE30E94F227609387057093880531
:100F90008093890590938A058D85FAE08F9FC00123
:100FA000112434E0959587953A95E1F7909386055D
:100FB000809385056E8570E090E080E00E94912727
:100FC00020E030E040EA50E40E94F22720E030E0E8
:100FD00040E85BE30E94F2276093810570938205ED
:100FE00080938305909384058F858852990B909305
:100FF000800580937F05688970E090E080E00E9422
:10100000912720E030E040EA50E40E94F22720E0FF
:1010100030E040E85BE30E94F22760937B05709329
:101020007C0580937D0590937E0589898852990B74
:1010300090937A05809379056A8970E090E080E06A
:101040000E94912720E030E040EA50E40E94F2271D
:1010500020E030E040E85BE30E94F2270E94E029B4
:1010600070937805609377058B898852990B9093DC
:101070007605809375056C8970E090E080E00E94B1
:10108000912720E030E040EA50E40E94F22720E07F
:1010900030E040E85BE30E94F2270E94E029709371
:1010A0007405609373058D8990E090937205809329
:1010B00071056E8970E090E080E00E94912720E049
:1010C00030E040E251E40E946E2960936D05709318
:1010D0006E0580936F05909370056F8970E090E0C6
:1010E00080E00E94932720E030EC44E853E40E9423
:1010F000F2272CEE31E143E852E40E946E2960931E
:10110000690570936A0580936B0590936C05888DD3
:101110008054990B20E5289FB001299F700D112460
:1011200077FF02C061507F4F672F770F770B072E35
:10113000000C880B990B0E949327609365057093B0
:1011400066058093670590936805898D90E090937C
:10115000640580936305C757DF4F0FB6F894DEBF71
:101160000FBECDBFDF91CF911F910F91FF90EF90F8
:101170000895DF92EF92FF920F931F93CF93DF9327
:10118000CDB7DEB7C259D1090FB6F894DEBF0FBE96
:10119000CDBF80911C0190911D01A0911E01B091C5
:1011A0001F01C557DF4F88839983AA83BB83CB5820
:1011B000D040CE0185579F4F0E940A018E010F57E4
:1011C0001F4F92E7D92EF801D08225E0E22EE1826E
:1011D00031E7F32EF28290E29383848345E050E07E
:1011E000B8018CE396E00E9418016AE070E080E0AC
:1011F00090E00E940F038091200190912101A09125
:101200002201B0912301C157DF4F88839983AA83BC
:10121000BB83CF58D040CE0181579F4F0E940A0117
:10122000CA57DF4FD882C658D040C957DF4FE8822F
:10123000C758D040C857DF4FF882C858D04091ED0A
:10124000C757DF4F9883C958D040C657DF4F8883B0
:10125000CA58D04045E050E0BE016A577F4F8CE34A
:1012600096E00E9418016AE070E080E090E00E9441
:101270000F03CE0101967C018CE396E00E94C60527
:10128000181619065CF4E016F10641F08CE396E0BE
:101290000E94DE05F70181937F01EECF698570E042
:1012A00090E080E00E94912720E030E040EA50E4A6
:1012B0000E94F22720E030E040E85BE30E94F22742
:1012C00060935704709358048093590490935A0480
:1012D0006A8570E0660F672F661F770B072E000C7C
:1012E000880B990B0E9493276093530470935404C6
:1012F00080935504909356049C89909352043D89A1
:10130000309351048E89809350044F8940934F0449
:10131000888D80934E04298D20934D0480919205F1
:10132000811114C08A8D80934C0440934B04CE5697
:10133000DF4F0FB6F894DEBF0FBECDBFDF91CF9168
:101340001F910F91FF90EF90DF900895813029F465
:1013500020934C0490934B04EACF8230C9F383303E
:1013600031F78A8D80934C0430934B04E0CFEF9299
:10137000FF920F931F93CF93DF93CDB7DEB7C9587A
:10138000D1090FB6F894DEBF0FBECDBF0E94410356
:101390008091140190911501A0911601B09117014F
:1013A000CA57DF4F88839983AA83BB83C658D0402E
:1013B000CE018A579F4F0E940A018E010F571F4F7F
:1013C00092E7F801908395E0918391E7928397E10A
:1013D0009383848345E050E0B8018CE396E00E945B
:1013E000180162E370E080E090E00E940F03CE01FC
:1013F00001967C018CE396E00E94C605181619063A
:101400005CF40E151F0541F08CE396E00E94DE05AA
:10141000F70181937F01EECF898590E0982F88278F
:101420002A85820F911D90938C0580938B056B8587
:1014300070E090E080E00E94912720E030E040EAF8
:1014400050E40E94F22720E030E040E85BE30E9495
:10145000F2276093870570938805809389059093A0
:101460008A058C85FAE08F9FC001112434E09595A0
:1014700087953A95E1F790938605809385056D856C
:1014800070E090E080E00E94912720E030E040EAA8
:1014900050E40E94F22720E030E040E85BE30E9445
:1014A000F227609381057093820580938305909362
:1014B00084052E852852330B3093800520937F05B9
:1014C00060937B0570937C0580937D0590937E05EA
:1014D00030937A05209379056F8570E090E080E085
:1014E0000E94912720E030E040EA50E40E94F22779
:1014F00020E030E040E85BE30E94F2270E94E02910
:10150000709378056093770588898852990B90933A
:10151000760580937505698970E090E080E00E940F
:10152000912720E030E040EA50E40E94F22720E0DA
:1015300030E040E85BE30E94F2270E94E0297093CC
:101540007405609373058A8990E090937205809387
:1015500071056B8970E090E080E00E94912720E0A7
:1015600030E040E251E40E946E2960936D05709373
:101570006E0580936F05909370056C8970E090E024
:1015800080E00E94932720E030EC44E853E40E947E
:10159000F2272CEE31E143E852E40E946E29609379
:1015A000690570936A0580936B0590936C058D892E
:1015B0008054990B20E5289FB001299F700D1124BC
:1015C00077FF02C061507F4F672F770F770B072E91
:1015D000000C880B990B0E9493276093650570930C
:1015E00066058093670590936805898D90E09093D8
:1015F000640580936305C757DF4F0FB6F894DEBFCD
:101600000FBECDBFDF91CF911F910F91FF90EF9053
:101610000895EF92FF920F931F93CF93DF93CDB76F
:10162000DEB7C558D1090FB6F894DEBF0FBECDBFE7
:101630008E010F571F4F85E0E4E2F1E0D8010190E1
:101640000D928A95E1F745E050E0B8018CE396E011
:101650000E94180162E370E080E090E00E940F03B6
:10166000CE0101967C018CE396E00E94C605181617
:1016700019065CF4E016F10641F08CE396E00E9456
:10168000DE05F70181937F01EECF8A8580934604C2
:101690008B85809347048C85809348048D85809347
:1016A00049048E8580934A04CB57DF4F0FB6F894D8
:1016B000DEBF0FBECDBFDF91CF911F910F91FF9085
:1016C000EF9008950F931F93CF938C01C62F0E9424
:1016D0006B046C2F6460C8010E946B046C2F6B7FDD
:1016E000C8010E946B0483EC90E00197F1F7CF9161
:1016F0001F910F9108950F931F93CF93DF938C0148
:10170000D62FC42F607F642B0E94620B80E1D89F8C
:10171000B00111246C2BC801DF91CF911F910F9163
:101720000C94620BCF93DF93CDB7DEB728970FB63B
:10173000F894DEBF0FBECDBF98E0E9E2F1E0DE0134
:10174000119601900D929A95E1F790916306961784
:1017500008F46FEF262F30E0220F331F41E050E0F6
:101760004C0F5D1F240F351FF9016081680F606801
:1017700040E08BE596E028960FB6F894DEBF0FBEEA
:10178000CDBFDF91CF910C947B0B40E061E08BE506
:1017900096E00E947B0B8BE39FE10197F1F70895A0
:1017A00041E00E947B0B81E090E0089541E0682FCA
:1017B0008BE596E00E947B0B81E090E00895FB01B1
:1017C00001900020E9F73197AF01461B570BDC0170
:1017D000ED91FC910280F381E02D09948F929F920C
:1017E000AF92BF920F931F93CF93DF93CDB7DEB726
:1017F000A1970FB6F894DEBF0FBECDBF19A242303D
:1018000008F44AE08E010F5D1F4F842E912CB12CFD
:10181000A12CA50194010E94342AE62FB901CA0126
:10182000EA3004F5E05DD801EE938D01232B242BE3
:10183000252B79F790E080E0109729F0BD018BE52A
:1018400096E00E94DF0BA1960FB6F894DEBF0FBEA4
:10185000CDBFDF91CF911F910F91BF90AF909F901F
:101860008F900895E95CDFCFCF92DF92EF92FF92E5
:10187000CF93DF936C01990FEE08FF086A30710572
:10188000D1F44AE0F7FE18C08DE20E94D60BEC01BD
:1018900066277727CB016C197D098E099F094AE0DD
:1018A0000E94EE0B8C0F9D1FDF91CF91FF90EF9068
:1018B000DF90CF900895462FC701B601DF91CF91F9
:1018C000FF90EF90DF90CF900C94EE0BBC018BE576
:1018D00096E00C94DF0B4F925F926F927F928F9203
:1018E0009F92AF92BF92CF92DF92EF92FF92CF93EF
:1018F000DF936B017C01942EAC019B010E941B2A9B
:1019000061E871E0811126C026013701E89477F87B
:101910002FEF3FEF4FE75FE7C301B2010E941B2AA1
:1019200081110CC02FEF3FEF4FE75FE7C301B2011A
:101930000E948C2765E871E0181664F02FEF3FEFE6
:101940004FE75FE4C701B6010E94162A1816A4F4F7
:1019500069E871E08BE596E0DF91CF91FF90EF9021
:10196000DF90CF90BF90AF909F908F907F906F90BF
:101970005F904F900C94DF0B2FEF3FEF4FE75FEC42
:10198000C701B6010E948C2787FDE2CF20E030E03E
:10199000A901C701B6010E948C27B12CA12C87FF99
:1019A00008C08DE20E94D60B5C01F7FAF094F7F8BC
:1019B000F094C92D60E070E080E09FE3D0E020E08B
:1019C00030E040E251E40E946E2921E02D0FD1E089
:1019D0002915A8F3A70196010E9402292B013C01B9
:1019E0000E94E7296B017C010E9491279B01AC01B9
:1019F000C301B2010E9401292B013C014AE0C70149
:101A0000B6010E94EE0B7C018EE20E94D60BE80E1E
:101A1000F91EEA0CFB1CC15018F120E030E040E256
:101A200051E4C301B2010E94F2272B013C010E9444
:101A3000E7294B01B12CA12C4AE0C501B4010E9459
:101A4000EE0BE80EF91EC501B4010E9491279B011F
:101A5000AC01C301B2010E9401292B013C01DBCF83
:101A6000C701DF91CF91FF90EF90DF90CF90BF90B3
:101A7000AF909F908F907F906F905F904F90089560
:101A800080919205811149C00E94520786E00E9410
:101A90005702892B91F480910D018F5F80930D0186
:101AA0000E94C50B66E970E080E090E00E940F03A1
:101AB00086E00E945702892BD9F385E00E945702E5
:101AC000892B91F480910D01815080930D010E942A
:101AD000C50B66E970E080E090E00E940F0385E0AE
:101AE0000E945702892BD9F3E0910D01EF3008F0E5
:101AF000D1C2F0E0E258F24F0C94562A9A0D9E0D96
:101B0000DA0D210E630E960EDD0E2C0F720FAA0F4A
:101B1000DD0FEC0F2310251023109FEF980F92304C
:101B200018F40E94B709B2CF833009F0AFCF0E94FA
:101B30000206ACCF8BE080930D01089560E080E059
:101B40000E94920B8DE891E00E94660C60E08CE0B0
:101B50000E94920B83E991E00E94660C60E086E0AF
:101B60000E94920B6AE070E080918B0590918C0549
:101B70000E94340C61E080E00E94920B87E991E0C2
:101B80000E94660C61E086E00E94920B60916D05F8
:101B900070916E0580916F059091700542E050E064
:101BA0000E946B0C61E08CE00E94920B8DE991E049
:101BB0000C94660C60E080E00E94920B82EA91E057
:101BC0000E94660C60E088E00E94920B609187059D
:101BD000709188058091890590918A0542E050E0D6
:101BE0000E946B0C60E08DE00E94920B8AEA91E00B
:101BF0000E94660C61E080E00E94920B8EEA91E008
:101C00000E94660C61E088E00E94920B6AE070E03E
:101C100080918505909186050E94340C8091850500
:101C20009091860561E00A9734F489E00E94920B56
:101C300086EB91E0BDCF8DE00E94920B8AEB91E0A4
:101C4000B7CF60E080E00E94920B8CEB91E00E94A5
:101C5000660C60E088E00E94920B60917B057091B9
:101C60007C0580917D0590917E0542E050E00E94C8
:101C70006B0C60E08DE00E94920B8AEA91E00E947A
:101C8000660C61E080E00E94920B84EC91E00E947F
:101C9000660C61E088E00E94920B6AE070E080913F
:101CA000790590917A050E94340C61E08DE00E94E4
:101CB000920B8FED0E94D60B61E08EE00E94920B9A
:101CC00082EA93E075CF60E080E00E94920B8CEC9A
:101CD00091E00E94660C60E088E00E94920B6091A7
:101CE000810570918205809183059091840542E081
:101CF00050E00E946B0C60E08DE00E94920B8AEA3B
:101D000091E00E94660C61E080E00E94920B84EDFD
:101D100091E00E94660C61E088E00E94920B6AE00C
:101D200070E080917F0590918005BDCF60E080E0FC
:101D30000E94920B8CED91E00E94660C80919205BE
:101D400060E081112AC088E00E94920B62E070E09E
:101D500080917705909178050E94340C60E08DE0C9
:101D60000E94920B8AEA91E00E94660C61E080E09A
:101D70000E94920B88EE91E00E94660C8091920581
:101D800061E0811112C088E00E94920B6AE070E06D
:101D9000809175059091760586CF88E00E94920B20
:101DA00084EE91E00E94660CD9CF88E00E94920BED
:101DB00084EE91E00E94660C78CF60E080E00E94A3
:101DC000920B80EF91E00E94660C8091920560E09A
:101DD000811132C086E00E94920B62E070E0809137
:101DE0007305909174050E94340C60E08DE00E94B0
:101DF000920B8AEA91E00E94660C61E080E00E940A
:101E0000920B80EF91E00E94660C8091920561E058
:101E100081111AC086E00E94920B6AE070E0809106
:101E20007105909172050E94340C61E08DE00E9472
:101E3000920B86EF91E0BCCE86E00E94920B84EE7E
:101E400091E00E94660CD1CF86E00E94920B84EE56
:101E500091E00E94660CE9CF60E080E00E94920B66
:101E60008AEF91E00E94660C60E087E00E94920B8E
:101E70006091690570916A0580916B0590916C0580
:101E800041E050E00E946B0C60E08BE00E94920BFE
:101E900084EB93E00E94660C60E08DE00E94920B60
:101EA0008FED0E94D60B61E080E00E94920B80E0F3
:101EB00092E00E94660C61E087E00E94920B6091C4
:101EC000650570916605809167059091680541E010
:101ED00050E00E946B0C61E08BE00E94920B86E068
:101EE00092E066CE60E080E00E94920B8BE092E090
:101EF0000E94660C60E08AE00E94920B6091570499
:101F0000709158048091590490915A0442E050E035
:101F10000E946B0C60E08FE00E94920B89E593E0D9
:101F20000E94660C61E080E00E94920B85E192E0E5
:101F30000E94660C61E08AE00E94920B609153045B
:101F400070915404809155049091560442E050E001
:101F50000C946B0C60E080E00E94920B8FE192E0A9
:101F60000E94660C80914C0460E08A30D1F48BE0D2
:101F70000E94920B8AE292E00E94660C61E080E08F
:101F80000E94920B8FE292E00E94660C80914B04BB
:101F900061E0823061F48BE00E94920B8AE392E070
:101FA00007CE8BE00E94920B84EE91E0E5CF8BE0B0
:101FB0000E94920B8EE392E0FBCD60E080E00E94F5
:101FC000920B82E492E00E94660C61E080E00E9445
:101FD000920B88E492E0ECCD60E080E00E94920BEE
:101FE0008EE492E00E94660C8091920560E081117F
:101FF00022C088E00E94920B6AE070E08091630545
:10200000909164050E94340C60E08CE00E94920B79
:1020100086E592E00E94660C61E080E00E94920BEF
:102020008BE592E00E94660C61E088E00E94920BD2
:1020300084EE91E0BDCD88E00E94920B84EE91E0A9
:102040000E94660CE1CF81E076CD809192058111EE
:1020500007C060E083E00E94920B83E692E0A8CD87
:10206000813031F460E00E94920B8CE692E0A0CDCA
:10207000823039F460E083E00E94920B8AE792E0BC
:1020800097CD833039F460E080E00E94920B84E8C1
:1020900092E08ECD08950F931F93CF93DF93EC01C1
:1020A00088819981009759F02A813B81261737074B
:1020B00030F081E0DF91CF911F910F9108958B0156
:1020C0006F5F7F4F0E94952B009759F0998388830B
:1020D0001B830A832C813D81232B59F7FC0110823D
:1020E000E8CF80E0E7CFCF93DF93EC01888199813F
:1020F000009711F00E940C2B198218821D821C82FD
:102100001B821A82DF91CF9108950F931F93CF9373
:10211000DF93EC010C811D810F5F1F4FB8010E94FE
:102120004B10882391F0288139818C819D8163E94E
:1021300072E0820F931F0E945B2C1D830C83CE01E3
:10214000DF91CF911F910F910895CE010E947310DE
:10215000F6CFEF92FF920F931F93CF93DF93EC0193
:10216000198218821B821A821D821C828617970789
:1021700019F1FB010081118101151105E9F0E480DD
:10218000F580B7010E944B10811109C0CE01DF918B
:10219000CF911F910F91FF90EF900C947310FD82DF
:1021A000EC82B80188819981DF91CF911F910F91C5
:1021B000FF90EF900C945B2CDF91CF911F910F91CA
:1021C000FF90EF900895EF92FF920F931F93CF939C
:1021D000DF938C017B01EB0109900020E9F7219747
:1021E000C61BD70BBE010E944B10811109C0C8014C
:1021F000DF91CF911F910F91FF90EF900C9473108E
:10220000F801D583C483B70180819181DF91CF919B
:102210001F910F91FF90EF900C945B2C0F931F93E5
:10222000CF93DF93CDB7DEB762970FB6F894DEBFDA
:102230000FBECDBF8C01CB01F80111821082138239
:102240001282158214824AE0BE016F5F7F4F0E94A6
:102250001525BE016F5F7F4FC8010E94E310629693
:102260000FB6F894DEBF0FBECDBFDF91CF911F91A7
:102270000F910895EF92FF920F931F93CF93DF93E7
:10228000CDB7DEB7A1970FB6F894DEBF0FBECDBFB6
:102290007C01CB01BA01F7011182108213821282F4
:1022A000158214828E010F5F1F4F22E044E00E94CE
:1022B000F724009789F0BC01C7010E94E310A196A2
:1022C0000FB6F894DEBF0FBECDBFDF91CF911F9147
:1022D0000F91FF90EF900895C7010E947310EFCF08
:1022E000EF92FF920F931F93CF93DF93EC01FB01CB
:1022F000E080F180E114F10411F1048115810115F0
:102300001105A9F08C819D81080F191FB801CE011C
:102310000E944B10882399F0288139818C819D81FE
:10232000B701820F931F0E945B2C1D830C83CE018B
:10233000DF91CF911F910F91FF90EF900895CE0103
:102340000E947310F4CFFC0180819181009711F0FD
:102350000C940C2B08950F931F93CF93DF93CDB75D
:10236000DEB729970FB6F894DEBF0FBECDBF8C0144
:10237000862FF80111821082138212821582148234
:1023800050E0BE016F5F7F4F90E00E942025BE01AC
:102390006F5F7F4FC8010E94E31029960FB6F89433
:1023A000DEBF0FBECDBFDF91CF911F910F9108957A
:1023B000CF93DF93CDB7DEB7C656D1090FB6F894E9
:1023C000DEBF0FBECDBF8091040190910501019742
:1023D000049708F07CC240915704509158046091D2
:1023E000590470915A04CE01855A9F4F0E943A11A8
:1023F00040915304509154046091550470915604D7
:10240000CE018B5A9F4F0E943A11609163057091E3
:102410006405CE01815B9F4F0E940E1140916505BE
:10242000509166056091670570916805CE01875BE4
:102430009F4F0E943A114091690550916A05609141
:102440006B0570916C05CE018D5B9F4F0E943A1118
:102450006091730570917405CE01CD960E940E11A6
:102460006091710570917205CE01C7960E940E11A0
:102470006091770570917805CE01C1960E940E118A
:102480006091750570917605CE018B960E940E11B4
:10249000409181055091820560918305709184057A
:1024A000CE0185960E943A1160917F05709180055A
:1024B000CE014F960E940E114091870550918805DC
:1024C0006091890570918A05CE0149960E943A1162
:1024D0006091850570918605CE0143960E940E118C
:1024E00040916D0550916E0560916F05709170057A
:1024F000CE010D960E943A1160918B0570918C056A
:10250000CE0101960E940E11BE016F5F7F4FCE017A
:1025100007960E94A910CE0107960E948510BE0161
:10252000635F7F4F0E9470110E948510BE016D5E37
:102530007F4F0E9470110E948510BE01675E7F4F21
:102540000E9470110E948510BE01615E7F4F0E9443
:1025500070110E948510BE016B5D7F4F0E9470114B
:102560000E948510BE01655D7F4F0E9470110E9420
:102570008510BE016F5C7F4F0E9470110E94851014
:10258000BE01695C7F4F0E9470110E948510BE01E0
:10259000635C7F4F0E9470110E948510BE016D5BCD
:1025A0007F4F0E9470110E948510BE01675B7F4FB4
:1025B0000E9470110E948510BE01615B7F4F0E94D6
:1025C00070110E948510BE016B5A7F4F0E947011DE
:1025D0000E948510BE01655A7F4F0E9470110E94B3
:1025E0008510BC01CE018F599F4F0E94A910CE01CA
:1025F00007960E94A311CE0101960E94A311CE015D
:102600000D960E94A311CE0143960E94A311CE0104
:1026100049960E94A311CE014F960E94A311CE01AC
:1026200085960E94A311CE018B960E94A311CE0124
:10263000C1960E94A311CE01C7960E94A311CE019C
:10264000CD960E94A311CE018D5B9F4F0E94A311D6
:10265000CE01875B9F4F0E94A311CE01815B9F4FEC
:102660000E94A311CE018B5A9F4F0E94A311CE014D
:10267000855A9F4F0E94A3114AE060914D04CE01FC
:1026800085960E94AB114AE060914E04CE014F96B0
:102690000E94AB114AE060914F04CE0149960E941E
:1026A000AB114AE060915004CE0143960E94AB11F9
:1026B0004AE060915104CE010D960E94AB114AE0B0
:1026C00060915204CE0101960E94AB11BE016F5F72
:1026D0007F4FCE0107960E94A910CE0107960E9457
:1026E0008510BE01635F7F4F0E9470110E948510AC
:1026F000BE016D5E7F4F0E9470110E948510BE0169
:10270000675E7F4F0E9470110E948510BE01615E5E
:102710007F4F0E9470110E948510BE016B5D7F4F3C
:102720000E9470110E948510BC01CE01C1960E94CA
:10273000A910CE0107960E94A311CE0101960E9416
:10274000A311CE010D960E94A311CE0143960E94C3
:10275000A311CE0149960E94A311CE014F960E946B
:10276000A311CE0185960E94A3114AE060916205F3
:10277000CE018B960E94AB1140E160914A04CE01DC
:1027800085960E94AB1140E160914904CE014F96BD
:102790000E94AB1140E160914804CE0149960E942D
:1027A000AB1140E160914704CE0143960E94AB110A
:1027B00040E160914604CE010D960E94AB116091FC
:1027C000040170910501CE0101960E940E11BE0117
:1027D0006F5F7F4FCE0107960E94A910CE0107962A
:1027E0000E948510BE01635F7F4F0E9470110E949E
:1027F0008510BE016D5E7F4F0E9470110E94851092
:10280000BE01675E7F4F0E9470110E948510BE015D
:10281000615E7F4F0E9470110E948510BE016B5D4A
:102820007F4F0E9470110E948510BE01655D7F4F31
:102830000E9470110E948510BC01CE01C7960E94B3
:10284000A910CE0107960E94A311CE0101960E9405
:10285000A311CE010D960E94A311CE0143960E94B2
:10286000A311CE0149960E94A311CE014F960E945A
:10287000A311CE0185960E94A311CE018B960E94D2
:10288000A311CE01C7960E944501CE018F599F4FDB
:102890000E944501CE01C1960E94450165E972E0A2
:1028A00083E995E00E94DF0B62E370E080E090E056
:1028B0000E940F03CE01C7960E94A311CE01C196BC
:1028C0000E94A311CE018F599F4F0E94A3118091A6
:1028D000040190910501059709F0EBC04AE0609171
:1028E0006205CE018B960E94AB1140E160914A04D3
:1028F000CE0185960E94AB1140E160914904CE0162
:102900004F960E94AB1140E160914804CE01499678
:102910000E94AB1140E160914704CE0143960E94B2
:10292000AB1140E160914604CE010D960E94AB11BF
:102930006091040170910501CE0101960E940E1173
:10294000BE016F5F7F4FCE0107960E94A910CE0196
:1029500007960E948510BE01635F7F4F0E94701131
:102960000E948510BE016D5E7F4F0E9470110E9413
:102970008510BE01675E7F4F0E9470110E94851016
:10298000BE01615E7F4F0E9470110E948510BE01E2
:102990006B5D7F4F0E9470110E948510BE01655DC6
:1029A0007F4F0E9470110E948510BC01CE01C1961C
:1029B0000E94A910CE0107960E94A311CE01019694
:1029C0000E94A311CE010D960E94A311CE01439641
:1029D0000E94A311CE0149960E94A311CE014F96E9
:1029E0000E94A311CE0185960E94A311CE018B9661
:1029F0000E94A3114AE060918D05CE0143960E948A
:102A0000AB114AE060918E05CE010D960E94AB118C
:102A10004AE060918F05CE0101960E94AB11BE0184
:102A20006F5F7F4FCE0107960E94A910CE010796D7
:102A30000E948510BE01635F7F4F0E9470110E944B
:102A40008510BE016D5E7F4F0E9470110E9485103F
:102A5000BC01CE0149960E94A910CE0107960E94A2
:102A6000A311CE0101960E94A311CE010D960E94E2
:102A7000A311CE0143960E94A311CE01C1960E94DC
:102A80004501CE0149960E94450165E972E083E95E
:102A900095E00E94DF0B62E370E080E090E00E942E
:102AA0000F03CE0149960E94A311CE01C1960E9448
:102AB000A311CA59DF4F0FB6F894DEBF0FBECDBFCA
:102AC000DF91CF91089585ED8093BC00809127051B
:102AD00090912805A0912905B0912A050796A11D7E
:102AE000B11D23E0B695A795979587952A95D1F7BF
:102AF0002091BC0024FD03C010922505089540914B
:102B00002705509128056091290570912A05452BCC
:102B1000462B472B69F30097A105B10541F025E34A
:102B20002A95F1F700000197A109B109E1CF809141
:102B300026050C94C5031F920F920FB60F92112415
:102B40002F933F934F935F936F937F938F939F93B5
:102B5000AF93BF93EF93FF9383E995E00E949F01AA
:102B6000FF91EF91BF91AF919F918F917F916F9165
:102B70005F914F913F912F910F900FBE0F901F903B
:102B800018951F920F920FB60F9211242F938F93C7
:102B90009F93EF93FF93E091A305F091A4058081AB
:102BA000E091A905F091AA0582FD1BC0908180915A
:102BB000AC058F5F8F732091AD05821741F0E091D6
:102BC000AC05F0E0ED56FA4F958F8093AC05FF9180
:102BD000EF919F918F912F910F900FBE0F901F90AB
:102BE00018958081F4CF1F920F920FB60F92112487
:102BF0002F933F938F939F93AF93BF9380914E05F5
:102C000090914F05A0915005B091510530914D051F
:102C100023E0230F2D3758F50196A11DB11D2093F8
:102C20004D0580934E0590934F05A0935005B093AA
:102C300051058091520590915305A0915405B09192
:102C400055050196A11DB11D809352059093530522
:102C5000A0935405B0935505BF91AF919F918F916B
:102C60003F912F910F900FBE0F901F90189526E85F
:102C7000230F0296A11DB11DD2CF1F920F920FB646
:102C80000F9211242F933F934F935F936F937F93F2
:102C90008F939F93AF93BF93EF93FF938091B9006E
:102CA000887F803609F44AC0F0F5883209F4A7C05D
:102CB00018F5803109F49BC0B8F4882309F4F9C0F1
:102CC000883009F494C0FF91EF91BF91AF919F912B
:102CD0008F917F916F915F914F913F912F910F90C5
:102CE0000FBE0F901F901895883109F488C080326C
:102CF00051F78093230514C0803409F49DC040F43B
:102D00008033B9F38833F9F68093230585ECB0C09E
:102D1000803509F485C0883509F496C0883499F661
:102D20000E946315D0CF883909F48CC038F58837F4
:102D300029F050F4883611F0803729F683E080932B
:102D400025051092FE0457C0883809F47BC08039ED
:102D500019F0803809F0B7CF8091FE04803208F076
:102D600071C0E091FE0481E08E0F8093FE0480919B
:102D7000BB00F0E0E252FB4F80833DC0803B39F066
:102D8000E0F4803A09F479C0883A09F09CCF84E0F5
:102D9000809325051092DD041092DC04E091580523
:102DA000F091590509958091DC0481110FC081E0F3
:102DB0008093DC041092BC0409C0803C09F4A6CFC7
:102DC000883C09F4A3CF883B09F07DCFE091DD0476
:102DD00081E08E0F8093DD04F0E0E454FB4F8081AE
:102DE0008093BB009091DD048091DC0429C0809128
:102DF00000058093BB0085EC8093BC0064CF90916C
:102E0000220580912105981758F5E091220581E06F
:102E10008E0F80932205F0E0EF5FFA4F8081E9CFBB
:102E2000E091220581E08E0F809322058091BB0006
:102E3000F0E0EF5FFA4F80839091220580912105A9
:102E40009817C8F285E8D8CFE091220581E08E0F6F
:102E5000809322058091BB00F0E0EF5FFA4F808302
:102E60008091240581115CCF81E08093FF0484EA86
:102E70008093BC001092250526CF85EC8093BC0082
:102E8000109225058091FE04803230F4E091FE041A
:102E9000F0E0E252FB4F10826091FE0470E0E0919E
:102EA0005605F09157058EED94E009951092FE04B9
:102EB0000ACF1092230534CF1F920F920FB60F92B4
:102EC00011242F933F934F935F936F937F938F932F
:102ED0009F93AF93BF93EF93FF93E0916005F091C1
:102EE0006105309749F0A685B7858585968D91FF58
:102EF00014C09C918923A1F4FF91EF91BF91AF91F0
:102F00009F918F917F916F915F914F913F912F9101
:102F10000F900FBE0F901F9018959C91892361F719
:102F2000A389B4899C918589809589238C9386890E
:102F300097890197F1F7608D718DA685B7855585C5
:102F400038E020E0CB010197F1F7822F90E09595D2
:102F50008795282F4C91452309F02068315091F72F
:102F6000868D81FD209580915F0590E001968F739D
:102F7000992730915E05381799F0A0915F05B0E070
:102F8000A55ABB4F2C9380935F05828D938D01973B
:102F9000F1F7A389B4898C919589892B8C93ACCF57
:102FA000868D8160868FF1CF1092960510929505DF
:102FB00088EE93E0A0E0B0E08093970590939805A9
:102FC000A0939905B0939A0523E431E030939405DA
:102FD0002093930525EC30E03093A00520939F05C6
:102FE00024EC30E03093A2052093A10520EC30E0E2
:102FF0003093A4052093A30521EC30E03093A6057F
:103000002093A50522EC30E03093A8052093A70576
:1030100026EC30E03093AA052093A9051092AC0568
:103020001092AD051092AE051092AF0510923306C6
:10303000109232068093340690933506A09336069C
:10304000B093370625E531E0309331062093300602
:1030500010925E0610925D0629E731E030935C061F
:1030600020935B062FE320935F0620E12093640604
:1030700022E0209365061092660610923F06109299
:103080003E068093400690934106A0934206B0937B
:10309000430687E691E090933D0680933C061092AC
:1030A0005306109252061092550610925406109232
:1030B00057061092560610925906109258066091C3
:1030C0005A066E7F6D7F60935A066695617081E047
:1030D00068278AE00E94800261E08AE00E94AE02D6
:1030E000E2EBF1E0E491E0934C06EEE9F1E0E491EB
:1030F000F0E0EE0FFF1FE657FE4F859194919093FD
:103100004E0680934D0660E08BE00E94AE028091F7
:103110005A0681FD04C061E08BE00E9480028BE0D2
:1031200080934806E3EBF1E0E491E0934906EFE990
:10313000F1E0E491F0E0EE0FFF1FE058FE4F8591C3
:10314000949190934B0680934A060895CF93DF9312
:10315000CDB7DEB7C959D1090FB6F894DEBF0FBE9F
:10316000CDBF789484B5826084BD84B5816084BD10
:1031700085B5826085BD85B5816085BD80916E0015
:10318000816080936E001092810080918100826046
:103190008093810080918100816080938100809183
:1031A00080008160809380008091B1008460809372
:1031B000B1008091B00081608093B00080917A006E
:1031C000846080937A0080917A00826080937A0094
:1031D00080917A00816080937A0080917A00806883
:1031E00080937A001092C10010925D0510925C05E8
:1031F00010925B0510925A050E94A70386E191E0A8
:10320000909359058093580587E191E09093570575
:10321000809356051092600680916506823018F002
:1032200098E0909360068093630662E370E080E02C
:1032300090E00E940F03609166068BE596E00E9485
:103240006B0468EE73E080E090E00E940F0360E39F
:103250008BE596E00E94620B0BE416E4C80101972F
:10326000F1F760E38BE596E00E94620BC8010197DD
:10327000F1F760E38BE596E00E94620B83E592E054
:103280000197F1F760E28BE596E00E94620B609196
:103290006006606240E08BE596E00E947B0B84E074
:1032A0008093610640E06CE08BE596E00E947B0B2A
:1032B0000E94C50B12E01093620640E066E08BE5C9
:1032C00096E00E947B0B40E062E08BE596E00E9476
:1032D0007B0B8BE39FE10197F1F788E08093660613
:1032E00060E08BE596E00E946B04E091A305F0910D
:1032F000A4051083E0919F05F091A0051082E09154
:10330000A105F091A2058FEB80831092AB05E091AF
:10331000A705F091A80586E08083E091A505F091CE
:10332000A605808180618083E091A505F091A605C6
:10333000808188608083E091A505F091A605808159
:1033400080688083E091A505F091A60580818F7D3E
:10335000808362E085E00E94AE0262E086E00E9427
:10336000AE0262E087E00E94AE0261E08DE00E9462
:10337000AE020E94C50B60E082E00E94920B88E9D9
:1033800092E00E94660C61E086E00E94920B85EA62
:1033900092E00E94660C68E873E180E090E00E9491
:1033A0000F030E94C50B61E080E00E94920B8AEA45
:1033B00092E00E94660C60E080E00E94920B89EB34
:1033C00092E00E94660C68EE73E080E090E00E945C
:1033D0000F0361E080E00E94920B8EEB92E00E946E
:1033E000660C60E080E00E94920B89EB92E00E9404
:1033F000660C68EE73E080E090E00E940F0361E0ED
:1034000080E00E94920B8EEC92E00E94660C60E0DD
:1034100080E00E94920B89EB92E00E94660C68EEBD
:1034200073E080E090E00E940F0361E08AE00E9478
:10343000AE0260E08AE00E94800266E470E080E014
:1034400090E00E940F0361E08AE00E94800262E83F
:1034500070E080E090E00E940F0360E08AE00E944C
:103460008002ABEE2A2EA2E03A2EC1010197F1F7BD
:1034700061E08AE00E94800283EB9BE00197F1F714
:1034800060E08AE00E94800283E394E00197F1F714
:1034900061E08AE00E948002BBE6CB2EDD24D3945B
:1034A000C6010197F1F760E08AE00E94800283E59F
:1034B00097E00197F1F761E08AE00E948002C6017F
:1034C0000197F1F760E08AE00E948002C60101974F
:1034D000F1F761E08AE00E94800213E8812E1DE08E
:1034E000912EC4010197F1F760E08AE00E9480020A
:1034F0000BE711E0C8010197F1F761E08AE00E9453
:10350000800267E170E080E090E00E940F0360E0DD
:103510008AE00E9480028BEFE82E82E0F82EC7013D
:103520000197F1F761E08AE00E948002C8010197EB
:10353000F1F760E08AE00E948002C7010197F1F78D
:1035400061E08AE00E9480028BE794E00197F1F746
:1035500060E08AE00E948002C8010197F1F761E013
:103560008AE00E948002C8010197F1F760E08AE0DA
:103570000E948002C8010197F1F761E08AE00E9491
:103580008002C8010197F1F760E08AE00E948002A2
:10359000C8010197F1F761E08AE00E948002C8014A
:1035A0000197F1F760E08AE00E9480029BE7A92E74
:1035B00097E0B92EC5010197F1F761E08AE00E941A
:1035C0008002C8010197F1F760E08AE00E94800262
:1035D000C4010197F1F761E08AE00E948002C8010E
:1035E0000197F1F760E08AE00E9480028FE797E0A0
:1035F0000197F1F761E08AE00E948002C50101971E
:10360000F1F760E08AE00E948002C8010197F1F7BB
:1036100061E08AE00E948002C8010197F1F760E052
:103620008AE00E948002C7010197F1F761E08AE019
:103630000E948002C7010197F1F760E08AE00E94D2
:103640008002C7010197F1F761E08AE00E948002E1
:103650006AE070E080E090E00E940F0360E08AE0A2
:103660000E948002C8010197F1F761E08AE00E94A0
:103670008002C7010197F1F760E08AE00E948002B2
:10368000C8010197F1F761E08AE00E948002662498
:103690006A9425E0722EC3010197F1F760E08AE099
:1036A0000E948002C8010197F1F761E08AE00E9460
:1036B0008002C8010197F1F760E08AE00E94800271
:1036C000C7010197F1F761E08AE00E948002C7011B
:1036D0000197F1F760E08AE00E948002C50101973E
:1036E000F1F761E08AE00E948002C8010197F1F7DA
:1036F00060E08AE00E9480028BE79DE00197F1F78D
:1037000061E08AE00E948002C8010197F1F760E061
:103710008AE00E948002C8010197F1F761E08AE027
:103720000E948002C8010197F1F760E08AE00E94E0
:1037300080028BE79AE00197F1F761E08AE00E944E
:103740008002C8010197F1F760E08AE00E948002E0
:10375000C8010197F1F761E08AE00E948002C70189
:103760000197F1F760E08AE00E9480028BEF98E019
:103770000197F1F761E08AE00E948002C801019799
:10378000F1F760E08AE00E948002C8010197F1F73A
:1037900061E08AE00E948002C7010197F1F760E0D2
:1037A0008AE00E948002C8010197F1F761E08AE097
:1037B0000E9480023BEF432E35E0532EC201019759
:1037C000F1F760E08AE00E948002C8010197F1F7FA
:1037D00061E08AE00E94800261E272E080E090E0B5
:1037E0000E940F0360E08AE00E948002C8010197F6
:1037F000F1F761E08AE00E948002C7010197F1F7CA
:1038000060E08AE00E948002C8010197F1F761E060
:103810008AE00E948002C3010197F1F760E08AE02C
:103820000E948002C8010197F1F761E08AE00E94DE
:103830008002C8010197F1F760E08AE00E948002EF
:10384000C7010197F1F761E08AE00E948002C70199
:103850000197F1F760E08AE00E948002C5010197BC
:10386000F1F761E08AE00E948002C8010197F1F758
:1038700060E08AE00E948002C7010197F1F761E0F1
:103880008AE00E948002C8010197F1F760E08AE0B7
:103890000E948002AA24AA9448E0B42EC501019790
:1038A000F1F761E08AE00E948002C8010197F1F718
:1038B00060E08AE00E948002C8010197F1F761E0B0
:1038C0008AE00E948002C8010197F1F760E08AE077
:1038D0000E9480028FE79AE00197F1F761E08AE0A9
:1038E0000E948002C8010197F1F760E08AE00E941F
:1038F0008002C8010197F1F761E08AE00E9480022E
:10390000C7010197F1F760E08AE00E948002C501DB
:103910000197F1F761E08AE00E948002C8010197F7
:10392000F1F760E08AE00E948002C8010197F1F798
:1039300061E08AE00E948002C8010197F1F760E02F
:103940008AE00E948002C7010197F1F761E08AE0F6
:103950000E948002C2010197F1F760E08AE00E94B4
:103960008002C8010197F1F761E08AE00E948002BD
:103970006EE070E080E090E00E940F0360E08AE07B
:103980000E94800266E470E080E090E00E940F03F5
:1039900061E08AE00E94800262E870E080E090E0EE
:1039A0000E940F0360E08AE00E948002C10101973B
:1039B000F1F761E08AE00E94800283EB9BE00197CF
:1039C000F1F760E08AE00E94800283E394E00197CF
:1039D000F1F761E08AE00E948002C6010197F1F7E9
:1039E00060E08AE00E94800283E597E00197F1F7AA
:1039F00061E08AE00E948002C6010197F1F760E071
:103A00008AE00E948002C6010197F1F761E08AE036
:103A10000E948002C4010197F1F760E08AE00E94F1
:103A20008002C8010197F1F761E08AE00E948002FC
:103A300067E170E080E090E00E940F0360E08AE0C0
:103A40000E948002C6010197F1F761E08AE00E94BE
:103A50008002C7010197F1F760E08AE00E948002CE
:103A6000C6010197F1F761E08AE00E9480025BEEF7
:103A7000A52E55E0B52EC5010197F1F760E08AE06B
:103A80000E948002C6010197F1F761E08AE00E947E
:103A90008002C6010197F1F760E08AE00E9480028F
:103AA000C7010197F1F761E08AE00E948002C70137
:103AB0000197F1F760E08AE00E9480028FE797E0CB
:103AC0000197F1F761E08AE00E948002C801019746
:103AD000F1F760E08AE00E9480028BE69DE00197AA
:103AE000F1F761E08AE00E948002C8010197F1F7D6
:103AF00060E08AE00E948002C6010197F1F761E070
:103B00008AE00E948002C8010197F1F760E08AE034
:103B10000E94800283E79AE00197F1F761E08AE072
:103B20000E948002C8010197F1F760E08AE00E94DC
:103B30008002C6010197F1F761E08AE00E948002ED
:103B4000C7010197F1F760E08AE00E94800283EEEE
:103B500098E00197F1F761E08AE00E948002C801D5
:103B60000197F1F760E08AE00E948002C6010197A8
:103B7000F1F761E08AE00E948002C7010197F1F746
:103B800060E08AE00E948002C6010197F1F761E0DF
:103B90008AE00E948002C5010197F1F760E08AE0A7
:103BA0000E948002C6010197F1F761E08AE00E945D
:103BB00080026CE172E080E090E00E940F0361E01F
:103BC0008AE00E94AE0260E08AE00E94800266E421
:103BD00070E080E090E00E940F0361E08AE00E94C4
:103BE000800262E870E080E090E00E940F03109293
:103BF00057061092560610925506109254061092CF
:103C00005306109252068DE791E0909359068093E7
:103C1000580690914806963108F045C02DEA30E0EC
:103C20003093530620935206109355060093540682
:103C300024E131E030935706209356062091680026
:103C400084E0983048F031E09E3008F430E081E0C4
:103C500001C0880F3A95EAF7822B809368002DE621
:103C600030E0983050F02BE630E09E3030F02CE61B
:103C700030E0963110F030E020E030935006209391
:103C80004F06292F30E0983008F073C081E001C062
:103C9000880F9A95EAF78093510680915806909183
:103CA00059060197F1F78091560690915706892B96
:103CB00049F1E0916005F091610526E0EC33F207EF
:103CC00009F1309739F0A389B4899C918589809551
:103CD00089238C9380915A068E7F80935A06109286
:103CE0005F0510925E058CE396E0909361058093EA
:103CF0006005E0914F06F091500680819091510649
:103D0000892B808344E050E060E071E08CE396E032
:103D10000E94180169E170E080E090E00E940F03CA
:103D200045E050E066E071E08CE396E00E94180107
:103D300062E370E080E090E00E940F038E010F5F6D
:103D40001F4F6E0141E2C40ED11CF02EE12E8CE318
:103D500096E00E94C60518161906C4F4C016D106CE
:103D6000A9F08CE396E00E94DE05D8018D938D01C9
:103D7000EECF9E3040F42850310981E001C0880F19
:103D80002A95EAF788CF2E503109F7CF62E370E029
:103D900080E090E00E940F030E94C50B8E010F5738
:103DA0001F4FB0913101C557DF4FB883CB58D0407A
:103DB000E0913201C457DF4FE883CC58D040F091F6
:103DC0003301C357DF4FF883CD58D04020903401E2
:103DD0008091140190911501A0911601B0911701E5
:103DE000C257DF4F88839983AA83BB83CE58D040C4
:103DF0003090350140903601609037015090380185
:103E0000C557DF4F9881CB58D040CE56DF4F9883AF
:103E1000C259D040CD56DF4FE883C359D040CC566D
:103E2000DF4FF883C459D040CB56DF4F2882C559A5
:103E3000D040CA56DF4F3882C659D040C956DF4FEE
:103E40004882C759D040C856DF4F6882C859D04011
:103E5000C756DF4F5882C959D040F7E07F2E83E91B
:103E600095E00E947F01892B09F4CFC00E944D0389
:103E7000FC0197FD60C08D32910521F0C0970A9733
:103E800008F051C0812C912C5401D12CE130F10566
:103E9000D9F0ED32F10509F44BC0CF01C0970A9774
:103EA00098F4AAE0B0E0A50194010E94B0284F0167
:103EB000FF0FAA08BB08860E971EA81EB91EA0E316
:103EC0008A1A9108A108B10883E995E00E945D0172
:103ED0000E944D03FC01C0970A97C0F2E130F10542
:103EE000A9F2DD2041F0B094A09490948094811CBC
:103EF000911CA11CB11C64019092910580929005C7
:103F0000B1E08B169104D9F40E94C50B7092920512
:103F1000F9EDCF16D10451F585E090E090930501BD
:103F20008093040172C083E995E00E945D019ECFF9
:103F3000DD24D394C9CF812C912C5401DCCFEAEE3F
:103F40008E16910439F441E050E0509305014093FE
:103F50000401DECF5DE6851651E0950609F04AC002
:103F600082E090E0909305018093040120E7C2165F
:103F7000D10409F04AC04BE0C42ED12C52E7852E63
:103F800065E0962E70E6A72EE3E0BE2EC557DF4F04
:103F9000E881CB58D040D801EC93C457DF4FF8816B
:103FA000CC58D0401196FC931197C357DF4F28810E
:103FB000CD58D04012962C93129713962C92C8018C
:103FC0000E940A0189829A82AB82BC828D8345E07D
:103FD00050E06F2D7E2D8CE396E00E94180162E385
:103FE00070E080E090E00E940F0341E0C41AD10825
:103FF00069F60BC092EF891691E09906E1F5A3E00E
:10400000B0E0B0930501A093040180910401909168
:104010000501019709F041C00E94B7090E94B90843
:104020000E94090B86E0E9E3F1E0D80101900D92CE
:104030008A95E1F746E050E0B8018CE396E00E94F3
:10404000180162E370E080E090E00E940F03CF2C43
:10405000DE2C8CE396E00E94C60518161906C4F4FF
:104060000C151D05A9F08CE396E00E94DE05D60133
:104070008D936D01EECFBBE18B16B3E09B0609F08B
:1040800047CFE4E0F0E0F0930501E0930401BDCFF9
:104090008D85809362050E94D811809104019091D2
:1040A0000501029741F40E9452070E94B9080E943C
:1040B000090B0E94D811809104019091050103978A
:1040C00041F40E9402060E94B9080E94090B0E9456
:1040D000D8118091040190910501049709F03EC127
:1040E000C257DF4F88819981AA81BB81CE58D040C9
:1040F000C957DF4F88839983AA83BB83C758D040B1
:10410000CE0189579F4F0E940A0192E7D8019C93E4
:1041100095E011969C93119791E712969C931297B4
:1041200097E113969C93139714968C9345E050E077
:10413000B8018CE396E00E94180162E370E080E031
:1041400090E00E940F03CF2CDE2C8CE396E00E94BF
:10415000C605181619065CF40C151D0541F08CE314
:1041600096E00E94DE05F60181936F01EECF8A850D
:1041700090E0982F88272B85820F911D90938C05B6
:1041800080938B056C8570E090E080E00E94912721
:1041900020E030E040EA50E40E94F22720E030E0E6
:1041A00040E85BE30E94F2276093870570938805DF
:1041B0008093890590938A058D85FAE08F9FC001D1
:1041C000112434E0959587953A95E1F7909386050B
:1041D000809385056E8570E090E080E00E949127D5
:1041E00020E030E040EA50E40E94F22720E030E096
:1041F00040E85BE30E94F22760938105709382059B
:1042000080938305909384058F858852990B9093B2
:10421000800580937F05688970E090E080E00E94CF
:10422000912720E030E040EA50E40E94F22720E0AD
:1042300030E040E85BE30E94F22760937B057093D7
:104240007C0580937D0590937E052989422F4852F5
:10425000550B6A0150937A05409379050E94E02935
:104260007093780560937705D0927605C0927505B6
:104270006A8970E090E080E00E94912720E030E0C1
:1042800040EA50E40E94F22720E030E040E85BE39F
:104290000E94F2270E94E0297093740560937305D1
:1042A0008B8990E090937205809371056C8970E022
:1042B00090E080E00E94912720E030E040E251E46D
:1042C0000E946E2960936D0570936E0580936F0553
:1042D000909370056D8970E090E080E00E949327D4
:1042E00020E030EC44E853E40E94F2272CEE31E168
:1042F00043E852E40E946E296093690570936A0551
:1043000080936B0590936C058E898054990B20E502
:10431000289FB001299F700D112477FF02C06150C2
:104320007F4F672F770F770B072E000C880B990BA9
:104330000E949327609365057093660580936705D7
:1043400090936805898D90E0909364058093630550
:104350000E94B9080E94090B0E94D81180910401A3
:1043600090910501059709F058C00E944103C95773
:10437000DF4F3882C758D040C857DF4F4882C858EF
:10438000D040C757DF4F6882C958D040C657DF4F6B
:104390005882CA58D040CE0189579F4F0E940A01C7
:1043A00092E7D8019C9395E011969C93119794E71E
:1043B00012969C93129791E013969C9313971496E0
:1043C0008C9345E050E0B8018CE396E00E94180120
:1043D00062E370E080E090E00E940F03CF2CDE2CBF
:1043E0008CE396E00E94C605181619065CF40C15BD
:1043F0001D0541F08CE396E00E94DE05F6018193F5
:104400006F01EECF8A8580938F058C8580938E0512
:104410008E8580938D050E94D81187E00E945702F7
:10442000892BB1F4D090920566E970E080E090E0CD
:104430000E940F03D394D09292050E94C50B8DE089
:1044400080930D018CE080930C0181E080930B013F
:10445000E0919205E930A0F4F0E0EF5CFD4D0C94A2
:10446000562A3A224D224D2252225722AD23CA24E7
:10447000D024D8240E94400D0E9452070E94B908FF
:1044800080E090E0892B09F4EACC0E948B0188231C
:1044900009F4E3CC0E940000E0CC0E94400D0E9491
:1044A000B709ECCF0E94400D0E940206E7CF0E94A0
:1044B0004103CA56DF4FF881C659D040C957DF4F74
:1044C000F883C758D040C956DF4F2881C759D0401C
:1044D000C857DF4F2883C858D040C856DF4F48819F
:1044E000C859D040C757DF4F4883C958D040C75636
:1044F000DF4F5881C959D040C657DF4F5883CA583B
:10450000D040CE0189579F4F0E940A0192E7D801FF
:104510009C9395E011969C93119794E712969C9327
:10452000129791E013969C93139714968C9345E001
:1045300050E0B8018CE396E00E94180162E370E05D
:1045400080E090E00E940F03CF2CDE2C8CE396E0FD
:104550000E94C605181619065CF40C151D0541F0DD
:104560008CE396E00E94DE05F60181936F01EECFA9
:10457000CA84D12C8C84912CAE84B12C86E00E940C
:104580005702892B91F480910C018F5F80930C016D
:104590000E94C50B66E970E080E090E00E940F0386
:1045A00086E00E945702892BD9F385E00E945702CA
:1045B000892B91F480910C01815080930C010E9411
:1045C000C50B66E970E080E090E00E940F0385E093
:1045D0000E945702892BD9F3E0910C01EE3008F0CC
:1045E0004FCFF0E0EA50FD4D0C94562A04230823E7
:1045F0001123262341235D237923802387238E23C0
:1046000095239C239E239C238AE080930C0138CF22
:1046100060E083E00E94920B8FED92E00E94660CB6
:1046200029C060E083E00E94920B81EF92E00E943B
:10463000660CF7E0CF16D104E9F461E080E00E9457
:10464000920B8CEF92E00E94660C1ACF60E083E040
:104650000E94920B8CE093E00E94660C27E0C21649
:10466000D10459F347E08416910439F357E0A516B5
:10467000B10419F361E085E00E94920B8AEE92E0AA
:10468000E2CF60E083E00E94920B87E193E00E941A
:10469000660C88E0C816D10439F461E080E00E941D
:1046A000920B82E293E0CFCF98E089169104A9F3B0
:1046B000A8E0AA16B104F1F6F0CF60E084E00E9411
:1046C000920B82E393E00E94660CBCE0CB16D1040F
:1046D00039F461E080E00E94920B8BE393E0B3CF6A
:1046E000ECE08E169104A9F3FCE0AF16B10411F6CC
:1046F000F0CF60E083E00E94920B8CE493E08ECFD9
:1047000060E086E00E94920B86E593E087CF60E050
:1047100087E00E94920B8BE593E080CF60E083E01E
:104720000E94920B8FE593E079CF60E083E00E94D6
:10473000920B8AE693E072CF81E067CF60E084E07D
:104740000E94920B85E793E00E94660C61E081E095
:104750000E94920B8DE793E076CF8DE080930D0160
:1047600045E050E066E071E08CE396E00E941801BD
:1047700062E370E080E090E00E940F030E9441033A
:1047800085E00E945702892B91F480910B018F5F85
:1047900080930B010E94C50B66E970E080E090E019
:1047A0000E940F0385E00E945702892BD9F3D09015
:1047B0000B0121E0D21609F4CFC0D21608F4C8C00C
:1047C00042E0D41609F4D7C053E0D51259CECE56E4
:1047D000DF4FE881C259D040D801EC93CD56DF4F6E
:1047E000F881C359D0401196FC931197CC56DF4FF6
:1047F0002881C459D04012962C931297CB56DF4F84
:104800004881C559D04013964C93C8010E940A01B3
:1048100092E7998395E09A8390E69B83DC828D836F
:1048200045E050E06F2D7E2D8CE396E00E9418014C
:1048300062E370E080E090E00E940F0360E080E0BF
:104840000E94920B86EB93E00E94660C61E080E090
:104850000E94920B86EC93E00E94660C60ED77E07C
:1048600080E090E00E940F030E94C50B45E050E0FD
:104870006F2D7E2D8CE396E00E94180160E080E0B1
:104880000E94920B82ED93E00E94660C61E080E052
:104890000E94920B82EE93E00E94660C60ED77E03E
:1048A00080E090E00E940F0345E050E06F2D7E2DE8
:1048B0008CE396E00E94180161E080E00E94920B78
:1048C0008FEE93E00E94660C61E080E00E94920B04
:1048D0008DEF93E00E94660C68EE73E080E090E05C
:1048E0000E940F0345E050E06F2D7E2D8CE396E093
:1048F0000E94180161E080E00E94920B8CE094E03D
:104900000E94660C68EE73E080E090E00E940F0366
:1049100061E080E00E94920B8CE194E00E94660CC2
:1049200068EE73E080E090E00E940F030E94C50BE8
:1049300061E081E00E94920B8DE294E00E94660C9F
:1049400060ED77E080E090E00E940F030E94C50BCD
:1049500081E080930B0194CD61E084E00E94920B92
:104960008AE993E00E94660C60E084E00E94920B6A
:104970008CE893E068CE60E080E00E94920B84E9CE
:1049800093E00E94660C61E080E00E94920B84EA52
:1049900093E059CE8DE080930D011092920570CD79
:1049A00060E084E00E94920B8DE394E00E94660C2C
:1049B0007092920565CD87E691E090933D068093D5
:1049C0003C0680916005909161058C53964071F48E
:1049D000E0914F06F09150069081809151068095AC
:1049E0008923808310926105109260050895EF92EB
:1049F0000F931F93CF93DF93E80134E047FD34E139
:104A0000042E000C550B57FF03C0519541955109D9
:104A1000E32E022F242FAE010E944525CE01DF9107
:104A2000CF911F910F91EF900895BB274A3031F439
:104A3000992322F4BDE2909581959F4F0C942C25EB
:104A40004532510520F4423010F00C942B25FB0127
:104A50001082CB010895BB27FB015527AA27880F99
:104A6000991FAA1FA41710F0A41B83955051B9F7E2
:104A7000A05DAA3308F0A95DA193009779F7B11161
:104A8000B1931192CB010C947C27A9E0B0E0EBE448
:104A9000F5E20C94C1286A01F22EB02E102FFBE330
:104AA000AF2EA01608F41BE31F5F012F27E0AE0115
:104AB0004F5F5F4F0E94A426BC018981982F997097
:104AC000913009F43FC09BE2E1FC04C09E2D91703F
:104AD000E0FC3AC05E2D5071E82FE87083FF46C0BD
:104AE00084E0911101C083E0EF2DE81B8F1508F0E1
:104AF000E0E0D6018E2F20E2552351F1992329F0D1
:104B0000D6019C93C60101966C0196012D5F3F4F23
:104B1000E2FE24C08EE4D6018C9391E411969C931E
:104B2000119712968C93D9018E2F90E281111BC0A0
:104B3000E20FF32FF11D10828EEF9FEF2996ECE02C
:104B40000C94DD289DE2C6CF90E2C4CF2D93815016
:104B50008111FCCFCE0ED11CE0E0D0CF8EE6D60185
:104B60008C9391E6DBCF9D938150E0CF482F44702A
:104B700082FF3DC084E0911101C083E08F1510F4E5
:104B8000EF2DE81BD6018E2F20E2552309F1992342
:104B900029F0D6019C93C60101966C0196012D5F08
:104BA0003F4FE2FE1BC089E4D6018C938EE4119640
:104BB0008C93119786E412968C93D9018E2F90E2F4
:104BC000882309F4B5CF9D938150FACF2D9381505E
:104BD0008111FCCFCE0ED11CE0E0D9CF89E6D60101
:104BE0008C938EE611968C93119786E6E4CF9B0109
:104BF00077FF02C030E020E0A1E0B0E0911102C0F8
:104C0000B0E0A0E0F9013196AE0FBF1F8B2C912CC4
:104C1000BB2009F461C05401EFEFAE1ABE0AAA0D21
:104C2000BB1DFA161B0619F014F04F2D4A1B51112B
:104C300088C0E3FC59C07601A42FB0E2A1114FC097
:104C4000C40ED11C992309F45BC040E0D601119633
:104C5000F60190836D01552309F448C0012F060F1A
:104C60009A81582F507184FF03C0913309F4015089
:104C700010160CF047C0093008F008E0EEE2FE2EF6
:104C80005B01A01AB10885019194819491082F3F8E
:104C9000320729F4D601FC92F60131966F016217B2
:104CA000730794F1021713077CF5DB01A21BB30B0A
:104CB000AA24A394B12CAC0EBD1EAA0DBB1D119647
:104CC0008C9121503109D601119628153905F4F03F
:104CD000F60180836D01DBCFB12CA12CA0CFF701B1
:104CE000B1937F01A150AACF9111B0CFD601942FDB
:104CF00050E302C05D9391509111FCCFC40ED11CC2
:104D000040E0ACCF01E0BACF80E3DBCF621773079E
:104D100031F4963388F4953311F4552369F0F60194
:104D20008083FD01842F90E2811108C0A40FB11D82
:104D30001C9290E080E002CF81E3F1CF919381500B
:104D4000F3CF911183CF8ACF283008F027E03327A3
:104D5000DA01990F311D87FD91600096610571059B
:104D600039F432602E5F3D9330E32A95E1F70895E0
:104D70009F3F30F080387105610509F03C5F3C5F72
:104D80003D93913008F08068911DDF93CF931F937E
:104D90000F93FF92EF92192F987F9695E92F969592
:104DA0009695E90FFF27EE53FF4F99273327EE24FF
:104DB000FF24A701E70105900894079428F4360F13
:104DC000E71EF81E491F511D660F771F881F991F88
:104DD0000694A1F70590079428F4E70EF81E491FE2
:104DE000561FC11D770F881F991F661F0694A1F7D4
:104DF0000590079428F4F80E491F561FC71FD11DB0
:104E0000880F991F661F771F0694A1F705900794D6
:104E100020F4490F561FC71FD81F990F661F771F11
:104E2000881F0694A9F784911095177041F0D695C4
:104E3000C79557954795F794E7941A95C1F7E8E613
:104E4000F0E06894159015913591659195910590D4
:104E50007FE27395E118F10A430B560BC90BD00999
:104E6000C0F7E10CF11E431F561FC91FD01D7EF471
:104E7000703311F48A95E6CFE894015030F0080FB2
:104E80000AF40027021708F4202F2395022F7A3303
:104E900028F079E37D932A95E9F710C07D932A9550
:104EA00089F6069497956795379517951794E118A5
:104EB000F10A430B560BC90BD00998F023957E914C
:104EC00073957A3308F070E37C932013B8F77E91E2
:104ED00070617D9330F0839571E37D9370E32A9543
:104EE000E1F71124EF90FF900F911F91CF91DF9187
:104EF000992787FD90950895DC01FC01672F71913A
:104F00007723E1F7329704C07C916D9370836291AF
:104F1000AE17BF07C8F308950E94CE2708F481E0BA
:104F20000895E89409C097FB3EF49095809570959C
:104F300061957F4F8F4F9F4F9923A9F0F92F96E9E5
:104F4000BB279395F695879577956795B795F1115A
:104F5000F8CFFAF4BB0F11F460FF1BC06F5F7F4FF7
:104F60008F4F9F4F16C0882311F096E911C0772309
:104F700021F09EE8872F762F05C0662371F096E812
:104F8000862F70E060E02AF09A95660F771F881FE1
:104F9000DAF7880F9695879597F90895990F000885
:104FA000550FAA0BE0E8FEEF16161706E807F907FB
:104FB000C0F012161306E407F50798F0621B730B96
:104FC000840B950B39F40A2661F0232B242B252B17
:104FD00021F408950A2609F4A140A6958FEF811DBA
:104FE000811D08950E9405280C9476280E94682847
:104FF00038F00E946F2820F0952311F00C945F2860
:105000000C94652811240C94AA280E94872870F318
:10501000959FC1F3950F50E0551F629FF001729F5D
:10502000BB27F00DB11D639FAA27F00DB11DAA1F6C
:10503000649F6627B00DA11D661F829F2227B00DB9
:10504000A11D621F739FB00DA11D621F839FA00D44
:10505000611D221F749F3327A00D611D231F849F94
:10506000600D211D822F762F6A2F11249F575040EB
:105070009AF0F1F088234AF0EE0FFF1FBB1F661F66
:10508000771F881F91505040A9F79E3F510580F02F
:105090000C945F280C94AA285F3FE4F3983ED4F365
:1050A000869577956795B795F795E7959F5FC1F7D3
:1050B000FE2B880F911D9695879597F9089597F97E
:1050C0009F6780E870E060E008959FEF80EC0895AE
:1050D00000240A94161617061806090608950024D7
:1050E0000A9412161306140605060895092E039451
:1050F000000C11F4882352F0BB0F40F4BF2B11F4C5
:1051000060FF04C06F5F7F4F8F4F9F4F089557FD23
:105110009058440F551F59F05F3F71F04795880F25
:1051200097FB991F61F09F3F79F0879508951216BC
:1051300013061406551FF2CF4695F1DF08C0161668
:1051400017061806991FF1CF869571056105089419
:105150000895E894BB2766277727CB0197F9089530
:105160000E94F228A59F900DB49F900DA49F800DE2
:10517000911D112408952F923F924F925F926F924A
:105180007F928F929F92AF92BF92CF92DF92EF92D7
:10519000FF920F931F93CF93DF93CDB7DEB7CA1B58
:1051A000DB0B0FB6F894DEBF0FBECDBF09942A8883
:1051B000398848885F846E847D848C849B84AA842B
:1051C000B984C884DF80EE80FD800C811B81AA81B8
:1051D000B981CE0FD11D0FB6F894DEBF0FBECDBF83
:1051E000ED010895A29FB001B39FC001A39F700D70
:1051F000811D1124911DB29F700D811D1124911DDF
:1052000008955058BB27AA270E9419290C94762884
:105210000E94682838F00E946F2820F039F49F3FE0
:1052200019F426F40C9465280EF4E095E7FB0C9431
:105230005F28E92F0E94872858F3BA17620773077F
:105240008407950720F079F4A6F50C94A9280EF4AC
:10525000E0950B2EBA2FA02D0B01B90190010C0186
:10526000CA01A0011124FF27591B99F0593F50F49E
:10527000503E68F11A16F040A22F232F342F4427F6
:10528000585FF3CF469537952795A795F0405395EE
:10529000C9F77EF41F16BA0B620B730B840BBAF0BE
:1052A0009150A1F0FF0FBB1F661F771F881FC2F729
:1052B0000EC0BA0F621F731F841F48F4879577953D
:1052C0006795B795F7959E3F08F0B0CF9395880FF7
:1052D00008F09927EE0F9795879508950E948229E7
:1052E0000C9476280E946F2858F00E94682840F09D
:1052F00029F45F3F29F00C945F2851110C94AA28DF
:105300000C9465280E94872868F39923B1F35523EC
:1053100091F3951B550BBB27AA27621773078407C8
:1053200038F09F5F5F4F220F331F441FAA1FA9F35E
:1053300035D00E2E3AF0E0E832D091505040E6954C
:10534000001CCAF72BD0FE2F29D0660F771F881FAD
:10535000BB1F261737074807AB07B0E809F0BB0BA0
:10536000802DBF01FF2793585F4F3AF09E3F5105B4
:1053700078F00C945F280C94AA285F3FE4F3983EE1
:10538000D4F3869577956795B795F7959F5FC9F79D
:10539000880F911D9695879597F90895E1E0660F1E
:1053A000771F881FBB1F621773078407BA0720F097
:1053B000621B730B840BBA0BEE1F88F7E095089500
:1053C0000E94E7296894B1110C94AA2808950E94BC
:1053D0008F2888F09F5798F0B92F9927B751B0F0D0
:1053E000E1F0660F771F881F991F1AF0BA95C9F769
:1053F00014C0B13091F00E94A928B1E008950C9436
:10540000A928672F782F8827B85F39F0B93FCCF3E8
:10541000869577956795B395D9F73EF490958095E5
:10542000709561957F4F8F4F9F4F08950E94CE27B3
:1054300008F48FEF08950E94CE27880B990B0895EA
:1054400097FB072E16F4009407D077FD09D00E9431
:105450005C2A07FC05D03EF4909581959F4F0895F6
:10546000709561957F4F0895A1E21A2EAA1BBB1B70
:10547000FD010DC0AA1FBB1FEE1FFF1FA217B30720
:10548000E407F50720F0A21BB30BE40BF50B661F36
:10549000771F881F991F1A9469F7609570958095FA
:1054A00090959B01AC01BD01CF010895EE0FFF1F48
:1054B0000590F491E02D0994AA1BBB1B51E107C094
:1054C000AA1FBB1FA617B70710F0A61BB70B881F94
:1054D000991F5A95A9F780959095BC01CD01089523
:1054E0000F931F93CF93DF938230910510F482E0E6
:1054F00090E0E0916906F0916A0630E020E0B0E0CB
:10550000A0E0309799F42115310509F44AC0281B11
:10551000390B24303105D8F58A819B8161157105DD
:1055200089F1FB0193838283FE0111C04081518187
:105530000281138148175907E0F04817590799F479
:10554000109761F012960C93129713961C93329653
:10555000CF01DF91CF911F910F91089500936906BC
:1055600010936A06F4CF2115310551F04217530705
:1055700038F0A901DB019A01BD01DF01F801C1CFBB
:10558000EF01F9CF90936A0680936906CDCFFE01B3
:10559000E20FF31F819391932250310939832883BD
:1055A000D7CF2091670630916806232B41F42091D4
:1055B0001001309111013093680620936706209105
:1055C0000E0130910F012115310541F42DB73EB781
:1055D0004091120150911301241B350BE091670695
:1055E000F0916806E217F307A0F42E1B3F0B281773
:1055F000390778F0AC014E5F5F4F2417350748F04C
:105600004E0F5F1F509368064093670681939193F6
:105610009FCFF0E0E0E09CCFCF93DF930097E9F0DD
:10562000FC01329713821282A0916906B0916A063A
:10563000ED0130E020E01097A1F420813181820F4C
:10564000931F20916706309168062817390709F0E3
:1056500061C0F0936806E0936706DF91CF910895EB
:10566000EA01CE17DF07E8F54A815B819E0141150B
:105670005105B1F7E901FB83EA8349915991C40FC0
:10568000D51FEC17FD0761F4808191810296840F8C
:10569000951FE90199838883828193819B838A8303
:1056A000F0E0E0E012968D919C9113970097B9F588
:1056B0002D913C911197CD010296820F931F20915D
:1056C0006706309168062817390739F6309751F583
:1056D00010926A0610926906B0936806A093670656
:1056E000BCCFD383C28340815181840F951FC817DB
:1056F000D90761F44E5F5F4F88819981480F591F28
:10570000518340838A819B81938382832115310554
:1057100009F0B0CFF0936A06E09369069ECFFD01D1
:10572000DC01C0CF13821282D7CFB0E0A0E0EBE95A
:10573000FBE20C94BD288C01009751F4CB010E9430
:10574000702A8C01C801CDB7DEB7E0E10C94D928EE
:10575000FC01E60FF71F9C0122503109E217F30705
:1057600008F49DC0D901CD91DC911197C617D707D8
:1057700098F0C530D10530F3CE010497861797070E
:1057800008F3C61BD70B2297C193D1936D937C93DB
:10579000CF010E940C2BD6CF5B01AC1ABD0A4C0185
:1057A0008C0E9D1EA0916906B0916A06512C412C69
:1057B000F12CE12C109731F58091670690916806E5
:1057C0008815990509F05CC04616570608F058C0C0
:1057D00080910E0190910F01009741F48DB79EB713
:1057E0004091120150911301841B950BE817F907A2
:1057F00008F055C0F0936806E0936706F9017183DD
:105800006083A0CF8D919C91119712966C90129706
:1058100013967C901397A815B90559F56C0142E0D1
:10582000C40ED11CCA14DB0420F1AC014A195B0977
:10583000DA011296159780F0628273825183408359
:10584000D9016D937C93E114F10471F0D7011396A3
:10585000FC93EE93129776CF22968C0F9D1FF90141
:1058600091838083F301EFCFF0936A06E09369069A
:1058700069CF4816590608F42C017D01D3019ACF4F
:10588000CB010E94702A7C01009749F0AE01B8015B
:105890000E94522CC8010E940C2B870153CF10E0AC
:1058A00000E050CFFB01DC0102C001900D9241509D
:1058B0005040D8F70895FB01DC0101900D920020C3
:1058C000E1F7089510E0CFEDD0E004C0FE010E94A2
:1058D000562A2196C03ED107C9F7F894FFCFFE049F
:1058E000FFFF0200720500F099010C0D00006B062D
:1058F00080007205711772057111720571207205B1
:1059000071D172057100180000400014005400723B
:10591000056003720574017B060001037B00000033
:1059200000C10118014E010E027F015D01710100ED
:105930000000003C040F04FF0515010804F503E610
:1059400003000000006A051801FF051501C605DE09
:1059500005520500000000D00B1801FF057F036E03
:10596000616E00696E66006F76660052504D203D94
:105970000052706D00424154203D00564F4C54007F
:105980005450532056203D00566F6C005450532005
:1059900025203D002020202025004543542056206E
:1059A0003D004543542043203D00454F54205620A0
:1059B0003D00454F542043203D004941542056208E
:1059C0003D002D2D2D004941542043203D004D41E7
:1059D00050203D004B506100434B50203D00494E4C
:1059E0004A203D0020206D53006F3220564F4C540A
:1059F000203D006F322053544654203D00454E4711
:105A00004E20535453203D002D2D2D20005357542C
:105A10004320535453203D004F4E20004F46460034
:105A2000534353203D004D494C203D0053504545C4
:105A300044203D004B6D2F680050554D5020203DB7
:105A400000204144562031353000204265617420E9
:105A50004669203230313300205265766F20466926
:105A60007400204265617420506F50203230313311
:105A7000003B000D0A00416E64616C6173204C694B
:105A80006D610054656368004C6F6164696E6720E6
:105A900064617461202E0056322E30004C6F6164B8
:105AA000696E672064617461202E2E004C6F616402
:105AB000696E672064617461202E2E2E0053656E1E
:105AC000736F72204D4150003E204F4B203C0053DD
:105AD000656E736F7220454F54003E204572726FA1
