:020000040000FA
:100000000C9463000C948B000C948B000C94DE1207
:100010000C94DE120C94DE120C948B000C948B006A
:100020000C948B000C948B000C948B000C948B0024
:100030000C948B000C948B000C948B000C948B0014
:100040000C9475110C948B000C9443110C941D119D
:100050000C948B000C948B000C948B000C948B00F4
:100060000C94BF110C948B000000000024002700AA
:100070002A0000000008000201000003040700003D
:1000800000000000000000000000230026002900FE
:1000900000000000250028002B00040404040404D0
:1000A0000404020202020202030303030303010227
:1000B00004081020408001020408102001020408F6
:1000C00010205613E71D11241FBECFEFD8E0DEBF6E
:1000D000CDBF14E0A0E0B1E0E6E4F1E402C0059099
:1000E0000D92A23FB107D9F727E0A2EFB4E001C01B
:1000F0001D92A630B207E1F710E0C2E6D0E004C0DE
:100100002197FE010E947C20C136D107C9F70E94C9
:1001100028140C9496200C940000FC019C012C5F88
:100120003F4F80E09191891BE217F307D9F70895BB
:10013000089508950895AF92BF92CF92DF92EF9203
:10014000FF920F931F93CF93DF936C017B018B0181
:10015000040F151FEB015E01AE18BF08C017D107D1
:1001600059F06991D601ED91FC910190F081E02D5B
:10017000C6010995892B79F7C501DF91CF911F91B0
:100180000F91FF90EF90DF90CF90BF90AF900895C8
:10019000FC01538D448D252F30E0842F90E0821B8D
:1001A000930B541710F0CF96089501970895FC0112
:1001B000918D828D981761F0A28DAE0FBF2FB11D6A
:1001C0005D968C91928D9F5F9F73928F90E00895C2
:1001D0008FEF9FEF0895FC01918D828D981731F07C
:1001E000828DE80FF11D858D90E008958FEF9FEFD0
:1001F0000895FC01918D228D892F90E0805C9F4FA6
:10020000821B91098F739927089582E396E00E94DB
:10021000F90021E0892B09F420E0822F089580E085
:1002200090E0892B29F00E94050181110C940000B7
:100230000895FC01A48DA80FB92FB11DA35ABF4F7B
:100240002C91848D90E001968F739927848FA689D5
:10025000B7892C93A089B1898C91837080648C9329
:10026000938D848D981306C00288F389E02D8081D8
:100270008F7D80830895EF92FF920F931F93CF930A
:10028000DF93EC0181E0888F9B8D8C8D98131AC0D1
:10029000E889F989808185FF15C09FB7F894EE89B8
:1002A000FF896083E889F989808183708064808315
:1002B0009FBF81E090E0DF91CF911F910F91FF9060
:1002C000EF900895F62E0B8D10E00F5F1F4F0F7308
:1002D0001127E02E8C8D8E110CC00FB607FCFACFC3
:1002E000E889F989808185FFF5CFCE010E94190147
:1002F000F1CFEB8DEC0FFD2FF11DE35AFF4FF08294
:100300009FB7F8940B8FEA89FB8980818062CFCFF9
:10031000CF93DF93EC01888D8823B9F0AA89BB893C
:10032000E889F9898C9185FD03C0808186FD0DC027
:100330000FB607FCF7CF8C9185FFF2CF808185FF48
:10034000EDCFCE010E941901E9CFDF91CF91089541
:10035000833081F028F4813099F08230A9F008953B
:100360008730A9F08830C9F08430B1F480918000E2
:100370008F7D03C0809180008F77809380000895E7
:1003800084B58F7784BD089584B58F7DFBCF809130
:10039000B0008F778093B00008958091B0008F7D7A
:1003A000F9CFCF93DF93282F30E0F901EE58FF4FBC
:1003B0008491F901E255FF4FD491F901E656FF4FC0
:1003C000C491CC23A1F081110E94A801EC2FF0E090
:1003D000EE0FFF1FEA57FF4FA591B491EC91ED236B
:1003E00081E090E009F480E0DF91CF91089580E012
:1003F00090E0FACF1F93CF93DF93282F30E0F901DD
:10040000EE58FF4F8491F901E255FF4FD491F90165
:10041000E656FF4FC491CC23A9F0162F81110E94FC
:10042000A801EC2FF0E0EE0FFF1FE057FF4FA59162
:10043000B4918FB7F894EC91111108C0D095DE23D8
:10044000DC938FBFDF91CF911F910895DE2BF8CF02
:10045000CF93DF9390E0FC01E255FF4F2491865645
:100460009F4FFC0184918823C9F090E0880F991F69
:10047000FC01E859FF4FA591B491FC01E057FF4FF3
:10048000C591D49161110DC09FB7F8948C912095BE
:1004900082238C938881282328839FBFDF91CF916B
:1004A0000895623051F49FB7F8943C91822F809563
:1004B00083238C93E8812E2BEFCF8FB7F894EC91A8
:1004C0002E2B2C938FBFEACF3FB7F89480911D0657
:1004D00090911E06A0911F06B091200626B5A89BFC
:1004E00005C02F3F19F00196A11DB11D3FBFBA2FC6
:1004F000A92F982F8827BC01CD01620F711D811D86
:10050000911D42E0660F771F881F991F4A95D1F70A
:1005100008958F929F92AF92BF92CF92DF92EF9207
:10052000FF924B015C010E9464026B017C010E94FE
:1005300064026C197D098E099F09683E734081052C
:100540009105A8F321E0821A9108A108B10888EE6C
:10055000C80E83E0D81EE11CF11C81149104A10493
:10056000B10429F7FF90EF90DF90CF90BF90AF904C
:100570009F908F9008952FB7F8946091190670910D
:100580001A0680911B0690911C062FBF08950895AE
:100590002091A705260F3327331F21323105ECF4B4
:1005A0002091F005FC0190E080E0243069F082E0C9
:1005B0000895A091A7052191AC0149575A4FA40F66
:1005C000B52FB11D2C930196861798F38091A7053E
:1005D000680F6093A70580E0089581E00895109268
:1005E000F00581E08093EF051092CA0561E082E199
:1005F0000E94FA0161E083E10E94FA01E9EBF0E078
:1006000080818E7F808380818D7F808388E480934A
:10061000B80085E48093BC000895CF93DF9391E008
:10062000909386058823B9F0C091B800D091BA00A4
:100630008091BC008A7B8093BC0060E082E10E94D4
:10064000FA0160E083E10E94FA010E94EF02D09378
:10065000BA00C093B800DF91CF910895E0912806C9
:1006600080912706E81730F4F0E0EA59FA4F8081CC
:1006700090E008958FEF9FEF089590912806809164
:1006800027062FEF3FEF981748F4E92FF0E0EA59DB
:10069000FA4F208130E09F5F90932806C9010895AA
:1006A0008091270690912806891B990B0895CF9277
:1006B000DF92EF92FF920F931F93CF93DF937C0112
:1006C000CB018A012091F605222389F0EB016B0111
:1006D000C40ED51ECC15DD0569F06991D701ED91E9
:1006E000FC910190F081E02DC7010995F3CF642FB3
:1006F0000E94C802C801DF91CF911F910F91FF9016
:10070000EF90DF90CF900895CF93DF931F92CDB7F6
:10071000DEB769832091F6052223F9F020912506A2
:10072000203258F021E030E0FC013383228390E056
:1007300080E00F90DF91CF91089580912606E82FF9
:10074000F0E0E950FA4F998190838F5F80932606FD
:100750008093250681E090E0ECCF61E0CE01019628
:100760000E94C802F7CFCF92DF92EF92FF920F93D1
:100770001F93CF93DF93FC01C48121E02093F60502
:10078000C093170610922606109225068385682BC3
:100790008FEC96E00E948403D0912506D13208F0B8
:1007A00092C00E9464026B017C018091F00581116E
:1007B00065C082E08093F00581E08093EF058FEFC4
:1007C0008093EE051092ED05D093EC05A7EFB5E010
:1007D000ECECF5E080E0D81385C01092CB05809159
:1007E000CB05CC0FC82BC093CB058091CA058130B7
:1007F00009F07CC01092CA050E9464026B017C0162
:100800008091CB058093BB008091F2059091F30518
:10081000A091F405B091F505892B8A2B8B2B99F0CB
:100820000E9464020091F2051091F3052091F405F5
:100830003091F5056C197D098E099F090617170778
:1008400028073907E0F18091BC0083FDD9CF85EC02
:100850008093BC000E9464026B017C018091F005D2
:10086000823009F445C08091EE058F3F61F180919F
:10087000EE05803241F18091EE0525C08091F205B0
:100880009091F305A091F405B091F505892B8A2B81
:100890008B2B09F48ACF0E9464020091F20510911B
:1008A000F3052091F4053091F5056C197D098E0949
:1008B0009F09061717072807390708F076CF809198
:1008C000F1050E940D031092260610922506109243
:1008D000F605DF91CF911F910F91FF90EF90DF9080
:1008E000CF9008959D9191938F5F75CF85EEB0CF96
:1008F0008091F2059091F305A091F405B091F50572
:10090000892B8A2B8B2B09F4A9CF0E9464020091BA
:10091000F2051091F3052091F4053091F5056C195D
:100920007D098E099F09061717072807390708F060
:1009300095CFC5CF20912B0630912C06281739076B
:1009400071F49091290680912A06981741F0E09160
:100950002906F0E0EA5DFA4F808190E008958FEF7C
:100960009FEF0895EF92FF920F931F93CF93DF9322
:10097000DC015C96ED90FC905D97E114F10479F454
:1009800081E090E013969C938E93129790E080E024
:10099000DF91CF911F910F91FF90EF9008955196A5
:1009A000ED91FC91529750968C915097982F90957D
:1009B0000FB75E962C915E97122F127021FD6095F5
:1009C000F8942081112319F1282B2083E701219726
:1009D000F1F728E0462F50E0308160FF1AC0382B35
:1009E0003083E7012197F1F7BA017595679521509A
:1009F00089F7112381F08081892380830FBF5C9662
:100A00008D919C910197F1F781E090E0C1CF29236E
:100A1000DCCF3923E5CF9081892BEFCF20912B06B6
:100A200030912C062817390771F480912A062091FD
:100A3000290690E0805C9F4F821B910960E470E082
:100A40000E944620089590E080E0089520912B06B2
:100A500030912C0628173907B9F490912906809116
:100A60002A06981789F0E0912906F0E0EA5DFA4F2E
:100A700080812091290630E02F5F3F4F2F7333276D
:100A80002093290690E008958FEF9FEF089590E05E
:100A900080E00895DF92EF92FF920F931F93CF9320
:100AA000DF93CDB7DEB7C259D1090FB6F894DEBFD8
:100AB0000FBECDBF80910C0190910D01A0910E0150
:100AC000B0910F01C557DF4F88839983AA83BB83F9
:100AD000CB58D040CE0185579F4F0E948D008E018C
:100AE0000F571F4F92E7D92EF801D08225E0E22E52
:100AF000E18231E7F32EF28290E29383848345E032
:100B000050E0B8018BED96E00E949B0062E370E03C
:100B100080E090E00E948902809110019091110183
:100B2000A0911201B0911301C157DF4F88839983BF
:100B3000AA83BB83CF58D040CE0181579F4F0E94DC
:100B40008D00CA57DF4FD882C658D040C957DF4FF3
:100B5000E882C758D040C857DF4FF882C858D04005
:100B600091EDC757DF4F9883C958D040C657DF4F24
:100B70008883CA58D04045E050E0BE016A577F4F95
:100B80008BED96E00E949B0062E370E080E090E0D5
:100B90000E948902CE0101967C018BED96E00E94B5
:100BA0000E05181619065CF40E151F0541F08BEDA5
:100BB00096E00E942605F70181937F01EECF6985BB
:100BC00070E090E080E00E941D1F20E030E040EAED
:100BD00050E40E94D41F20E030E040E85BE30E9434
:100BE000D41F6093FA047093FB048093FC049093E9
:100BF000FD046A8570E0660F672F661F770B072E6E
:100C0000000C880B990B0E941F1F6093F6047093D1
:100C1000F7048093F8049093F904809131068111D0
:100C200015C08A8D8093F5048F898093F404CE5685
:100C3000DF4F0FB6F894DEBF0FBECDBFDF91CF916F
:100C40001F910F91FF90EF90DF9008959FEF980F05
:100C5000923028F4898D8093F5048C89E6CF833017
:100C600031F78A8D8093F5048D89DFCF0F931F9321
:100C7000CF938C01C62F0E94B3036C2F6460C80110
:100C80000E94B3036C2F6B7FC8010E94B30383ECF7
:100C900090E00197F1F7CF911F910F9108950F9375
:100CA0001F93CF93DF938C01D62FC42F607F642BCB
:100CB0000E94360680E1D89FB00111246C2BC80138
:100CC000DF91CF911F910F910C943606CF93DF9354
:100CD000CDB7DEB728970FB6F894DEBF0FBECDBFF5
:100CE00098E0E4E1F1E0DE01119601900D929A9511
:100CF000E1F790910207961708F46FEF262F30E086
:100D0000220F331F41E050E04C0F5D1F240F351FB1
:100D1000F9016081680F606840E08AEF96E02896EC
:100D20000FB6F894DEBF0FBECDBFDF91CF910C940C
:100D30004F0640E061E08AEF96E00E944F068BE3A9
:100D40009FE10197F1F7089541E00E944F0681E08D
:100D500090E0089541E0682F8AEF96E00E944F06E8
:100D600081E090E00895FB0101900020E9F73197C0
:100D7000AF01461B570BDC01ED91FC910280F38122
:100D8000E02D09948F929F92AF92BF92EF92FF92C3
:100D90000F931F93CF93DF93CDB7DEB7A1970FB615
:100DA000F894DEBF0FBECDBF7C01FA01CB0119A2C2
:100DB000223008F42AE08E010F5D1F4F822E912C05
:100DC000B12CA12CBF01A50194010E945A20F90168
:100DD000CA016A300CF5605DD8016E938D01232B3A
:100DE000242B252B79F790E080E0109721F0BD01AE
:100DF000C7010E94B306A1960FB6F894DEBF0FBEDE
:100E0000CDBFDF91CF911F910F91FF90EF90BF90D9
:100E1000AF909F908F900895695CDECFCF92DF9264
:100E2000EF92FF92CF93DF936C01990FEE08FF08CA
:100E30006A307105E1F42AE0F7FE1AC08DE20E94E3
:100E4000AA06EC0144275527BA014C195D096E0921
:100E50007F092AE08AEF96E00E94C2068C0F9D1F50
:100E6000DF91CF91FF90EF90DF90CF900895262FE4
:100E7000B701A6018AEF96E0DF91CF91FF90EF9046
:100E8000DF90CF900C94C2064F925F926F927F9248
:100E90008F929F92AF92BF92CF92DF92EF92FF928A
:100EA000CF93DF936B017C01942EAC019B010E94D8
:100EB00041206EE671E0811126C026013701E894D9
:100EC00077F82FEF3FEF4FE75FE7C301B2010E94D2
:100ED000412081110CC02FEF3FEF4FE75FE7C301C7
:100EE000B2010E94701E62E771E0181664F02FEFE5
:100EF0003FEF4FE75FE4C701B6010E94CF1F18160E
:100F0000A4F466E771E08AEF96E0DF91CF91FF905D
:100F1000EF90DF90CF90BF90AF909F908F907F9099
:100F20006F905F904F900C94B3062FEF3FEF4FE719
:100F30005FECC701B6010E94701E87FDE2CF20E082
:100F400030E0A901C701B6010E94701EB12CA12C8E
:100F500087FF08C08DE20E94AA065C01F7FAF094B0
:100F6000F7F8F094C92D60E070E080E09FE3D0E0F6
:100F700020E030E040E251E40E94751E21E02D0F98
:100F8000D1E02915A8F3A70196010E94041E2B01A8
:100F90003C010E94EE1E6B017C010E941D1F9B0103
:100FA000AC01C301B2010E94031E2B013C012AE0E7
:100FB000B701A6018AEF96E00E94C2067C018EE28C
:100FC0000E94AA06E80EF91EEA0CFB1CC15028F18B
:100FD00020E030E040E251E4C301B2010E94D41F9E
:100FE0002B013C010E94EE1E4B01B12CA12C2AE0EA
:100FF000B501A4018AEF96E00E94C206E80EF91E30
:10100000C501B4010E941D1F9B01AC01C301B201C7
:101010000E94031E2B013C01D9CFC701DF91CF9164
:10102000FF90EF90DF90CF90BF90AF909F908F9008
:101030007F906F905F904F900895CF93DF93BC01A6
:1010400082E396E00E94B306EC016AE771E082E376
:1010500096E00E94B3068C0F9D1FDF91CF910895FB
:101060000C94B3068F929F92AF92BF92CF92DF9271
:10107000EF92FF920F931F93CF93DF93CDB7DEB71D
:10108000C958D1090FB6F894DEBF0FBECDBF0E947C
:10109000BB024B015C0180911C0190911D01A0914C
:1010A0001E01B0911F01CA57DF4F88839983AA831D
:1010B000BB83C658D040CE018A579F4F0E948D00F7
:1010C00092E7CF57DF4F9883C158D04095E0CE5775
:1010D000DF4F9883C258D04091E7CD57DF4F9883B8
:1010E000C358D04091E1CC57DF4F9883C458D040CB
:1010F000CB57DF4F8883C558D04045E050E0BE0154
:101100006F577F4F8BED96E00E949B0062E370E08B
:1011100080E090E00E9489029E012F5F3F4F6901AD
:10112000790110E000E08BED96E00E940E051816A4
:1011300019066CF40038110551F08BED96E00E9411
:1011400026050F5F1F4FF70181937F01ECCF809140
:101150002D0690912E06A0912F06B0913006A50184
:101160009401281B390B4A0B5B0BDA01C901853F3F
:101170009140A105B10530F46DE771E082E396E09E
:101180000E94300880922D0690922E06A0922F0683
:10119000B0923006F12CE12C580141E0A41AB108BC
:1011A0000E151F05C1F0F60141916F0150E070E08E
:1011B00060E02AE082E396E00E94C206AE14BF041B
:1011C00031F063E871E082E396E00E943008FFEFBF
:1011D000EF1AFF0AE5CF6AE771E082E396E00E942A
:1011E000B3068A8590E0982F8827990F2B85820F68
:1011F000911D90932505809324056C8570E090E007
:1012000080E00E941D1F20E030E040EA50E40E9490
:10121000D41F20E030E040E85BE30E94D41F6093DD
:101220001C0570931D0580931E0590931F058D85E9
:101230002AE0829FC001112434E0959587953A9564
:10124000E1F790931B0580931A056E8570E090E09E
:1012500080E00E941D1F20E030E040EA50E40E9440
:10126000D41F20E030E040E85BE30E94D41F60938D
:1012700010057093110580931205909313058F85C7
:101280008852990B90930F0580930E05688970E042
:1012900090E080E00E941D1F20E030E040EA50E432
:1012A0000E94D41F20E030E040E85BE30E94D41F9E
:1012B0006093160570931705809318059093190590
:1012C00089898852990B90931505809314056A8932
:1012D00070E090E080E00E941D1F20E030E040EAD6
:1012E00050E40E94D41F20E030E040E85BE30E941D
:1012F000D41F0E94E71E70930D0560930C058B8927
:101300008852990B90930B0580930A056C8970E0C5
:1013100090E080E00E941D1F20E030E040EA50E4B1
:101320000E94D41F20E030E040E85BE30E94D41F1D
:101330000E94E71E70930905609308058D8990E06F
:1013400090930705809306058E8990E06AE070E02F
:101350000E944620072E000C880B990B0E941F1F2D
:1013600060932005709321058093220590932305B7
:101370006F8970E090E080E00E941F1F20E030EC59
:1013800044E853E40E94D41F2CEE31E143E852E4D8
:101390000E94751E609302057093030580930405F7
:1013A00090930505888D8054990B20E5289FB00106
:1013B000299F700D112477FF02C061507F4F672F66
:1013C000770F770B072E000C880B990B0E941F1FBD
:1013D0006093FE047093FF048093000590930105D1
:1013E000898D90E09093F3048093F204C757DF4F08
:1013F0000FB6F894DEBF0FBECDBFDF91CF911F9126
:101400000F91FF90EF90DF90CF90BF90AF909F90A3
:101410008F9008958F929F92AF92BF92CF92DF925A
:10142000EF92FF920F931F93CF93DF93CDB7DEB769
:10143000C958D1090FB6F894DEBF0FBECDBF0E94C8
:10144000BB024B015C018091200190912101A09190
:101450002201B0912301CA57DF4F88839983AA8361
:10146000BB83C658D040CE018A579F4F0E948D0043
:1014700092E7CF57DF4F9883C158D04095E0CE57C1
:10148000DF4F9883C258D04091E7CD57DF4F988304
:10149000C358D04097E1CC57DF4F9883C458D04011
:1014A000CB57DF4F8883C558D04045E050E0BE01A0
:1014B0006F577F4F8BED96E00E949B0062E370E0D8
:1014C00080E090E00E9489029E012F5F3F4F6901FA
:1014D000790110E000E08BED96E00E940E051816F1
:1014E00019066CF40038110551F08BED96E00E945E
:1014F00026050F5F1F4FF70181937F01ECCF80918D
:101500002D0690912E06A0912F06B0913006A501D0
:101510009401281B390B4A0B5B0BDA01C901853F8B
:101520009140A105B10530F46DE771E082E396E0EA
:101530000E94300880922D0690922E06A0922F06CF
:10154000B0923006F12CE12C580141E0A41AB10808
:101550000E151F05C1F0F60141916F0150E070E0DA
:1015600060E02AE082E396E00E94C206AE14BF0467
:1015700031F063E871E082E396E00E943008FFEF0B
:10158000EF1AFF0AE5CF6AE771E082E396E00E9476
:10159000B3068A8590E0982F88272B85820F911DAE
:1015A00090932505809324056C8570E090E080E0A1
:1015B0000E941D1F20E030E040EA50E40E94D41F4A
:1015C00020E030E040E85BE30E94D41F60931C05FC
:1015D00070931D0580931E0590931F058D852AE04D
:1015E000829FC001112434E0959587953A95E1F7E3
:1015F00090931B0580931A056E8570E090E080E063
:101600000E941D1F20E030E040EA50E40E94D41FF9
:1016100020E030E040E85BE30E94D41F60931005B7
:101620007093110580931205909313052F8528520E
:10163000330B30930F0520930E05609316057093BE
:10164000170580931805909319053093150520937D
:101650001405688970E090E080E00E941D1F20E082
:1016600030E040EA50E40E94D41F20E030E040E83F
:101670005BE30E94D41F0E94E71E70930D056093E8
:101680000C0589898852990B90930B0580930A0564
:101690006A8970E090E080E00E941D1F20E030E049
:1016A00040EA50E40E94D41F20E030E040E85BE3D1
:1016B0000E94D41F0E94E71E7093090560930805DD
:1016C0008B8990E090930705809306058C8990E0C4
:1016D0006AE070E00E944620072E000C880B990BF0
:1016E0000E941F1F6093200570932105809322059F
:1016F000909323056D8970E090E080E00E941F1FA9
:1017000020E030EC44E853E40E94D41F2CEE31E199
:1017100043E852E40E94751E60930205709303052E
:1017200080930405909305058E898054990B20E5DC
:10173000289FB001299F700D112477FF02C06150CE
:101740007F4F672F770F770B072E000C880B990BB5
:101750000E941F1F6093FE047093FF048093000596
:10176000909301058F8990E09093F3048093F204A5
:10177000C757DF4F0FB6F894DEBF0FBECDBFDF9166
:10178000CF911F910F91FF90EF90DF90CF90BF907E
:10179000AF909F908F9008958F929F92AF92BF923B
:1017A000CF92DF92EF92FF920F931F93CF93DF932D
:1017B000CDB7DEB7C958D1090FB6F894DEBF0FBE5A
:1017C000CDBF0E94BB024B015C0180912001909132
:1017D0002101A0912201B0912301CA57DF4F8883D4
:1017E0009983AA83BB83C658D040CE018A579F4FA6
:1017F0000E948D0092E7CF57DF4F9883C158D040A9
:1018000095E0CE57DF4F9883C258D04091E7CD572F
:10181000DF4F9883C358D04097E1CC57DF4F988370
:10182000C458D040CB57DF4F8883C558D04045E0DF
:1018300050E0BE016F577F4F8BED96E00E949B00FA
:1018400062E370E080E090E00E9489029E012F5FD9
:101850003F4F6901790110E000E08BED96E00E94B6
:101860000E05181619066CF40038110551F08BEDB1
:1018700096E00E9426050F5F1F4FF70181937F01BD
:10188000ECCF80912D0690912E06A0912F06B0915D
:101890003006A5019401281B390B4A0B5B0BDA01BA
:1018A000C901853F9140A105B10530F465E871E0BB
:1018B00082E396E00E94300880922D0690922E06D8
:1018C000A0922F06B0923006F12CE12C580141E095
:1018D000A41AB1080E151F05C1F0F60141916F0160
:1018E00050E070E060E02AE082E396E00E94C206E9
:1018F000AE14BF0431F063E871E082E396E00E9429
:101900003008FFEFEF1AFF0AE5CF6AE771E082E3E4
:1019100096E00E94B306898590E0982F88272A8553
:10192000820F911D90932505809324056B8570E0AF
:1019300090E080E00E941D1F20E030E040EA50E48B
:101940000E94D41F20E030E040E85BE30E94D41FF7
:1019500060931C0570931D0580931E0590931F05D1
:101960008C852AE0829FC001112434E095958795EB
:101970003A95E1F790931B0580931A056D8570E009
:1019800090E080E00E941D1F20E030E040EA50E43B
:101990000E94D41F20E030E040E85BE30E94D41FA7
:1019A00060931005709311058093120590931305B1
:1019B0002E852852330B30930F0520930E0560932C
:1019C00016057093170580931805909319053093A9
:1019D0001505209314056F8570E090E080E00E946B
:1019E0001D1F20E030E040EA50E40E94D41F20E0B8
:1019F00030E040E85BE30E94D41F0E94E71E709332
:101A00000D0560930C0588898852990B90930B05FE
:101A100080930A05698970E090E080E00E941D1FB4
:101A200020E030E040EA50E40E94D41F20E030E0A3
:101A300040E85BE30E94D41F0E94E71E70930905F3
:101A4000609308058A8990E09093070580930605C6
:101A50008B8990E06AE070E00E944620072E000C1F
:101A6000880B990B0E941F1F60932005709321051E
:101A700080932205909323056C8970E090E080E0CC
:101A80000E941F1F20E030EC44E853E40E94D41F62
:101A90002CEE31E143E852E40E94751E609302058A
:101AA0007093030580930405909305058D898054F8
:101AB000990B20E5289FB001299F700D112477FF15
:101AC00002C061507F4F672F770F770B072E000CF6
:101AD000880B990B0E941F1F6093FE047093FF04F4
:101AE00080930005909301058F8990E09093F30413
:101AF0008093F204C757DF4F0FB6F894DEBF0FBED6
:101B0000CDBFDF91CF911F910F91FF90EF90DF90AC
:101B1000CF90BF90AF909F908F9008950E94BB028E
:101B200080913106811149C00E94320886E00E94EE
:101B3000D101892B91F480910B018F5F80930B0170
:101B40000E94990666E970E080E090E00E948902B8
:101B500086E00E94D101892BD9F385E00E94D10152
:101B6000892B91F480910B01815080930B010E948D
:101B7000990666E970E080E090E00E94890285E0C5
:101B80000E94D101892BD9F3E0910B01EF3008F0CD
:101B90001BC3F0E0E253F24F0C947C20EA0DEE0DF3
:101BA000320E7F0EC70E000F510FAA0FF60F341022
:101BB0006D107E10BD10BF10BD109FEF980F9230BA
:101BC00018F40E94CC0BB2CF833009F0AFCF0E9443
:101BD0000A0AACCF8BE080930B01089560E080E0AF
:101BE0000E94660663E971E08AEF96E00E94300881
:101BF00060E08CE00E94660669E971E08AEF96E099
:101C00000E94300860E086E00E9466066AE070E0AC
:101C100080912405909125050E940E0761E080E0E7
:101C20000E9466066DE971E08AEF96E00E94300836
:101C300061E086E00E9466066091200570912105B2
:101C4000809122059091230542E050E00E944407D4
:101C500061E08CE00E94660663EA71E08AEF96E03C
:101C60000C94300860E080E00E94660668EA71E04B
:101C70008AEF96E00E94300860E088E00E946606E5
:101C800060911C0570911D0580911E0590911F05A6
:101C900042E050E00E94440760E08DE00E9466064A
:101CA00060EB71E08AEF96E00E94300861E080E02E
:101CB0000E94660664EB71E08AEF96E00E943008AD
:101CC00061E088E00E9466066AE070E080911A0593
:101CD00090911B050E940E0780911A0590911B059B
:101CE00061E00A9734F489E00E9466066CEB71E0CB
:101CF000B5CF8DE00E94660660EC71E0AFCF60E08A
:101D000080E00E94660662EC71E08AEF96E00E9435
:101D1000300860E088E00E946606609116057091C8
:101D20001705809118059091190542E050E00E9436
:101D3000440760E08DE00E94660660EB71E08AEF88
:101D400096E00E94300861E080E00E9466066AEC3E
:101D500071E08AEF96E00E94300861E088E00E941E
:101D600066066AE070E080911405909115050E9466
:101D70000E0761E08DE00E9466068FED0E94AA06C4
:101D800061E08EE00E94660666E574E067CF60E081
:101D900080E00E94660662ED71E08AEF96E00E94A4
:101DA000300860E088E00E9466066091100570913E
:101DB0001105809112059091130542E050E00E94B8
:101DC000440760E08DE00E94660660EB71E08AEFF8
:101DD00096E00E94300861E080E00E9466066AEDAD
:101DE00071E08AEF96E00E94300861E088E00E948E
:101DF00066066AE070E080910E0590910F05B7CFFE
:101E000060E080E00E94660662EE71E08AEF96E094
:101E10000E9430088091310660E081112EC088E078
:101E20000E94660662E070E080910C0590910D05BD
:101E30000E940E0760E08DE00E94660660EB71E094
:101E40008AEF96E00E94300861E080E00E9466061A
:101E50006EEE71E08AEF96E00E94300880913106C4
:101E600061E0811114C088E00E9466066AE070E0BB
:101E700080910A0590910B057ACF88E00E94660652
:101E80006AEE71E08AEF96E00E943008D3CF88E0D6
:101E90000E9466066AEE71E08AEF96E00E943008C2
:101EA00068CF60E080E00E94660666EF71E08AEF2E
:101EB00096E00E9430088091310660E0811136C0C2
:101EC00086E00E94660662E070E0809108059091CD
:101ED00009050E940E0760E08DE00E94660660EB37
:101EE00071E08AEF96E00E94300861E080E00E9495
:101EF000660666EF71E08AEF96E00E9430088091F6
:101F0000310661E081111CC086E00E9466066AE02D
:101F100070E080910605909107050E940E0761E030
:101F20008DE00E9466066CEF71E098CE86E00E941C
:101F300066066AEE71E08AEF96E00E943008CBCF29
:101F400086E00E9466066AEE71E08AEF96E00E94E3
:101F50003008E5CF60E080E00E94660660E072E055
:101F60008AEF96E00E94300860E087E00E946606F3
:101F7000609102057091030580910405909105051B
:101F800041E050E00E94440760E08BE00E9466065A
:101F900068E674E08AEF96E00E94300860E08DE029
:101FA0000E9466068FED0E94AA0661E080E00E9412
:101FB000660666E072E08AEF96E00E94300861E013
:101FC00087E00E9466066091FE047091FF04809194
:101FD00000059091010541E050E00E94440761E056
:101FE0008BE00E9466066CE072E038CE60E080E034
:101FF0000E94660661E172E08AEF96E00E94300876
:1020000060E08AE00E9466066091FA047091FB0429
:102010008091FC049091FD0442E050E00E9444074E
:1020200060E08FE00E94660661E174E08AEF96E06E
:102030000E94300861E080E00E9466066BE172E079
:102040008AEF96E00E94300861E08AE00E9466060E
:102050006091F6047091F7048091F8049091F9046E
:1020600042E050E00C94440760E080E00E94660685
:1020700065E272E08AEF96E00E9430088091F504F4
:1020800060E08A30F1F48BE00E94660660E372E063
:102090008AEF96E00E94300861E080E00E946606C8
:1020A00065E372E08AEF96E00E9430088091F404C4
:1020B00061E0823061F48BE00E94660660E472E0C9
:1020C000CDCD8BE00E9466066AEE71E0E1CF8BE039
:1020D0000E94660664E472E0C1CD60E080E00E9488
:1020E000660668E472E08AEF96E00E94300861E0DC
:1020F00080E00E9466066EE472E0B0CD60E080E0B1
:102100000E94660664E572E08AEF96E00E9430085D
:102110008091310660E0811126C088E00E94660649
:102120006AE070E08091F2049091F3040E940E073F
:1021300060E08CE00E9466066CE572E08AEF96E053
:102140000E94300861E080E00E94660661E672E06D
:102150008AEF96E00E94300861E088E00E946606FF
:102160006AEE71E07BCD88E00E9466066AEE71E05F
:102170008AEF96E00E943008DBCF81E02CCD809181
:102180003106811107C060E083E00E94660669E6BF
:1021900072E064CD813031F460E00E94660662E74F
:1021A00072E05CCD823039F460E083E00E94660624
:1021B00060E872E053CD833039F460E080E00E9443
:1021C00066066AE872E04ACD089585ED8093BC000A
:1021D0008091F2059091F305A091F405B091F50579
:1021E0000796A11DB11D23E0B695A79597958795F4
:1021F0002A95D1F72091BC0024FD03C01092F00570
:1022000008954091F2055091F3056091F4057091A5
:10221000F505452B462B472B69F30097A105B10522
:1022200041F025E32A95F1F700000197A109B109D2
:10223000E1CF8091F1050C940D031F920F920FB620
:102240000F9211242F933F934F935F936F937F933C
:102250008F939F93AF93BF93EF93FF9382E396E0A7
:102260000E941901FF91EF91BF91AF919F918F91C2
:102270007F916F915F914F913F912F910F900FBE82
:102280000F901F9018951F920F920FB60F92112466
:102290002F938F939F93EF93FF93E0914206F091DA
:1022A00043068081E0914806F091490682FD1BC0FB
:1022B000908180914B068F5F8F7320914C0682171F
:1022C00041F0E0914B06F0E0EE5CF94F958F809382
:1022D0004B06FF91EF919F918F912F910F900FBE21
:1022E0000F901F9018958081F4CF1F920F920FB618
:1022F0000F9211242F933F938F939F93AF93BF938C
:102300008091190690911A06A0911B06B0911C06A7
:102310003091180623E0230F2D3758F50196A11DA3
:10232000B11D209318068093190690931A06A09366
:102330001B06B0931C0680911D0690911E06A0916D
:102340001F06B09120060196A11DB11D80931D06A8
:1023500090931E06A0931F06B0932006BF91AF91E5
:102360009F918F913F912F910F900FBE0F901F90D3
:10237000189526E8230F0296A11DB11DD2CF1F92FA
:102380000F920FB60F9211242F933F934F935F93A9
:102390006F937F938F939F93AF93BF93EF93FF932D
:1023A0008091B900887F803609F44AC0F0F5883200
:1023B00009F4A7C018F5803109F49BC0B8F488234C
:1023C00009F4F9C0883009F494C0FF91EF91BF91EE
:1023D000AF919F918F917F916F915F914F913F91BD
:1023E0002F910F900FBE0F901F901895883109F410
:1023F00088C0803251F78093EE0514C0803409F410
:102400009DC040F48033B9F38833F9F68093EE052C
:1024100085ECB0C0803509F485C0883509F496C0D4
:10242000883499F60E94E510D0CF883909F48CC021
:1024300038F5883729F050F4883611F0803729F6BE
:1024400083E08093F0051092C90557C0883809F4DD
:102450007BC0803919F0803809F0B7CF8091C90569
:10246000803208F071C0E091C90581E08E0F809341
:10247000C9058091BB00F0E0E755FA4F80833DC06D
:10248000803B39F0E0F4803A09F479C0883A09F0E9
:102490009CCF84E08093F0051092A8051092A705C8
:1024A000E0912306F091240609958091A7058111FA
:1024B0000FC081E08093A7051092870509C0803C7A
:1024C00009F4A6CF883C09F4A3CF883B09F07DCF5F
:1024D000E091A80581E08E0F8093A805F0E0E95710
:1024E000FA4F80818093BB009091A8058091A70549
:1024F00029C08091CB058093BB0085EC8093BC0004
:1025000064CF9091ED058091EC05981758F5E09116
:10251000ED0581E08E0F8093ED05F0E0E453FA4F76
:102520008081E9CFE091ED0581E08E0F8093ED058C
:102530008091BB00F0E0E453FA4F80839091ED0569
:102540008091EC059817C8F285E8D8CFE091ED05A9
:1025500081E08E0F8093ED058091BB00F0E0E453A5
:10256000FA4F80838091EF0581115CCF81E08093E9
:10257000CA0584EA8093BC001092F00526CF85EC52
:102580008093BC001092F0058091C905803230F430
:10259000E091C905F0E0E755FA4F10826091C90556
:1025A00070E0E0912106F091220689EA95E0099514
:1025B0001092C9050ACF1092EE0534CF1F920F92E8
:1025C0000FB60F9211242F933F934F935F936F9306
:1025D0007F938F939F93AF93BF93EF93FF93E0917C
:1025E0002B06F0912C06309749F0A685B785858596
:1025F000968D91FF14C09C918923A1F4FF91EF91D6
:10260000BF91AF919F918F917F916F915F914F910A
:102610003F912F910F900FBE0F901F9018959C9196
:10262000892361F7A389B4899C9185898095892341
:102630008C93868997890197F1F7608D718DA685B6
:10264000B785558538E020E0CB010197F1F7822F5F
:1026500090E095958795282F4C91452309F02068A7
:10266000315091F7868D81FD209580912A0690E06A
:1026700001968F73992730912906381799F0A09108
:102680002A06B0E0AA5DBA4F2C9380932A06828D69
:10269000938D0197F1F7A389B4898C919589892B42
:1026A0008C93ACCF868D8160868FF1CF10923506EA
:1026B0001092340688EE93E0A0E0B0E080933606F6
:1026C00090933706A0933806B093390620E331E0A3
:1026D000309333062093320625EC30E030933F06EA
:1026E00020933E0624EC30E03093410620934006D0
:1026F00020EC30E0309343062093420621EC30E09A
:10270000309345062093440622EC30E03093470690
:102710002093460626EC30E0309349062093480685
:1027200010924B0610924C0610924D0610924E06D7
:102730001092D2061092D1068093D3069093D406BD
:10274000A093D506B093D60622E431E03093D006AC
:102750002093CF061092FD061092FC0626E631E08B
:102760003093FB062093FA062FE32093FE0620E128
:102770002093030722E0209304071092050710928C
:10278000DE061092DD068093DF069093E006A093AC
:10279000E106B093E20684E591E09093DC06809335
:1027A000DB061092F2061092F1061092F4061092D7
:1027B000F3061092F6061092F5061092F8061092A3
:1027C000F7066091F9066E7F6D7F6093F906669556
:1027D000617081E068278AE00E94FA0161E08AE086
:1027E0000E942802E8EBF0E0E491E093EB06E4EAD3
:1027F000F0E0E491F0E0EE0FFF1FE057FF4F85910E
:1028000094919093ED068093EC0660E08BE00E943B
:1028100028028091F90681FD04C061E08BE00E94EE
:10282000FA018BE08093E706E9EBF0E0E491E093B6
:10283000E806E5EAF0E0E491F0E0EE0FFF1FEA576A
:10284000FF4F859194919093EA068093E90608954D
:10285000CF93DF93CDB7DEB7C159D1090FB6F89446
:10286000DEBF0FBECDBF789484B5826084BD84B5D1
:10287000816084BD85B5826085BD85B5816085BD7B
:1028800080916E00816080936E0010928100809133
:1028900081008260809381008091810081608093BB
:1028A0008100809180008160809380008091B100E0
:1028B00084608093B1008091B00081608093B0000B
:1028C00080917A00846080937A0080917A0082609F
:1028D00080937A0080917A00816080937A00809161
:1028E0007A00806880937A001092C1000E94BB0237
:1028F000109228061092270610922606109225069E
:102900000E94EF0289E990E09093240680932306C9
:102910008AE990E090932206809321061092FF06A8
:1029200080910407823018F098E09093FF0680931E
:10293000020762E370E080E090E00E94890260910B
:1029400005078AEF96E00E94B30368EE73E080E02B
:1029500090E00E94890260E38AEF96E00E943606CA
:102960000BE416E4C8010197F1F760E38AEF96E003
:102970000E943606C8010197F1F760E38AEF96E0FE
:102980000E94360683E592E00197F1F760E28AEF54
:1029900096E00E9436066091FF06606240E08AEF92
:1029A00096E00E944F0684E08093000740E06CE0D0
:1029B0008AEF96E00E944F060E94990612E010935B
:1029C000010740E066E08AEF96E00E944F0640E093
:1029D00062E08AEF96E00E944F068BE39FE1019749
:1029E000F1F788E08093050760E08AEF96E00E94A7
:1029F000B303E0914206F09143061083E0913E0656
:102A0000F0913F061082E0914006F091410680E18E
:102A1000808310924A06E0914606F091470686E0D0
:102A20008083E0914406F091450680818061808337
:102A3000E0914406F0914506808188608083E091B2
:102A40004406F0914506808180688083E0914406C9
:102A5000F091450680818F7D808362E085E00E9451
:102A6000280262E086E00E94280262E087E00E947D
:102A7000280261E08DE00E9428020E94990660E031
:102A800082E00E94660669E972E08AEF96E00E94A1
:102A9000300861E086E00E94660666EA72E08AEF2E
:102AA00096E00E94300868E873E180E090E00E94C0
:102AB00089020E94990661E080E00E9466066BEA46
:102AC00072E08AEF96E00E94300860E080E00E94A9
:102AD00066066AEB72E08AEF96E00E94300868EEC4
:102AE00073E080E090E00E94890261E080E00E9453
:102AF00066066FEB72E08AEF96E00E94300860E0B5
:102B000080E00E9466066AEB72E08AEF96E00E941F
:102B1000300868EE73E080E090E00E94890261E096
:102B200080E00E9466066FEC72E08AEF96E00E94F9
:102B3000300860E080E00E9466066AEB72E08AEF8F
:102B400096E00E94300868EE73E080E090E00E941A
:102B5000890261E08AE00E94280260E08AE00E9427
:102B6000FA0166E470E080E090E00E94890261E092
:102B70008AE00E94FA0162E870E080E090E00E9442
:102B8000890260E08AE00E94FA019BEE292E92E021
:102B9000392EC1010197F1F761E08AE00E94FA0144
:102BA00083EB9BE00197F1F760E08AE00E94FA0175
:102BB00083E394E00197F1F761E08AE00E94FA0173
:102BC0002BE6C22EDD24D394C6010197F1F760E015
:102BD0008AE00E94FA0183E597E00197F1F761E04E
:102BE0008AE00E94FA01C6010197F1F760E08AE0ED
:102BF0000E94FA01C6010197F1F761E08AE00E94A4
:102C0000FA0133E8832E3DE0932EC4010197F1F7DA
:102C100060E08AE00E94FA010BE711E0C801019729
:102C2000F1F761E08AE00E94FA0167E170E080E07C
:102C300090E00E94890260E08AE00E94FA014BEF76
:102C4000E42E42E0F42EC7010197F1F761E08AE03B
:102C50000E94FA01C8010197F1F760E08AE00E9442
:102C6000FA01C7010197F1F761E08AE00E94FA01D9
:102C70008BE794E00197F1F760E08AE00E94FA01A7
:102C8000C8010197F1F761E08AE00E94FA01C801EA
:102C90000197F1F760E08AE00E94FA01C80101970C
:102CA000F1F761E08AE00E94FA01C8010197F1F7AB
:102CB00060E08AE00E94FA01C8010197F1F761E043
:102CC0008AE00E94FA01C8010197F1F760E08AE00A
:102CD0000E94FA015BE7A52E57E0B52EC5010197CA
:102CE000F1F761E08AE00E94FA01C8010197F1F76B
:102CF00060E08AE00E94FA01C4010197F1F761E007
:102D00008AE00E94FA01C8010197F1F760E08AE0C9
:102D10000E94FA018FE797E00197F1F761E08AE0FE
:102D20000E94FA01C5010197F1F760E08AE00E9474
:102D3000FA01C8010197F1F761E08AE00E94FA0107
:102D4000C8010197F1F760E08AE00E94FA01C7012B
:102D50000197F1F761E08AE00E94FA01C70101974B
:102D6000F1F760E08AE00E94FA01C7010197F1F7EC
:102D700061E08AE00E94FA016AE070E080E090E0A1
:102D80000E94890260E08AE00E94FA01C80101976E
:102D9000F1F761E08AE00E94FA01C7010197F1F7BB
:102DA00060E08AE00E94FA01C8010197F1F761E052
:102DB0008AE00E94FA0166246A9465E0762EC301D7
:102DC0000197F1F760E08AE00E94FA01C8010197DB
:102DD000F1F761E08AE00E94FA01C8010197F1F77A
:102DE00060E08AE00E94FA01C7010197F1F761E013
:102DF0008AE00E94FA01C7010197F1F760E08AE0DA
:102E00000E94FA01C5010197F1F761E08AE00E9492
:102E1000FA01C8010197F1F760E08AE00E94FA0127
:102E20008BE79DE00197F1F761E08AE00E94FA01EB
:102E3000C8010197F1F760E08AE00E94FA01C80139
:102E40000197F1F761E08AE00E94FA01C801019759
:102E5000F1F760E08AE00E94FA018BE79AE00197BF
:102E6000F1F761E08AE00E94FA01C8010197F1F7E9
:102E700060E08AE00E94FA01C8010197F1F761E081
:102E80008AE00E94FA01C7010197F1F760E08AE049
:102E90000E94FA018BEF98E00197F1F761E08AE078
:102EA0000E94FA01C8010197F1F760E08AE00E94F0
:102EB000FA01C8010197F1F761E08AE00E94FA0186
:102EC000C7010197F1F760E08AE00E94FA01C801AA
:102ED0000197F1F761E08AE00E94FA017BEF472E4B
:102EE00075E0572EC2010197F1F760E08AE00E9479
:102EF000FA01C8010197F1F761E08AE00E94FA0146
:102F000061E272E080E090E00E94890260E08AE085
:102F10000E94FA01C8010197F1F761E08AE00E947E
:102F2000FA01C7010197F1F760E08AE00E94FA0117
:102F3000C8010197F1F761E08AE00E94FA01C3013C
:102F40000197F1F760E08AE00E94FA01C801019759
:102F5000F1F761E08AE00E94FA01C8010197F1F7F8
:102F600060E08AE00E94FA01C7010197F1F761E091
:102F70008AE00E94FA01C7010197F1F760E08AE058
:102F80000E94FA01C5010197F1F761E08AE00E9411
:102F9000FA01C8010197F1F760E08AE00E94FA01A6
:102FA000C7010197F1F761E08AE00E94FA01C801C8
:102FB0000197F1F760E08AE00E94FA01AA24AA943E
:102FC000E8E0BE2EC5010197F1F761E08AE00E94BA
:102FD000FA01C8010197F1F760E08AE00E94FA0166
:102FE000C8010197F1F761E08AE00E94FA01C80187
:102FF0000197F1F760E08AE00E94FA018FE79AE01A
:103000000197F1F761E08AE00E94FA01C801019797
:10301000F1F760E08AE00E94FA01C8010197F1F738
:1030200061E08AE00E94FA01C7010197F1F760E0D0
:103030008AE00E94FA01C5010197F1F761E08AE098
:103040000E94FA01C8010197F1F760E08AE00E944E
:10305000FA01C8010197F1F761E08AE00E94FA01E4
:10306000C8010197F1F760E08AE00E94FA01C70108
:103070000197F1F761E08AE00E94FA01C20101972D
:10308000F1F760E08AE00E94FA01C8010197F1F7C8
:1030900061E08AE00E94FA016EE070E080E090E07A
:1030A0000E94890260E08AE00E94FA0166E470E012
:1030B00080E090E00E94890261E08AE00E94FA01CB
:1030C00062E870E080E090E00E94890260E08AE0BF
:1030D0000E94FA01C1010197F1F761E08AE00E94C4
:1030E000FA0183EB9BE00197F1F760E08AE00E9430
:1030F000FA0183E394E00197F1F761E08AE00E942E
:10310000FA01C6010197F1F760E08AE00E94FA0136
:1031100083E597E00197F1F761E08AE00E94FA0108
:10312000C6010197F1F760E08AE00E94FA01C6014A
:103130000197F1F761E08AE00E94FA01C40101976A
:10314000F1F760E08AE00E94FA01C8010197F1F707
:1031500061E08AE00E94FA0167E170E080E090E0BF
:103160000E94890260E08AE00E94FA01C60101978C
:10317000F1F761E08AE00E94FA01C7010197F1F7D7
:1031800060E08AE00E94FA01C6010197F1F761E070
:103190008AE00E94FA01FBEEAF2EF5E0BF2EC501DA
:1031A0000197F1F760E08AE00E94FA01C6010197F9
:1031B000F1F761E08AE00E94FA01C6010197F1F798
:1031C00060E08AE00E94FA01C7010197F1F761E02F
:1031D0008AE00E94FA01C7010197F1F760E08AE0F6
:1031E0000E94FA018FE797E00197F1F761E08AE02A
:1031F0000E94FA01C8010197F1F760E08AE00E949D
:10320000FA018BE69DE00197F1F761E08AE00E9408
:10321000FA01C8010197F1F760E08AE00E94FA0123
:10322000C6010197F1F761E08AE00E94FA01C80146
:103230000197F1F760E08AE00E94FA0183E79AE0E3
:103240000197F1F761E08AE00E94FA01C801019755
:10325000F1F760E08AE00E94FA01C6010197F1F7F8
:1032600061E08AE00E94FA01C7010197F1F760E08E
:103270008AE00E94FA0183EE98E00197F1F761E09D
:103280008AE00E94FA01C8010197F1F760E08AE044
:103290000E94FA01C6010197F1F761E08AE00E94FD
:1032A000FA01C7010197F1F760E08AE00E94FA0194
:1032B000C6010197F1F761E08AE00E94FA01C501B9
:1032C0000197F1F760E08AE00E94FA01C6010197D8
:1032D000F1F761E08AE00E94FA016CE172E080E0BF
:1032E00090E00E94890280EE92E00E941D088FEE1D
:1032F00092E00E941D0861E08AE00E94280260E0DE
:103300008AE00E94FA0166E470E080E090E00E94AA
:10331000890261E08AE00E94FA0162E870E080E0E0
:1033200090E00E9489021092F6061092F506109223
:10333000F4061092F3061092F2061092F1068DE751
:1033400091E09093F8068093F7069091E706963106
:1033500008F045C02DEA30E03093F2062093F106E4
:103360001093F4060093F30624E131E03093F6065F
:103370002093F5062091680084E0983048F031E011
:103380009E3008F430E081E001C0880F3A95EAF7FA
:10339000822B809368002DE630E0983050F02BE6C9
:1033A00030E09E3030F02CE630E0963110F030E026
:1033B00020E03093EF062093EE06292F30E098307E
:1033C00008F07EC081E001C0880F9A95EAF78093EB
:1033D000F0068091F7069091F8060197F1F7809139
:1033E000F5069091F606892B49F1E0912B06F091B4
:1033F0002C0626E0EB3DF20709F1309739F0A3895E
:10340000B4899C918589809589238C938091F90654
:103410008E7F8093F90610922A06109229068BED72
:1034200096E090932C0680932B06E091EE06F091A7
:10343000EF0680819091F006892B808381E193E0F3
:103440000E941D0844E050E060E071E08BED96E0E2
:103450000E949B0069E170E080E090E00E94890298
:1034600084E293E00E941D0845E050E064E071E0D2
:103470008BED96E00E949B0062E370E080E090E0BC
:103480000E9489028E010F5F1F4F6801F12CE12C11
:103490008BED96E00E940E051816190624F430E212
:1034A000E316F104D1F4F80190E080E09F01201BC5
:1034B000310B2E153F05E4F42191820F911DF6CFBB
:1034C0009E3040F42850310981E001C0880F2A95D0
:1034D000EAF77DCF2E503109F7CF8BED96E00E94B1
:1034E00026054FEFE41AF40AD6018D936D01D0CF73
:1034F0008115964009F05BC08CE393E00E941D08A3
:1035000062E370E080E090E00E9489020E949906E8
:1035100020912401309125014091260150912701ED
:10352000C657DF4F288339834A835B83CA58D0400C
:103530008091280190912901A0912A01B0912B013D
:10354000C257DF4F88839983AA83BB83CE58D0406C
:103550008DE0C82EDD24D3940E94BB0287E00E9438
:10356000D101892BA1F4F090310666E970E080E08A
:1035700090E00E948902F394F09231060E9499062D
:10358000C0920B019CE090930A01D0920901E09156
:103590003106E730E8F4F0E0E053F54E0C947C207F
:1035A000E21AF51AF51AFA1AFF1AA61CE21D82E6AB
:1035B00093E00E941D0860ED77E080E090E00E94BB
:1035C00089029ECF0E948E0D0E9432080E944A05F9
:1035D00080E090E0892B09F4BFCF0E940501882389
:1035E00009F4B8CF0E940000B5CF0E948E0D0E9452
:1035F000CC0BECCF0E948E0D0E940A0AE7CF0E94EE
:10360000BB021B012C01C257DF4F288139814A813F
:103610005B81CE58D040CA57DF4F288339834A8315
:103620005B83C658D040CE018A579F4F0E948D00C1
:1036300032E7CF57DF4F3883C158D04095E0CE579F
:10364000DF4F9883C258D04044E7CD57DF4F4883BF
:10365000C358D040CC57DF4FD882C458D040CB5746
:10366000DF4F8883C558D04045E050E0BE016F571A
:103670007F4F8BED96E00E949B0062E370E080E05C
:1036800090E00E94890238015801F12CE12C8BED69
:1036900096E00E940E05181619067CF450E8E5160F
:1036A000F10459F08BED96E00E9426059FEFE91A90
:1036B000F90AD5018D935D01EACF80912D06909195
:1036C0002E06A0912F06B0913006A2019101281B71
:1036D000390B4A0B5B0BDA01C901813D9740A1050B
:1036E000B10530F46DE771E082E396E00E943008A6
:1036F00020922D0630922E0640922F0650923006D0
:10370000B12CA12C470141E0841A9108AE14BF04EA
:10371000C1F0D3014D913D0150E070E060E020E147
:1037200082E396E00E94C206A814B90431F063E86F
:1037300071E082E396E00E943008BFEFAB1ABB0A4B
:10374000E5CFEA84F12C8C84912CAE84B12C86E0F8
:103750000E94D101892B91F480910A018F5F80939F
:103760000A010E94990666E970E080E090E00E94FC
:10377000890286E00E94D101892BD9F385E00E945D
:10378000D101892B91F480910A01815080930A0123
:103790000E94990666E970E080E090E00E9489024C
:1037A00085E00E94D101892BD9F3E0910A01EE3026
:1037B00008F00ECFF0E0E152F44E0C947C20ED1BAB
:1037C000F11BFC1B151C321C501C6F1C761C7D1C35
:1037D000841C8B1C921C951C921CEAE0E0930A014D
:1037E000F7CE60E083E00E94660667E973E08AEF47
:1037F00096E00E9430082FC060E083E00E946606D9
:1038000069EA73E08AEF96E00E943008F7E0EF166D
:10381000F10409F561E080E00E94660664EB73E064
:103820008AEF96E00E943008D3CE60E083E00E94E9
:10383000660664EC73E08AEF96E00E94300827E0A9
:10384000E216F10439F337E08316910419F347E0E7
:10385000A416B104F9F261E085E00E94660662EA0E
:1038600073E0DECF60E083E00E9466066FEC73E0F9
:103870008AEF96E00E94300858E0E516F10439F42A
:1038800061E080E00E9466066AED73E0C9CF88E0DF
:1038900088169104A9F398E0A916B104E1F6F0CFD7
:1038A00060E084E00E9466066AEE73E08AEF96E0CC
:1038B0000E943008ACE0EA16F10439F461E080E0DF
:1038C0000E94660663EF73E0ABCFBCE08B169104F9
:1038D000A9F3ECE0AE16B10409F0BDCFEFCF60E084
:1038E00083E00E94660664E074E081CF60E086E0D9
:1038F0000E9466066EE074E07ACF60E087E00E9486
:1039000066066EE573E073CF60E083E00E946606B2
:1039100063E174E06CCF60E083E00E9466066EE1D4
:1039200074E065CFD0920A0153CE60E084E00E943B
:10393000660669E274E08AEF96E00E94300861E072
:1039400081E00E94660661E374E06ACFC0920B01D9
:103950000E94BB024B015C0180912D0690912E06C6
:10396000A0912F06B0913006A5019401281B390BB8
:103970004A0B5B0BDA01C90189389341A105B105F6
:1039800040F445E050E064E071E08BED96E00E9489
:103990009B0080922D0690922E06A0922F06B09248
:1039A00030060E94BB0285E00E94D101892B91F470
:1039B000809109018F5F809309010E94990666E951
:1039C00070E080E090E00E94890285E00E94D101D1
:1039D000892BD9F3F090090141E0F41609F4D0C025
:1039E000F41608F4CAC052E0F51609F4DAC083E010
:1039F000F812EECDC657DF4F288139814A815B81AD
:103A0000CA58D040CF57DF4F288339834A835B831E
:103A1000C158D040CE018F579F4F0E948D0032E792
:103A2000398395E09A8340E64B83FC828D8345E0A1
:103A300050E0B8018BED96E00E949B0062E370E0DD
:103A400080E090E00E94890260E080E00E946606CB
:103A50006AE674E08AEF96E00E94300861E080E058
:103A60000E9466066AE774E08AEF96E00E943008DA
:103A700060ED77E080E090E00E9489020E94990664
:103A800045E050E0B8018BED96E00E949B0060E0BD
:103A900080E00E94660666E874E08AEF96E00E9485
:103AA000300861E080E00E94660666E974E08AEF13
:103AB00096E00E94300860ED77E080E090E00E94A0
:103AC000890245E050E0B8018BED96E00E949B0032
:103AD00061E080E00E94660663EA74E08AEF96E0A7
:103AE0000E94300861E080E00E94660661EB74E0AD
:103AF0008AEF96E00E94300868EE73E080E090E084
:103B00000E94890245E050E0B8018BED96E00E94EA
:103B10009B0061E080E00E94660660EC74E08AEF42
:103B200096E00E94300868EE73E080E090E00E942A
:103B3000890261E080E00E94660660ED74E08AEF31
:103B400096E00E94300868EE73E080E090E00E940A
:103B500089020E94990661E081E00E94660661EE9A
:103B600074E08AEF96E00E94300860ED77E080E034
:103B700090E00E9489020E949906D092090128CD06
:103B800061E084E00E9466066EE474E08AEF96E0ED
:103B90000E94300860E084E00E94660660E474E001
:103BA0003FCE60E080E00E94660668E474E08AEF41
:103BB00096E00E94300861E080E00E94660668E5B9
:103BC00074E02ECEC0920B011092310601CD84E537
:103BD00091E09093DC068093DB0680912B06909118
:103BE0002C068B5D964071F4E091EE06F091EF06A5
:103BF00090818091F00680958923808310922C0615
:103C000010922B0608955058BB27AA270E941B1E0E
:103C10000C94951F0E94871F38F00E948E1F20F081
:103C200039F49F3F19F426F40C94841F0EF4E095A8
:103C3000E7FB0C947E1FE92F0E94A61F58F3BA17CA
:103C4000620773078407950720F079F4A6F50C94B2
:103C5000C81F0EF4E0950B2EBA2FA02D0B01B90151
:103C600090010C01CA01A0011124FF27591B99F0F2
:103C7000593F50F4503E68F11A16F040A22F232FFE
:103C8000342F4427585FF3CF469537952795A7954E
:103C9000F0405395C9F77EF41F16BA0B620B730BF5
:103CA000840BBAF09150A1F0FF0FBB1F661F771F66
:103CB000881FC2F70EC0BA0F621F731F841F48F41B
:103CC000879577956795B795F7959E3F08F0B0CFA4
:103CD0009395880F08F09927EE0F9795879508958B
:103CE0000E945A1F08F481E008950E94891E0C94D6
:103CF000951F0E948E1F58F00E94871F40F029F4E4
:103D00005F3F29F00C947E1F51110C94C91F0C9435
:103D1000841F0E94A61F68F39923B1F3552391F3E2
:103D2000951B550BBB27AA2762177307840738F02A
:103D30009F5F5F4F220F331F441FAA1FA9F335D087
:103D40000E2E3AF0E0E832D091505040E695001C3B
:103D5000CAF72BD0FE2F29D0660F771F881FBB1FF5
:103D6000261737074807AB07B0E809F0BB0B802DD3
:103D7000BF01FF2793585F4F3AF09E3F510578F0FF
:103D80000C947E1F0C94C91F5F3FE4F3983ED4F35C
:103D9000869577956795B795F7959F5FC9F7880FD3
:103DA000911D9695879597F90895E1E0660F771F25
:103DB000881FBB1F621773078407BA0720F0621BB6
:103DC000730B840BBA0BEE1F88F7E09508950E94E1
:103DD000EE1E6894B1110C94C91F08950E94AE1F85
:103DE00088F09F5798F0B92F9927B751B0F0E1F0BC
:103DF000660F771F881F991F1AF0BA95C9F714C06C
:103E0000B13091F00E94C81FB1E008950C94C81F12
:103E1000672F782F8827B85F39F0B93FCCF38695A4
:103E200077956795B395D9F73EF490958095709501
:103E300061957F4F8F4F9F4F0895E89409C097FB7E
:103E40003EF490958095709561957F4F8F4F9F4F71
:103E50009923A9F0F92F96E9BB279395F6958795B5
:103E600077956795B795F111F8CFFAF4BB0F11F478
:103E700060FF1BC06F5F7F4F8F4F9F4F16C088231F
:103E800011F096E911C0772321F09EE8872F762F55
:103E900005C0662371F096E8862F70E060E02AF096
:103EA0009A95660F771F881FDAF7880F9695879582
:103EB00097F90895990F0008550FAA0BE0E8FEEF57
:103EC00016161706E807F907C0F012161306E407DE
:103ED000F50798F0621B730B840B950B39F40A26D7
:103EE00061F0232B242B252B21F408950A2609F4B5
:103EF000A140A6958FEF811D811D089597F99F67B9
:103F000080E870E060E008959FEF80EC0895002461
:103F10000A941616170618060906089500240A942E
:103F200012161306140605060895092E0394000CB4
:103F300011F4882352F0BB0F40F4BF2B11F460FF43
:103F400004C06F5F7F4F8F4F9F4F089557FD90586C
:103F5000440F551F59F05F3F71F04795880F97FB4D
:103F6000991F61F09F3F79F0879508951216130607
:103F70001406551FF2CF4695F1DF08C01616170636
:103F80001806991FF1CF869571056105089408956B
:103F9000E894BB2766277727CB0197F908950E94FD
:103FA0005A1F08F48FEF08950E94E71F0C94951F85
:103FB0000E94871F38F00E948E1F20F0952311F079
:103FC0000C947E1F0C94841F11240C94C91F0E9412
:103FD000A61F70F3959FC1F3950F50E0551F629F88
:103FE000F001729FBB27F00DB11D639FAA27F00D52
:103FF000B11DAA1F649F6627B00DA11D661F829F79
:104000002227B00DA11D621F739FB00DA11D621F5D
:10401000839FA00D611D221F749F3327A00D611D7A
:10402000231F849F600D211D822F762F6A2F11245C
:104030009F5750409AF0F1F088234AF0EE0FFF1F8F
:10404000BB1F661F771F881F91505040A9F79E3FE6
:10405000510580F00C947E1F0C94C91F5F3FE4F360
:10406000983ED4F3869577956795B795F795E7953C
:104070009F5FC1F7FE2B880F911D9695879597F945
:1040800008950E945A1F880B990B089597FB072EDD
:1040900016F4009407D077FD09D00E94822007FC17
:1040A00005D03EF4909581959F4F08957095619548
:1040B0007F4F0895A1E21A2EAA1BBB1BFD010DC064
:1040C000AA1FBB1FEE1FFF1FA217B307E407F507C8
:1040D00020F0A21BB30BE40BF50B661F771F881FA4
:1040E000991F1A9469F760957095809590959B013A
:1040F000AC01BD01CF010895EE0FFF1F0590F491B3
:10410000E02D0994AA1BBB1B51E107C0AA1FBB1FCE
:10411000A617B70710F0A61BB70B881F991F5A9553
:10412000A9F780959095BC01CD01089510E0C2E6F5
:10413000D0E004C0FE010E947C202196C336D10746
:10414000C9F7F894FFCFFE04FFFF720500F0990154
:104150000C0D72057120720571D100004000140031
:1041600054007205711172057117720560037205B2
:104170007401000000003B019B00C8008801F900A9
:10418000D700EB00000000008403570347059800A8
:1041900050033D032E0300000000B2049B004705BE
:1041A00098000E0526059A0400000000A4069B0056
:1041B0004705C7026E616E00696E66006F76660025
:1041C0000D0A005241573A20003B0052415720420D
:1041D0004541542046493A200052504D203D00525E
:1041E000706D00424154203D00564F4C54005450D5
:1041F000532056203D00566F6C005450532025200C
:104200003D002020202025004543542056203D001D
:104210004543542043203D00454F542056203D0047
:10422000454F542043203D004941542056203D0035
:104230002D2D2D004941542043203D004D4150205B
:104240003D004B506100434B50203D00494E4A20F9
:104250003D0020206D53006F3220564F4C54203DBE
:10426000006F322053544654203D00454E474E20A7
:10427000535453203D002D2D2D20005357544320DF
:10428000535453203D004F4E20004F4646005343A9
:1042900053203D004D494C203D005350454544209E
:1042A0003D004B6D2F680050554D5020203D0020A3
:1042B0004144562031353000204265617420466902
:1042C000203230313300205265766F204669740009
:1042D000204265617420506F5020323031330041EC
:1042E0006E64616C6173204C696D61005465636834
:1042F000004C6F6164696E672064617461202E00F8
:1043000056312E30004C6F6164696E6720646174B1
:1043100061202E2E004C6F6164696E6720646174A9
:1043200061202E2E2E005374617274696E672075A1
:10433000702E2E2E0053657474696E67206C696E42
:1043400065206C6F772037306D732C206869676843
:10435000203132306D730053656E64696E6720459D
:1043600043552057616B6575700053656E64696EC7
:10437000672045435520496E697420537472696EF5
:1043800067005375636365737366756C6C79206F32
:1043900070656E656420636F6E6E656374696F6EC1
:1043A00020746F20454355004661696C6564207434
:1043B0006F206F70656E20636F6E6E656374696FDA
:1043C0006E20746F204543552C20747279696E6796
:1043D00020616761696E20696E2032730053656EDB
:1043E000736F72204D4150003E204F4B203C0053D4
:1043F000656E736F7220454F54003E204572726F98
:1044000072204D494C202837290053656E736F7216
:10441000204543540053656E736F7220545053000F
:104420003E204572726F72204D494C202838290079
:10443000496E6A6563746F72003E204572726F72D6
:10444000204D494C20283132290053656E736F721C
:10445000204F3200494143560053656E736F7220FE
:10446000434B500053656E736F72204241530020DE
:104470002028445443290044617461204B657275BF
:1044800073616B616E0020205245534554005961A1
:104490006B696E2048617075732044544300546505
:1044A0006B616E20446F776E2E2E2E21212120000D
:1044B00050726F7365732E2E2E2E2E2E2121210009
:1044C000486170757320445443202E00536162612B
:1044D00072205961612E2E2E2121210048617075B4
:1044E0007320445443202E2E00486170757320447D
:1044F0005443202E2E2E004861707573204454437F
:10450000202E2E2E2E0048617075732044544320B7
:104510002E2E2E2E2E004861707573204454432099
:104520002E2E2E2E2E2E0053656C657361692E2E55
:084530002E2E212121210000A3
:107E0000112484B714BE81FFF0D085E080938100F7
:107E100082E08093C00088E18093C10086E0809377
:107E2000C20080E18093C4008EE0C9D0259A86E02C
:107E300020E33CEF91E0309385002093840096BBD3
:107E4000B09BFECF1D9AA8958150A9F7CC24DD24C4
:107E500088248394B5E0AB2EA1E19A2EF3E0BF2EE7
:107E6000A2D0813461F49FD0082FAFD0023811F036
:107E7000013811F484E001C083E08DD089C08234E0
:107E800011F484E103C0853419F485E0A6D080C0E4
:107E9000853579F488D0E82EFF2485D0082F10E0AE
:107EA000102F00270E291F29000F111F8ED06801E7
:107EB0006FC0863521F484E090D080E0DECF843638
:107EC00009F040C070D06FD0082F6DD080E0C81688
:107ED00080E7D80618F4F601B7BEE895C0E0D1E017
:107EE00062D089930C17E1F7F0E0CF16F0E7DF06D8
:107EF00018F0F601B7BEE89568D007B600FCFDCFD4
:107F0000A601A0E0B1E02C9130E011968C91119780
:107F100090E0982F8827822B932B1296FA010C0160
:107F200087BEE89511244E5F5F4FF1E0A038BF0790
:107F300051F7F601A7BEE89507B600FCFDCF97BE46
:107F4000E89526C08437B1F42ED02DD0F82E2BD052
:107F50003CD0F601EF2C8F010F5F1F4F84911BD097
:107F6000EA94F801C1F70894C11CD11CFA94CF0C13
:107F7000D11C0EC0853739F428D08EE10CD085E9AC
:107F80000AD08FE07ACF813511F488E018D01DD067
:107F900080E101D065CF982F8091C00085FFFCCF94
:107FA0009093C60008958091C00087FFFCCF809118
:107FB000C00084FD01C0A8958091C6000895E0E648
:107FC000F0E098E1908380830895EDDF803219F02E
:107FD00088E0F5DFFFCF84E1DECF1F93182FE3DFCA
:107FE0001150E9F7F2DF1F91089580E0E8DFEE27F6
:047FF000FF270994CA
:027FFE00040479
:00000001FF
